:03000000021F7B61
:0C1F7B00787FE4F6D8FD75818B021B9284
:100E35004C203D20006D6D2E0D0A00C0F9A4B0991F
:100E45009282F88090000000000000000000000081
:100E5500000000000000000000000000000000008D
:100E650000000000000000000000000000007F00FE
:100E7500000000000000000000000000000000006D
:100E8500000000000000000000000000000000005D
:100E9500000000000000000000000000000000004D
:100EA500000000000000000000007D0000000000C0
:100EB500000000000000000000000000000000002D
:100EC500000000000000000000000000000000001D
:100ED500000000000000000000000000000000000D
:050EE500000000000008
:101F1800758920758DFD758BFD7598505387EFD2A7
:051F28008EE4F5A82283
:031F87002430FF04
:081F8A008F993099FDC29922E4
:101AFC00AE07EE54F0D39490EEC44006540F243746
:101B0C008004540F2430FF121F8AEE540FFFD3941D
:101B1C00094005EF24378005EE540F2430FF121FC7
:021B2C008A220B
:1013CA00AD07AC06EC54F0FED3E49400EE9490EC36
:1013DA00C44006540F24378004540F2430FF121FD0
:1013EA008AEC540FFED3E49400EE9409EC540F40B7
:1013FA0004243780022430FF121F8AED54F0D3945C
:10140A0090E49400ECC4F854F0C8400BEDC4540FB7
:10141A0048540F24378009EDC4540F48540F243020
:10142A00FF121F8AED540FD39409E49400ED540F70
:0D143A004004243780022430FF121F8A2254
:101EA600EF121F87ED121F87EB2430FF121F8AE502
:071EB6003E2430FF021F8AE9
:101C89008B438A448945AB43AA44A9451202D160D2
:101C9900130545E5457002054414F91202D1FF12F6
:041CA9001F8A80E22C
:011CAD002214
:0E1F52005389F0438901E4F58CF58AD2A92267
:05000300D28AD2AA22FE
:0C1F6E00E4FFE4FE0EBE21FC0FBF0AF6EB
:011F7A002244
:041E4400AD07AC0634
:101E4800E4FBFAC3EB9DEA9C500A121F6E0BBB0021
:041E5800010A80EF0C
:011E5C002263
:03001300020008E0
:03000800C28B3276
:03000B0002000EE2
:03000E00C28D326E
:10181800E4F58CF58AD29400000000000000000076
:10182800000000000000C2943095FDD28C2095FD88
:10183800C28C858C15858A16E515FE7C00E4251674
:10184800F510EC3EF50FFCAD10E41201217B7B7A1C
:1018580014792E783E12001612015A8E118F122218
:100D7700E4F58CF58AD29400000000000000000022
:100D8700000000000000C2943095FDD28C2095FD34
:100D9700C28C858C15858A16E515FE7C00E4251620
:100DA700F510EC3EF50FFCAD10E41201217B7B7AC8
:100DB70014792E783E12001612015A8E118F127C6A
:100DC700007D0A1202EA8D08AE11AF127C007D0A7F
:100DD7001202EA8E138F147C007D0A1202EA8D0933
:100DE700AE13AF147C007D0A1202EA8E138F147CB7
:100DF700007D0A1202EA8D0AAE13AF147C007D0A49
:100E07001202EA8E138F147C007D0A1202EA8D0B00
:100E17007BFF7A0E7935121C8985083EAB09AD0A2E
:0E0E2700AF0B121EA67BFF7A0E793A021C89D1
:061EBD00D2937FA47E0613
:101EC3007C007D0A1202EAEF1F70011E144E70F7A8
:011ED30022EC
:101B2E007E06121EC3C293D2927F147E05121EC36E
:061B3E00C2927F147E003C
:101B4400AB07AA060BBB00010AEB1B70011A144A6F
:0C1B540060097F847E03121EC380EE2215
:0619CE007D2C7C017E006F
:0819D4008E378F388C398D3AF3
:1019DC00900001D3E5829538E58395375024D29356
:1019EC00E53A24DCFFE5393405FE121EC3C293D25E
:1019FC0092C374B4953AFF74059539FE121B3BA340
:021A0C0080D187
:011A0E0022B5
:081948007F017DC87C007E00D8
:081950008E328F338C348D358B
:10195800900001D3E5829533E58395325025D293E3
:10196800C374E59535FF74059534FE121EC3C29302
:10197800D292C374DC9535FF74059534FE121B3B77
:03198800A380D069
:01198B002239
:08198C007F017DC87C007E0094
:081994008E328F338C348D3547
:10199C00900001D3E5829533E58395325023D293A1
:1019AC00E53524DCFFE5343405FE121EC3C293D2A8
:1019BC0092E53524D5FFE5343405FE121B3BA3809C
:0119CC00D248
:0119CD0022F7
:081A4B008E3F8F408C418D425B
:101A5300900001D3E5829540E583953F5024D293CE
:101A6300C374DC9542FF74059541FE121EC3C293F5
:101A7300D292E54224DCFFE5413405FE121B3BA371
:021A830080D110
:011A8500223E
:041CF6008E378F385E
:101CFA00900001D3E5829538E5839537500F121E7F
:0D1D0A00BDC293D2927F00121B39A380E668
:011D170022A9
:041CAE008E468F4788
:101CB200900001D3E5829547E58395465011121EA7
:0F1CC200BDC293D2927FB07E04121B3BA380E47D
:011CD10022F0
:041D9C008E378F38B7
:101DA000900001D3E5829538E5839537500AD293A8
:081DB0007FCC121B2EA380EB77
:011DB8002208
:0B1F9200C293C2927F147E00021B4429
:101DB900D2937FDC7E05121EC3C293D2927FDC7E52
:0D1DC90005121EC3C2927F147E00021B444F
:041D18008E328F3345
:101D1C00900001D3E5829533E5839532500F121E66
:0D1D2C00BDC293D2927F0A121B39A380E63C
:011D39002287
:0F18FF007FD07E07121B447D327C007F287E0045
:08190E008E298F2A8C2B8D2CF1
:10191600900001D3E582952AE58395295023D29339
:10192600E52C24DCFFE52B3405FE121EC3C293D240
:1019360092E52C24F5FFE52B3405FE121B3BA38014
:01194600D2CE
:01194700227D
:0F18B4007FD07E07121B447F1E7D467C007E0086
:0818C3008E2B8F2C8C2D8D2E35
:1018CB00900001D3E582952CE583952B5025D2937F
:1018DB00C374E6952EFF7405952DFE121EC3C2939D
:1018EB00D292C374E1952EFF7405952DFE121B3B0E
:0318FB00A380D0F7
:0118FE0022C7
:101F2D00900001D2937F45121B2EA3E582647A4562
:031F3D008370F0BE
:011F4000227E
:101E5D00900001121EBDC293D2927F79121B39A33D
:081E6D00E582648F458370EBF0
:011E7500224A
:101F0200D2A100D2A00000000000C2A10000000087
:061F120000C2A000002245
:101F4100C2A100D2A00000000000D2A10000000048
:011F5100226D
:101A0F00E4FEEFA806088002C333D8FC30E704D207
:101A1F00A18002C2A100D2A00000000000C2A00E4F
:101A2F00BE08DF0000D2A10000D2A000000030A14C
:0B1A3F0004C2008002D200C2A0000020
:011A4A002279
:101CD200E4FFD2A1FE00C2A00000000000D2A000DA
:101CE20000EF25E0FF30A1010F00000EBE08E6C2A2
:031CF200A000004F
:011CF50022CC
:101E7600200104C2A18002D2A1000000D2A000006D
:081E8600000000C2A0000022D0
:0D1F6000EFD3940040077E7DDEFE1F80F36E
:011F6D002251
:101BED00AE07AC03121F02121A0F200002C322AF60
:101BFD0005121A0F200002C322AF04121A0F200083
:081C0D0002C322121F41D32281
:101E2A00121F02121A0F200002C322AF05121A0F44
:0A1E3A00200002C322121F41D32230
:071D3A007F90121E2A7F902A
:101D4100121F02EF04FF121A0F2000037F0022125C
:0A1D51001CD2D201121E76121F41AF
:011D5B002265
:101E8E00D2AFD2ACD2AB758920E4F5877598507578
:081E9E008DFD758BFDD28E2233
:1003FC00E47886F608F6E47888F608F6C37409788B
:10040C008796FFE41896FE7888E6FC08E6FDC39F05
:10041C00EC9E40030204BFED2401FFE43CFEEF25FB
:10042C00E0FFEE338F82F58312036AFDACF078891E
:10043C00E625E0FF18E6338F82F58312036AD39D1D
:10044C00E5F09C40637888E6FC08E6FD25E0FFECCF
:10045C00338F82F58312036A788AA6F008F6ED24AE
:10046C0001FFE43CFEEF25E0FFEE338F82F58312B3
:10047C00036AFD7889E625E0FF18E6338F82F58361
:10048C00E5F08DF01203C1788AE6FC08E6FD788968
:10049C00E62401FF18E436FEEF25E0FFEE338F82F1
:1004AC00F583EC8DF01203C1788906E6187001060D
:1004BC00020408788706E6187001067887E6640956
:1004CC001846600302040212033F7872A6F008F685
:1004DC00785E7600087601E47888F608F67886F679
:1004EC0008F67886E6FE08E6FFC39409EE94004011
:1004FC0003020584EF2401FFE43EFEEF25E0FFEE4E
:10050C00338F82F58312036AFDACF07887E625E021
:10051C00FF18E6338F82F58312036A6D7003EC6566
:10052C00F0603B788906E6187001067889E6FD25AF
:10053C00E0245EF876000876017887E62401FF183F
:10054C00E436FEEF25E0FFEE338F82F58312036A6B
:10055C00FFED25E02472F8A6F008A607800F788935
:10056C00E625E0245EF80806E61870010678870692
:10057C00E6187001060204EEE47886F608F6D379E4
:10058C0087E778899619E718965066E4788AF60812
:10059C00F67886E6FE08E6FFD3788996EE18965034
:1005AC0046788AE6FC08E6FD25E0245EF8E6FA08C3
:1005BC00E6FBA907E925E0245EF8E6FE08E6C39B06
:1005CC00EE9A50028021ED7889667003EC18667003
:1005DC000CE925E02472F8E6FE08E6FF22788B068B
:1005EC00E61870AD0680AA788706E618709006802B
:0105FC008D71
:0105FD0022DB
:0B1D7D00C3E52E952CFFE52D952BFEF5
:101D8800D3EF9400EE64809480400122C3E49FFF67
:041D9800E49EFE22A5
:101A8600784A7C007D007BFF7A0E794A7E007F14BF
:101A96001202ABE4FBFA7D40121D3AEB25E0244A24
:101AA600F8760008A6070BBB00010AEB640A4A7029
:0A1AB600E57B007A00794A1203FC78
:011AC0002203
:101AC100784A7C007D007BFF7A0E795E7E007F1470
:101AD1001202ABE4FBFA7D41121D3AEB25E0244AE8
:101AE100F8760008A6070BBB00010AEB640A4A70EE
:0A1AF100E57B007A00794A1203FC3D
:011AFB0022C8
:1017C7008B328A3389348C358D36121A86AB32AA1E
:1017D70033A934EE8FF01203A2AB32AA33A9341225
:1017E700033FC39536E5F0953550077F027E00022B
:1017F7001CF6AB32AA33A93412033FD39536E5F072
:10180700953540077F027E00021D9C7F021219CE8C
:0118170022AE
:10151A008B318A3289338C348D35121AC1AB31AA98
:10152A0032A933EE8FF01203A2AB31AA32A93312D9
:10153A00033FC39535E5F0953450077F027E0002DC
:10154A001D9CAB31AA32A93312033FD39535E5F07E
:10155A00953440077F027E00021CF67D2C7C017FB9
:07156A00027E001219D422D9
:101ED400121F2D121DB9121DB97DC87C007F3C7ED6
:071EE400001219D4021DB920
:101EEB00121E5D121DB9121DB97DC87C007F327E9A
:071EFB00001219D4021DB909
:041C15007F7D7E0051
:101C19008E298F2A121818D3EF952AE5296480F89E
:101C2900EE648098400D7D2C7C017F027E001219A4
:041C3900D480E12250
:08119F007F0F7D037C007E0040
:0811A7008E298F2A8C2B8D2C60
:1011AF00121AC18E2D8F2E7D2C7C01AF2AAE2912E3
:1011BF0019D4121AC18E2F8F30C3E530952EFFE54B
:1011CF002F952DFE121D88C3EF9402EE648094803C
:1011DF00500D7B007A00792FAD2EAC2D12151AC34E
:1011EF00E530952EFFE52F952DFE121D88C3EF9448
:1011FF0002EE64809480402CD3E530952EE52F9538
:10120F002D400B7DC87C00AF2CAE2B021950C3E5CF
:10121F0030952EE52F952D500B7DC87C00AF2CAE51
:04122F002B121994D1
:011233002298
:0A104A007F0F7B037A007D467E00D5
:0A1054008E298F2A8D2B8A2C8B2DFC
:10105E00121A868E2E8F2FE52BB4460D7D2C7C0119
:10106E00AF2AAE291219D4800CE52BB45207AF2A41
:10107E00AE29121D18121A868E308F31C3E53195A6
:10108E002FFFE530952EFE121D88C3EF9402EE64FD
:10109E00809480500D7B007A007930AD2FAC2E12EB
:1010AE0017C7C3E531952FFFE530952EFE121D882B
:1010BE00C3EF9402EE64809480402CD3E531952FDB
:1010CE00E530952E400B7DC87C00AF2DAE2C02195D
:1010DE0094C3E531952FE530952E500B7DC87C00DD
:0710EE00AF2DAE2C121950CA
:0110F50022D8
:040CA0007F2D7E0026
:040CA4008E298F2ADC
:100CA800752B00752C35752D00752E35D3E52E95D1
:100CB8002AE52D95295003020D76D3E52C952AE5D2
:100CC8002B95295003020D76121A868E2B8F2C7DB8
:100CD8002C7C017F0F7E001219D4121A868E2D8F5C
:100CE8002E121D7DC3EF9402EE64809480503B1257
:100CF8001A868E2B8F2CD3E52E952AE52D95294023
:100D08006DD3E52C952AE52B95294062121D7ED3DB
:100D1800EF9409EE648094804001227B007A007988
:100D28002DAD2CAC2B1217C780CC121D7DC3EF94B0
:100D380002EE648094805003020CB4D3E52E952A09
:100D4800E52D95295003020CB4D3E52E952CE52DFD
:100D5800952B400612198C020CB4C3E52E952CE590
:0E0D68002D952B4003020CB4121948020CB456
:010D7600225A
:0407FA007F2D7E00D1
:0407FE008E298F2A87
:10080200752B00752C35752D00752E35D3E52E957B
:100812002AE52D952950030208EFD3E52C952AE508
:100822002B952950030208EF121AC18E2B8F2C7FB1
:100832000D7E00121D18121AC18E2D8F2EC3E52EA9
:10084200952CFFE52D952BFE121D88C3EF9402EE29
:10085200648094805048121AC18E2B8F2CD3E52EBF
:10086200952AE52D952950030208EFD3E52C952A08
:10087200E52B95294077E52E952CFFE52D952BFE4E
:10088200121D88D3EF9412EE648094804001227B83
:10089200007A00792DAD2CAC2B12151A80BFC3E55E
:1008A2002E952CFFE52D952BFE121D88C3EF940289
:1008B200EE64809480500302080ED3E52E952AE55B
:1008C2002D9529500302080ED3E52E952CE52D9582
:1008D2002B400612194802080EC3E52E952CE52D71
:0D08E200952B400302080E12198C02080E1F
:0108EF0022E6
:0808F0007D9B7C007F017E006E
:0808F8008E298F2A8C2B8D2C18
:10090000752D00752E35752F00753035D3E5309572
:100910002AE52F952950030209E4121818D3EF9500
:100920002CE52B6480F8EE648098500122121A8620
:100930008E2D8F2E7D2C7C017F0C7E001219D412FF
:100940001A868E2F8F30C3E530952EFFE52F952D1B
:10095000FE121D88C3EF9402EE6480948050321220
:100960001A868E2D8F2ED3E530952AE52F952940B6
:10097000737B007A00792FAD2EAC2D1217C7121899
:1009800018D3EF952CE52B6480F8EE64809850D650
:1009900022C3E530952EFFE52F952DFE121D88C34D
:1009A000EF9402EE64809480500302090CD3E5308A
:1009B000952AE52F9529500302090CD3E530952E91
:1009C000E52F952D40087F0212198E02090CC3E510
:1009D00030952EE52F952D400302090C7F02121948
:0409E0004A02090CB2
:0109E40022F0
:0805FE007D7F7F027C007E007E
:080606008E298F2A8C2B8D2C0C
:10060E00752D00752E35752F00753035D3E5309567
:10061E002AE52F952950030206FD121818D3EF95DF
:10062E002CE52B6480F8EE648098500122121AC1DA
:10063E008E2D8F2E7F0F7E00121D18121AC18E2F37
:10064E008F30C3E530952EFFE52F952DFE121D88B8
:10065E00C3EF9402EE648094805035121AC18E2D31
:10066E008F2ED3E530952AE52F952950030206FDEE
:10067E007B007A00792FAD2EAC2D12151A12181898
:10068E00D3EF952CE52B6480F8EE64809850D3223E
:10069E00C3E530952EFFE52F952DFE121D88C3EF75
:1006AE009402EE64809480500302061AD3E53095CE
:1006BE002AE52F9529500302061AD3E530952EE52B
:1006CE002F952D400E7DC87C007F027E00121950A2
:1006DE0002061AC3E530952EE52F952D400302062E
:0F06EE001A7DC87C007F027E0012199402061A42
:0106FD0022DA
:0806FE008E178F188C198D1A5C
:10070600751B00751C35751D00751E35D3E51E95C8
:1007160018E51D951750030207F9121818D3EF951F
:100726001AE5196480F8EE648098500122121AC105
:100736008E1B8F1C7D2C7C017F0F7E001219D4121C
:100746001AC18E1D8F1EC3E51E951CFFE51D951B48
:10075600FE121D88C3EF9402EE6480948050351219
:100766001AC18E1B8F1CD3E51E9518E51D951750D3
:10077600030207F97B007A00791DAD1CAC1B12152C
:100786001A121818D3EF951AE5196480F8EE6480EA
:100796009850D322C3E51E951CFFE51D951BFE123E
:1007A6001D88C3EF9402EE64809480500302071202
:1007B600D3E51E9518E51D95175003020712D3E5DC
:1007C6001E951CE51D951B400E7DC87C007F027E94
:1007D60000121950020712C3E51E951CE51D951B54
:1007E60040030207127DC87C007F027E0012199426
:0307F600020712E5
:0107F90022DD
:10171F0012104A12104A7D5E7C011208F47FA57EDA
:10172F0000121C197DC87C007F247E0012195012F4
:10173F00119F12119F12119F1207FA7DC87C007F13
:10174F00057E001219D4121ED47DC87C007F197E2D
:10175F00001219D47F2F7E00120CA47D8212060076
:05176F00121F9280FB37
:101D5C00120CA0121ED41207FA7DC87C007FFA7EEA
:101D6C00001219D4120CA07D82120600121F928050
:011D7C00FB6B
:1012BF007F1412104C12104A7DA31208F27DC87CC5
:1012CF00007F237E001219947B037A007D467F14E2
:1012DF007E00121054120CA07D2C7C017F0A7E0020
:1012EF001219D47F141211A17D037C007F147E008C
:1012FF001211A77D037C007F147E001211A7120725
:10130F00FA7DC87C007FD27E001219D47B037A004D
:10131F007D527F147E001210547B037A007D527F22
:10132F00147E00121054120CA012119F7D8C120605
:06133F0000121F9280FB6A
:101774007B037A007D467F147E0012105412104AB7
:101784007DA37C007F027E001208F87DC87C007F68
:10179400237E001219947B037A007D467F147E0019
:1017A4001210547B037A007D467F147E001210547D
:1017B40012104A120CA0121EEB7D91120600121F89
:0317C4009280FB15
:1014BE007B037A007D467F147E001210547B037AE4
:1014CE00007D527F147E0012105412104A12104AE0
:1014DE007DC87C007F247E001219947D2C7C017FB8
:1014EE00327E001219D47F1E7E00121D187F141238
:1014FE0019CE7B027A007D527F0F7E001210547B34
:0C150E00027A007D527F0F7E0002105414
:101868007B017A007D467F1E7E001210547B017A30
:10187800007D527F147E001210547B017A007D5245
:101888007F0F7E001210547B017A007D467F0F7E09
:10189800001210547D2C7C017F2D7E001219D47FFC
:0C18A8002E7E001207FE121EEB0214BE82
:101B600012104A12104A12104A7D5E7C011208F4CB
:101B70007FA57E00121C197DC87C007F237E001289
:101B8000195012119F7F2E7E001207FE121EEB02CB
:021B900014BE81
:1010F6008B238A248925120CA07F147E00121D18CA
:101106007F9D7E00121C197DC87C007F227E001206
:101116001994120CA07D2C7C017F037E001219D439
:101126007DA57F01120602121AC1AB23AA24A925A6
:10113600EE8FF01203A27DC87C007F237E00121979
:10114600507D037C007F147E001211A77D037C0076
:101156007F147E001211A77D037C007F117E001292
:1011660011A77D027C007F0F7E001211A77D027CF5
:10117600007F0F7E001211A77D027C007F0F7E008C
:101186001211A77D027C007F0F7E001211A77D023F
:091196007C007F0F7E000211A70E
:100EEA007B037A007D467F147E001210547D9F1288
:100EFA0008F27DC87C007F227E001219947B037A57
:100F0A00007D467F147E00121054120CA07D2C7CAA
:100F1A00017F037E001219D47D037C007F147E00BA
:100F2A001211A71207FA121EEB120CA07DA57C0063
:100F3A007F017E001206067DC87C007F237E001298
:100F4A0019507D037C007F147E001211A77D037C5B
:100F5A00007F147E001211A712119F7D027C007F70
:100F6A000F7E001211A77D027C007F0F7E001211F6
:100F7A00A77D027C007F0F7E001211A77D027C00F4
:100F8A007F0F7E001211A77D027C007F0F7E000278
:020F9A0011A79D
:10123400784A7C007D007BFF7A0E79727E007F3CC9
:101244001202ABE4F527F528121818AD28ED25E0B5
:10125400244CF8A60608A607ED25E0244BF9ED2555
:10126400E0244DF8C3E697FF18E61997FEC3EF9400
:1012740014EE648094804004C290801C7D3C7C0009
:101284007F057E001219940528E52870020527C3FE
:10129400941DE527940040B0C2901218FF1218FF65
:1012A4007FB87E0B1219037F887E13121B44D290E1
:0B12B4007DC87C007F277E000219949B
:10134500784A7C007D007BFF7A0E79AE7E007F3C7B
:101355001202ABE4F529F52A121818AD2AED25E09D
:10136500244CF8A60608A607ED25E0244BF9ED2543
:10137500E0244DF8C3E697FF18E61997FEC3EF94EE
:1013850014EE648094804004C29080167F05121884
:10139500BD052AE52A70020529C3941DE529940097
:1013A50040B6C2907FE87E031218B81218B412181E
:1013B500B47FA07E0F121B44D2907DC87C007F298C
:0513C5007E000219503A
:101DD6001219481205FE1212347B037A007D467FE3
:0C1DE600147E0012105412104A02171F45
:1015710012119F12119F7DA01206007DC87C007F71
:10158100237E001219507D7F7C007F017E001206B0
:10159100061212347DC87C007F147E001219D47BA0
:1015A100037A007D467F147E0012105412104A12F5
:1015B10008F01208F07DC87C007F267E0012199485
:0615C10012194802171F79
:101C3D007DC87C007F027E00121950121C151213F4
:101C4D00457FA07E00121C197DC87C007F247E007C
:061C5D0012199402171F8A
:1015C7007D037C007F147E001211A77D037C007FC2
:1015D700147E001211A712119F12119F7D027C0029
:1015E7007F0F7E001211A77D027C007F0F7E001205
:1015F70011A77D027C007F0F7E001211A71205FE46
:101607001212347B037A007D467F147E0012105439
:0616170012104A021D5CE6
:10161D0012119F12119F7DA01206007DC87C007FC4
:10162D00237E001219507D7F7C007F017E00120603
:10163D00061212347DC87C007F147E001219D47BF3
:10164D00037A007D467F147E0012105412104A1248
:10165D0008F01208F07DC87C007F267E00121994D8
:06166D00121948021D5C89
:101C63007DC87C007F077E00121950121C151213C9
:101C7300457FA07E00121C197DC87C007F247E0056
:061C8300121994021D5C21
:101DF2001219481205FE1212347B037A007D467FC7
:0C1E0200147E0012105412104A0212BF8D
:1016730012119F12119F7DA01206007DC87C007F6E
:10168300237E001219507D7F7C007F017E001206AD
:10169300061212347DC87C007F147E001219D47B9D
:1016A300037A007D467F147E0012105412104A12F2
:1016B30008F01208F07DC87C007F267E0012199482
:0616C3001219480212BFDB
:101447008E278F28C3E528944EE52794005013C3B1
:10145700E5289449E527940040087DC87C007F096A
:101467008024D3E5289449E527940040087DC87C6B
:10147700007F068011C3E528944EE5279400500BA2
:101487007DC87C007F0B7E00121950121C151213A9
:10149700457DC87C007F087E0012195012119F12EB
:1014A700119F7FA07E00121C197DC87C007F237EC0
:0714B700001219940212BF9C
:101E0E001219481205FE1212347B037A007D467FAA
:0C1E1E00147E0012105412104A021774B7
:1016C90012119F12119F7DA01206007DC87C007F18
:1016D900237E001219507D7F7C007F017E00120657
:1016E900061212347DC87C007F147E001219D47B47
:1016F900037A007D467F147E0012105412104A129C
:1017090008F01208F07DC87C007F267E001219942B
:06171900121948021774CA
:101BC1007DC87C007F037E00121950121C15121370
:101BD1004512119F12119F7FA07E00121C197DC812
:0C1BE1007C007F237E0012199402177410
:100AD600E4F548F54912198C20801120810E7DC855
:100AE6007C00AF49AE48121950121DD60549E5499A
:100AF60070020548C3940FE548940040D87DC87C31
:100B0600007F127E00121950E4F548F54912194883
:100B1600208043208140C374199549FFE49548FE1F
:100B26007DC87C001219507DC87C007F0F7E0012A4
:100B360019502080132081107DC87C007F0F7E0015
:100B4600121994121C3D800E7DC87C007F2B7E00FE
:100B56001219941215710549E54970020548C394A6
:100B660019E548940040A67DC87C007F037E0012EC
:100B76001950E4F548F54912194820801120810ED4
:100B86007DC87C00AF49AE48121994121C3D054938
:100B9600E54970020548C39417E548940040D87D9E
:100BA600C87C007F0F7E001219507DC87C007F0133
:050BB6007E000219940D
:100F9C00E4F523F52412198C20801120810E7DC8D4
:100FAC007C00AF24AE231219501215C70524E5247A
:100FBC0070020523C3940FE523940040D87DC87CB0
:100FCC00007F0B7E00121950E4F523F5241219480A
:100FDC0020801120810E7DC87C00AF24AE23121915
:100FEC009412161D0524E52470020523C39417E5FD
:100FFC0023940040D87DC87C007F057E00121950D8
:10100C00E4F523F52412194820801120810E7DC8A7
:10101C007C00AF24AE23121994121C630524E52422
:10102C0070020523C3941AE523940040D87DC87C34
:0E103C00007F157E0012195012198C021DB98A
:0409E5008E238F24AA
:1009E900E4F525F52612198C20801120810E7DC889
:1009F9007C00AF26AE25121950121DF20526E526F8
:100A090070020525C3940FE525940040D87DC87C64
:100A1900007F127E00121950E4F525F526121948B7
:100A2900208047208144C374199526FFE49525FE4B
:100A39007DC87C001219507DC87C007F0F7E001292
:100A490019502080172081147DC87C007F0F7E00FB
:100A5900121994AF24AE23121447800E7DC87C006E
:100A69007F2B7E001219941216730526E526700253
:100A79000525C39419E525940040A27DC87C007F13
:100A8900037E00121950E4F525F526121948208035
:100A9900152081127DC87C00AF26AE25121994AFAE
:100AA90024AE231214470526E52670020525C394B2
:100AB90017E525940040D47DC87C007F0F7E001285
:0D0AC90019507DC87C007F017E0002199449
:100BBB00E4F523F52412198C20801120810E7DC8B9
:100BCB007C00AF24AE23121950121E0E0524E5240F
:100BDB0070020523C3940FE523940040D87DC87C95
:100BEB00007F127E00121950E4F523F524121948E8
:100BFB00208043208140C374199524FFE49523FE84
:100C0B007DC87C001219507DC87C007F0F7E0012BE
:100C1B0019502080132081107DC87C007F0F7E002F
:100C2B00121994121BC1800E7DC87C007F2B7E0095
:100C3B001219941216C90524E52470020523C394D6
:100C4B0019E523940040A67DC87C007F037E00122B
:100C5B001950E4F523F52412194820801120810E38
:100C6B007DC87C00AF24AE23121994121BC105243E
:100C7B00E52470020523C39417E523940040D87D27
:100C8B00C87C007F0F7E001219507DC87C007F014D
:050C9B007E0002199427
:101B9200121F52120003C294D290D280D281121B21
:101BA20060120F9C7B007A0079211210F6AF22AEF0
:0F1BB200211209E5120EEA120BBB121F9280FBE3
:10001600EC4D6011E8497017ED33EC3304600DE4E4
:10002600FCFFFEFD22E933E8330470F80201C61234
:10003600019158046009E4CC248150062850090235
:1000460001D02840030201CDC0E0EB4A7044B980DC
:1000560006D0E0FB0201BCEF4E701CBD8008EBFF32
:10006600EAFEE9FD80EBE98DF0A4FEE5F00200FF73
:10007600E9CDF9EAFEEBFFEF89F0A4FCE5F0CE89C5
:10008600F0A42EFFE435F0CD89F0A42DFEE435F082
:100096008067EF4E7005BD80D780C3EF8BF0A4ACB0
:1000A600F0EE8BF0A42CFCE435F0F8EF8AF0A42CEB
:1000B600E5F038FCE433CB8DF0A42CFCE5F03BF8FE
:1000C600EE8AF0A42CFCE5F038F8E433CF89F0A4EE
:1000D6002CFCE5F038CF3400CE89F0A42FFFE5F0F4
:1000E6003EFEE433C98DF0A42EFEE5F039CD8AF04C
:1000F600A42FFFE5F03EFEE43DFD33D0E0FB5007C4
:100106000BBB000F0201D0EC2CFCEF33FFEE33FEED
:06011600ED33FD0201A81B
:10011C0075F020800E75F010800575F0087D007E5E
:10012C00007F003392D530D5031203EEEC33401030
:10013C00EF33FFEE33FEED33FDEC33FCD5F0ED2267
:0E014C00E5F0247EA2D513CC92E7CDCEFF22A3
:10015A00EDD2E7CD33EC3392D524814006E4FFFE9D
:10016A00FDFC22FCE4CFCECDCC24E0501174FF80FC
:10017A00EDC3CC13CCCD13CDCE13CECF13CF047099
:07018A00F030D5DE0203EEA8
:10019100E9D2E7C933E833F892D5EDD2E7CD33ECB4
:0701A10033FC5002B2D5222D
:1001A800EC30E7100FBF000C0EBE00080DBD0004B8
:1001B8000BEB6014A2D5EB13FCED92E7FD2274FF64
:1001C800FCFDFEFF22E480F8A2D574FF13FC7D80BD
:0301D800E480EFD1
:1001DB00E709F608DFFA8046E709F208DFFA803E06
:1001EB0088828C83E709F0A3DFFA8032E309F608F3
:1001FB00DFFA8078E309F208DFFA807088828C835B
:10020B00E309F0A3DFFA806489828A83E0A3F6080E
:10021B00DFFA805889828A83E0A3F208DFFA804CE8
:10022B0080D280FA80C680D4806980F280338010BF
:10023B0080A680EA809A80A880DA80E280CA803328
:10024B0089828A83ECFAE493A3C8C582C8CCC583A0
:10025B00CCF0A3C8C582C8CCC583CCDFE9DEE78070
:10026B000D89828A83E493A3F608DFF9ECFAA9F0EF
:10027B00EDFB2289828A83ECFAE0A3C8C582C8CC45
:10028B00C583CCF0A3C8C582C8CCC583CCDFEADE5E
:10029B00E880DB89828A83E493A3F208DFF980CCC0
:1002AB0088F0EF60010E4E60C388F0ED2402B404B9
:1002BB000050B9F582EB2402B4040050AF23234560
:0602CB00822390022B7358
:1002D100BB010689828A83E0225002E722BBFE022B
:0902E100E32289828A83E493225E
:1002EA00BC000BBE0029EF8DF084FFADF022E4CCF8
:1002FA00F875F008EF2FFFEE33FEEC33FCEE9DECC1
:10030A00984005FCEE9DFE0FD5F0E9E4CEFD22ED06
:10031A00F8F5F0EE8420D21CFEADF075F008EF2F50
:10032A00FFED33FD4007985006D5F0F222C398FD41
:05033A000FD5F0EA22DE
:10033F00BB010A89828A83E0F5F0A3E02250068789
:10034F00F009E71922BBFE07E3F5F009E31922894B
:0B035F00828A83E493F5F0740193227E
:10036A00BB0110E58229F582E5833AF583E0F5F0D1
:10037A00A3E0225009E92582F886F008E622BBFEAE
:10038A000AE92582F8E2F5F008E222E5832AF583F4
:08039A00E993F5F0A3E99322B9
:1003A200BB010A89828A83F0E5F0A3F0225006F7A6
:0F03B20009A7F01922BBFE06F3E5F009F31922A3
:1003C100F8BB0111E58229F582E5833AF583E8F06E
:1003D100E5F0A3F0225009E92582C8F608A6F0222B
:0D03E100BBFE09E92582C8F2E5F008F22212
:0E03EE00C3E49FFFE49EFEE49DFDE49CFC2220
:00000001FF
