:030000000209B83A
:0C09B800787FE4F6D8FD75810F0209512C
:1009A7007C007D0A120800EF1F70011E144E70F7BD
:0109B700221D
:0C097F003405FE1209A7C2927F147E000E
:10098B00AB07AA060BBB00010AEB1B70011A144A3A
:0C099B0060097F847E031209A780EE2211
:080896008E0C8F0D8C0E8D0FEE
:10089E00900001D3E582950DE50C6480F8E5836444
:1008AE0080985023D293E50F24DCFFE50E3405FE2D
:1008BE001209A7C293D292C374DC950FFF740595EB
:0708CE000E120981A380CC8A
:0108D5002200
:080855008E0C8F0D8C0E8D0F2F
:10085D00900001D3E582950DE50C6480F8E5836485
:10086D0080985024D293C374DC950FFF7405950EB8
:10087D00FE1209A7C293D292C374DC950FFF7405C3
:08088D00950E120981A380CB36
:010895002240
:080914008E0C8F0D8C0E8D0F6F
:10091C00900001D3E582950DE50C6480F8E58364C5
:10092C0080985020D293E50F24DCFFE50E3405FEB1
:10093C001209A7C293D292E50F24DCFFE50E12092F
:04094C007FA380CF36
:010950002284
:0808D6008E0C8F0D8C0E8D0FAE
:1008DE00900001D3E582950DE50C6480F8E5836404
:1008EE0080985021D293C374DC950FFF7405950E3A
:1008FE00FE1209A7C293D292E50F24DCFFE50E1279
:05090E00097FA380CE6B
:0109130022C1
:100951007DC87C007F417E001208967DC87C007FA7
:100961001A7E001209147DC87C007F1A7E001208CD
:0E097100557DC87C007F417E001208D680FEB6
:10080000BC000BBE0029EF8DF084FFADF022E4CCDC
:10081000F875F008EF2FFFEE33FEEC33FCEE9DECA5
:10082000984005FCEE9DFE0FD5F0E9E4CEFD22EDEB
:10083000F8F5F0EE8420D21CFEADF075F008EF2F35
:10084000FFED33FD4007985006D5F0F222C398FD26
:050850000FD5F0EA22C3
:00000001FF
