:03000000020944AE
:0C094400787FE4F6D8FD7581660208AAF1
:0A095000C0F9A4B0999282F88090DB
:10090F00D2A100D2A00000000000C2A10000000090
:06091F0000C2A00000224E
:10092500C2A100D2A00000000000D2A1000000007A
:01093500229F
:10080000E4FEEFA806088002C333D8FC30E704D228
:10081000A18002C2A100D2A00000000000C2A00E70
:10082000BE08DF0000D2A10000D2A000000030A16D
:0B08300004C2008002D200C2A0000041
:01083B00229A
:10086400E4FFD2A1FE00C2A00000000000D2A0005C
:1008740000EF25E0FF30A1010F00000EBE08E6C224
:03088400A00000D1
:01088700224E
:1008DF00200104C2A18002D2A1000000D2A000001A
:0808EF00000000C2A00000227D
:0D093600EFD3940040077E7DDEFE1F80F3AE
:010943002291
:10083C00AE07AC0312090F120800200002C322AF4E
:10084C0005120800200002C322AF04120800200089
:08085C0002C322120925D32278
:1008C50012090F120800200002C322AF051208000A
:0A08D500200002C322120925D322DD
:070888007F901208C57F906C
:10088F0012090FEF04FF1208002000037F0022124D
:0A089F000864D2011208DF120925D7
:0108A900222C
:1008F700D2AFD2ACD2AB758920E4F5877598507525
:080907008DFD758BFDD28E22DF
:08095A008F993099FDC299222A
:1008AA001208F77D411208887524008F251D120849
:0B08BA00887526008F2712095A80E87D
:00000001FF
