:0300000002090FE3
:0C090F00787FE4F6D8FD75810B0208002B
:1008FE007C007D0A120879EF1F70011E144E70F7EE
:01090E0022C6
:1008CE001208FEC293D2927F147E051208FEC292C7
:0408DE007F147E0005
:1008E200AB07AA060BBB00010AEB1B70011A144AE4
:0C08F20060097F847E031208FE80EE2265
:10080000D280D28120802220811FE4F508F509D210
:10081000937FA47E061208CE0509E509700205083B
:10082000C39464E508940040E630802B208128E4DE
:10083000F50AF50BD2937FA47E061208FEC293D26E
:10084000927FDC1208D7050BE50B7002050AC394F2
:1008500064E50A940040DD2080AA3081A7E4F58396
:10086000F582C3E5829464E58394005097D2937F28
:09087000DC7E051208CEA380E92C
:10087900BC000BBE0029EF8DF084FFADF022E4CC63
:10088900F875F008EF2FFFEE33FEEC33FCEE9DEC2C
:10089900984005FCEE9DFE0FD5F0E9E4CEFD22ED72
:1008A900F8F5F0EE8420D21CFEADF075F008EF2FBC
:1008B900FFED33FD4007985006D5F0F222C398FDAD
:0508C9000FD5F0EA224A
:00000001FF
