:03000000020B46AA
:0C0B4600787FE4F6D8FD75816602098D09
:0A0B5D00C0F9A4B0999282F88090CC
:100B16007C007D0A120800EF1F70011E144E70F74C
:010B260022AC
:0C0A27003405FE120B16C2927F147E00F4
:100A3300AB07AA060BBB00010AEB1B70011A144A91
:0C0A430060097F847E03120B1680EE22F7
:080896008E148F158C168D17CE
:10089E00900001D3E5829515E5146480F8E5836434
:1008AE0080985023D293E51724DCFFE5163405FE1D
:1008BE00120B16C293D292C374EE9517FF74059560
:0708CE0016120A29A380CCD9
:0108D5002200
:080855008E088F098C0A8D0B3F
:10085D00900001D3E5829509E5086480F8E583648D
:10086D0080985024D293C374EE950BFF7405950AAE
:10087D00FE120B16C293D292C374DC950BFF740556
:08088D00950A120A29A380CB91
:010895002240
:080914008E0C8F0D8C0E8D0F6F
:10091C00900001D3E582950DE50C6480F8E58364C5
:10092C0080985020D293E50F24DCFFE50E3405FEB1
:10093C00120B16C293D292E50F24CAFFE50E120ACF
:04094C0027A380CF8E
:010950002284
:0808D6008E108F118C128D139E
:1008DE00900001D3E5829511E5106480F8E58364FC
:1008EE0080985021D293C374DC9513FF7405951232
:1008FE00FE120B16C293D292E51324CAFFE5121212
:05090E000A27A380CEC2
:0109130022C1
:0409C7008E188F19DE
:1009CB00900001D3E5829519E5186480F8E58364FE
:1009DB0080985017D2937F9D7E06120B16C293D22E
:0B09EB00927F147E05120A2AA380D818
:0109F60022DE
:0409F7008E1A8F1BAA
:1009FB00900001D3E582951BE51A6480F8E58364CA
:100A0B0080985017D2937FA47E06120B16C293D2F6
:0B0A1B00927F327E05120A2AA380D8C9
:010A260022AD
:0B0B5200C293C2927F147E00020A339F
:100B0000D2A100D2A00000000000C2A1000000009D
:060B100000C2A00000225B
:100B2700C2A100D2A00000000000D2A10000000076
:010B3700229B
:10095100E4FEEFA806088002C333D8FC30E704D2D6
:10096100A18002C2A100D2A00000000000C2A00E1E
:10097100BE08DF0000D2A10000D2A000000030A11B
:0B09810004C2008002D200C2A00000EF
:01098C002248
:100A7700E4FFD2A1FE00C2A00000000000D2A00047
:100A870000EF25E0FF30A1010F00000EBE08E6C20F
:030A9700A00000BC
:010A9A002239
:100AD000200104C2A18002D2A1000000D2A0000027
:080AE000000000C2A00000228A
:0D0B3800EFD3940040077E7DDEFE1F80F3AA
:010B4500228D
:100A4F00AE07AC03120B00120951200002C322AFF4
:100A5F0005120951200002C322AF041209512000D0
:080A6F0002C322120B27D3225F
:100AB600120B00120951200002C322AF0512095180
:0A0AC600200002C322120B27D322E6
:100A9B00120B00EF04FF1209512000037F002212FA
:0A0AAB000A77D201120AD0120B27BD
:010AB500221E
:100AE800D2AFD2ACD2AB758920E4F5877598507532
:080AF8008DFD758BFDD28E22ED
:080B67008F993099FDC299221B
:10098D00120AE87DC87C007F067E00120896E4FB03
:10099D00FA7D407F90120AB67F90120A9B75240053
:1009AD008F25120B670BBB00010AEB640A4A70E13D
:0A09BD00120B527F107E27020A334E
:10080000BC000BBE0029EF8DF084FFADF022E4CCDC
:10081000F875F008EF2FFFEE33FEEC33FCEE9DECA5
:10082000984005FCEE9DFE0FD5F0E9E4CEFD22EDEB
:10083000F8F5F0EE8420D21CFEADF075F008EF2F35
:10084000FFED33FD4007985006D5F0F222C398FD26
:050850000FD5F0EA22C3
:00000001FF
