:03000000020D16D8
:0C0D1600787FE4F6D8FD758196020CEBA6
:100B2C00C0F9A4B0999282F88090000000000000F7
:100B3C0000000000000000000000000000000000A9
:100B4C000000000000000000000000000000000099
:020B5C00000097
:0E0CFA005389F0438901E4F58CF58AD2A922D2
:05000E00D28AD2AA22F3
:03001300020D2DAE
:030D2D00C28B3244
:03000B00020D30B3
:030D3000C28D323F
:10092E00E4F58CF58AD2B200000000000000000051
:10093E00000000000000C2B230B3FDD28C20B3FD27
:10094E00C28C858C15858A16E515FE7C00E425166D
:10095E00F510EC3EF50FFCAD10E41201217B7B7A15
:10096E0014792E783E12001612015A8E118F122211
:100CC9007C007D0A1202D1EF1F70011E144E70F7CD
:010CD90022F8
:0C0BB2003405FE120CC9C2927F147E00B4
:100BBE00AB07AA060BBB00010AEB1B70011A144A05
:0C0BCE0060097F847E03120CC980EE22B7
:0809C1007F147DC87C007E005C
:0809C9008E288F298C2A8D2B4A
:1009D100900001D3E5829529E58395285023D29390
:1009E100E52B24DCFFE52A3405FE120CC9C293D2A3
:1009F10092C374EB952BFF7405952A120BB4A38057
:010A0100D222
:010A020022D1
:08097E007DC87C007F027E00B1
:080986008E238F248C258D26A1
:10098E00900001D3E5829524E58395235024D293DC
:10099E00C374EB9526FF74059525FE120CC9C29300
:1009AE00D292C374DC9526FF74059525120BB4A361
:0209BE0080D1E6
:0109C0002214
:080A03007DC87C007F027E002B
:080A0B008E238F248C258D261B
:100A1300900001D3E5829524E58395235020D2935A
:100A2300E52624DCFFE5253405FE120CC9C293D26A
:0E0A330092E52624CDFFE525120BB2A380D557
:010A41002292
:080AF4008E678F688C698D6A22
:100AFC00900001D3E5829568E58395675021D293E8
:100B0C00C374EB956AFF74059569FE120CC9C29308
:0F0B1C00D292E56A24DCFFE569120BB2A380D404
:010B2B0022A7
:040B5E008E288F2925
:100B6200900001D3E5829529E58395285017D29309
:100B72007F907E06120CC9C293D2927F1E7E05120E
:050B82000BB5A380DEAD
:010B8700224B
:040B88008E288F29FB
:100B8C00900001D3E5829529E58395285017D293DF
:100B9C007FA47E06120CC9C293D2927F447E0512AA
:050BAC000BB5A380DE83
:010BB1002221
:0B0D2200C293C2927F147E00020BBE41
:100CB300D2A100D2A00000000000C2A100000000E9
:060CC30000C2A0000022A7
:100CDA00C2A100D2A00000000000D2A100000000C2
:010CEA0022E7
:100A4200E4FEEFA806088002C333D8FC30E704D2E4
:100A5200A18002C2A100D2A00000000000C2A00E2C
:100A6200BE08DF0000D2A10000D2A000000030A129
:0B0A720004C2008002D200C2A00000FD
:010A7D002256
:100C0200E4FFD2A1FE00C2A00000000000D2A000BA
:100C120000EF25E0FF30A1010F00000EBE08E6C282
:030C2200A000002F
:010C250022AC
:100C8300200104C2A18002D2A1000000D2A0000072
:080C9300000000C2A0000022D5
:0D0D0800EFD3940040077E7DDEFE1F80F3D8
:010D150022BB
:100BDA00AE07AC03120CB3120A42200002C322AFC2
:100BEA0005120A42200002C322AF04120A42200060
:080BFA0002C322120CDAD3221F
:100C6900120CB3120A42200002C322AF05120A4233
:0A0C7900200002C322120CDAD3227D
:070C26007F90120C697F9022
:100C2D00120CB3EF04FF120A422000037F002212C0
:0A0C3D000C02D201120C83120CDA33
:010C4700228A
:100C9B00D2AFD2ACD2AB758920E4F587759850757D
:080CAB008DFD758BFDD28E2238
:080003008F993099FDC299228A
:1003E300E4F550F551E4F552F553C374099551FF03
:1003F300E49550FEC3E5539FE5529E4003020488F3
:10040300E5532401FFE43552FEEF25E0FFEE338F81
:1004130082F583120351FDACF0E55325E0FFE5526D
:10042300338F82F583120351FFAEF0D39DEE9C40D0
:10043300498E548F55E5532401FFE43552FEEF25D1
:10044300E0FFEE338F82F583120351FDE55325E080
:10045300FFE552338F82F583E5F08DF01203A8E5B3
:10046300532401FFE43552FEEF25E0FFEE338F8284
:10047300F583E5548555F01203A80553E55370023F
:1004830005520203ED0551E551700205506409451B
:100493005060030203E8120326F53D85F03C7528FE
:1004A30000752901E4F552F553F550F551E5512452
:1004B30001FFE43550FEEF25E0FFEE338F82F58335
:1004C300120351FDACF0E55125E0FFE550338F8277
:1004D300F5831203516D7003EC65F060370553E546
:1004E3005370020552FD25E02428F87600087601B2
:1004F300E5512401FFE43550FEEF25E0FFEE338F95
:1005030082F583120351FFED25E0243CF8A6F008A1
:10051300A607800EE55325E02428F80806E61870A0
:1005230001060551E5517002055064094550600309
:100533000204B0E4F550F551D3E5519553E55095D8
:1005430052505AE4F554F555D3E5519553E550957A
:10055300525040E55525E02428F8E6FE08E6FFADB5
:1005630051ED25E02428F8E6FA08E6C39FEA9E50F9
:10057300028020E555B55311E554B5520CED25E045
:10058300243CF8E6FE08E6FF220555E55570B9055B
:0D0593005480B50551E551709F0550809BC7
:0105A0002238
:0D0C4800C3796EE7786C96FF19E71896FEE9
:100C5500D3EF9400EE64809480400122C3E49FFFAB
:040C6500E49EFE22E9
:100A7E0078837C007D007BFF7A0B79367E007F14B5
:100A8E001202ABE4FBFA7D40120C26EB25E0248328
:100A9E00F8760008A6070BBB00010AEB640A4A7041
:0A0AAE00E57B007A0079831203E370
:010AB800221B
:1008DD008B628A6389648C658D66120A7EAB62AA0F
:1008ED0063A964EE8FF0120389AB62AA63A9641247
:1008FD000326C39566E5F0956550077F017E0002DE
:10090D000B5EAB62AA63A964120326D39566E5F06C
:10091D00956540077F017E00020B887F011209C398
:01092D0022A7
:100AB900786F7C007D007BFF7A0B794A7E007F147A
:100AC9001202ABE4FBFA7D41120C26EB25E0246F00
:100AD900F8760008A6070BBB00010AEB640A4A7006
:0A0AE900E57B007A00796F1203E349
:010AF30022E0
:100886008B238A2489258C268D27120AB9AB23AAA5
:1008960024A925EE8FF0120389AB23AA24A92512D9
:1008A6000326C39527E5F0952650077F017E0002B3
:1008B6000B88AB23AA24A925120326D39527E5F096
:1008C600952640077F017E00020B5E7DC87C007F77
:0708D600017E001209C92296
:0405A1008E178F180A
:1005A500751900751A35751B00751C35D3E51C9535
:1005B50018E51B95175003020672D3E51A9518E541
:1005C5001995175003020672120A7E8E198F1A1298
:1005D50009C1120A7E8E1B8F1CC3E51C951AFFE507
:1005E5001B9519FE120C55C3EF9402EE648094809E
:1005F500502C120A7E8E198F1AD3E51C9518E51B0F
:10060500951740A8D3E51A9518E5199517409D7BD0
:10061500007A00791BAD1AAC191208DD80DBC3E541
:100625001C951AFFE51B9519FE120C55C3EF940294
:10063500EE6480948050030205B1D3E51C9518E55E
:100645001B951750030205B1D3E51C951AE51B95BB
:10065500194006120A030205B1C3E51C951AE51BEC
:0D066500951940030205B112097E0205B18E
:010672002265
:040673008E568F57B9
:10067700755800755935755A00755B35D3E55B9527
:1006870057E55A95565003020744D3E5599557E560
:100697005895565003020744120AB98E588F5912BB
:1006A70009C1120AB98E5A8F5BC3E55B9559FFE5FD
:1006B7005A9558FE120C55C3EF9402EE648094804D
:1006C700502C120AB98E588F59D3E55B9557E55AC6
:1006D700955640A8D3E5599557E5589556409D7BC3
:1006E700007A00795AAD59AC5812088680DBC3E509
:1006F7005B9559FFE55A9558FE120C55C3EF9402C6
:10070700EE648094805003020683D3E55B9557E53A
:100717005A95565003020683D3E55B9559E55A95DA
:1007270058400612097E020683C3E55B9559E55AD0
:0D07370095584003020683120A0302068350
:010744002292
:040745008E5C8F5DDA
:1007490075600075613512092ED3EF955DEE955CE4
:1007590050030207E8120A7E8E5E8F5F1209C112EA
:100769000A7E8E608F61C3E561955FFFE560955EE6
:10077900FE120C55C3EF9402EE648094805022124D
:100789000A7E8E5E8F5F12092ED3EF955DEE955C22
:1007990040B47B007A007960AD5FAC5E1208DD8001
:1007A900E5C3E561955FFFE560955EFE120C55C3F3
:1007B900EF9402EE64809480408CD3E561955FE507
:1007C90060955E4006120A0302074FC3E561955F13
:0F07D900E560955E400302074F12097E02074F4D
:0107E80022EE
:0407E9008E218F22AC
:1007ED00786D760008763512092ED3EF9522EE95A9
:1007FD00215003020885120AB9786BA60608A607D0
:10080D001209C1120AB9786DA60608A607120C487E
:10081D00C3EF9402EE648094805028120AB9786B6D
:10082D00A60608A60712092ED3EF9522EE952140B4
:10083D00B67B007A00796D786BE6FC08E6FD120850
:10084D008680E2120C48C3EF9402EE6480948040DF
:10085D0096D309E7089619E71896400612097E0205
:10086D0007F4C3796EE7786C9619E7189640030282
:08087D0007F4120A030207F45C
:010885002250
:0F0CEB007FA37E00120CFA12000EC2B20207E9BC
:10001600EC4D6011E8497017ED33EC3304600DE4E4
:10002600FCFFFEFD22E933E8330470F80201C61234
:10003600019158046009E4CC248150062850090235
:1000460001D02840030201CDC0E0EB4A7044B980DC
:1000560006D0E0FB0201BCEF4E701CBD8008EBFF32
:10006600EAFEE9FD80EBE98DF0A4FEE5F00200FF73
:10007600E9CDF9EAFEEBFFEF89F0A4FCE5F0CE89C5
:10008600F0A42EFFE435F0CD89F0A42DFEE435F082
:100096008067EF4E7005BD80D780C3EF8BF0A4ACB0
:1000A600F0EE8BF0A42CFCE435F0F8EF8AF0A42CEB
:1000B600E5F038FCE433CB8DF0A42CFCE5F03BF8FE
:1000C600EE8AF0A42CFCE5F038F8E433CF89F0A4EE
:1000D6002CFCE5F038CF3400CE89F0A42FFFE5F0F4
:1000E6003EFEE433C98DF0A42EFEE5F039CD8AF04C
:1000F600A42FFFE5F03EFEE43DFD33D0E0FB5007C4
:100106000BBB000F0201D0EC2CFCEF33FFEE33FEED
:06011600ED33FD0201A81B
:10011C0075F020800E75F010800575F0087D007E5E
:10012C00007F003392D530D5031203D5EC33401049
:10013C00EF33FFEE33FEED33FDEC33FCD5F0ED2267
:0E014C00E5F0247EA2D513CC92E7CDCEFF22A3
:10015A00EDD2E7CD33EC3392D524814006E4FFFE9D
:10016A00FDFC22FCE4CFCECDCC24E0501174FF80FC
:10017A00EDC3CC13CCCD13CDCE13CECF13CF047099
:07018A00F030D5DE0203D5C1
:10019100E9D2E7C933E833F892D5EDD2E7CD33ECB4
:0701A10033FC5002B2D5222D
:1001A800EC30E7100FBF000C0EBE00080DBD0004B8
:1001B8000BEB6014A2D5EB13FCED92E7FD2274FF64
:1001C800FCFDFEFF22E480F8A2D574FF13FC7D80BD
:0301D800E480EFD1
:1001DB00E709F608DFFA8046E709F208DFFA803E06
:1001EB0088828C83E709F0A3DFFA8032E309F608F3
:1001FB00DFFA8078E309F208DFFA807088828C835B
:10020B00E309F0A3DFFA806489828A83E0A3F6080E
:10021B00DFFA805889828A83E0A3F208DFFA804CE8
:10022B0080D280FA80C680D4806980F280338010BF
:10023B0080A680EA809A80A880DA80E280CA803328
:10024B0089828A83ECFAE493A3C8C582C8CCC583A0
:10025B00CCF0A3C8C582C8CCC583CCDFE9DEE78070
:10026B000D89828A83E493A3F608DFF9ECFAA9F0EF
:10027B00EDFB2289828A83ECFAE0A3C8C582C8CC45
:10028B00C583CCF0A3C8C582C8CCC583CCDFEADE5E
:10029B00E880DB89828A83E493A3F208DFF980CCC0
:1002AB0088F0EF60010E4E60C388F0ED2402B404B9
:1002BB000050B9F582EB2402B4040050AF23234560
:0602CB00822390022B7358
:1002D100BC000BBE0029EF8DF084FFADF022E4CC11
:1002E100F875F008EF2FFFEE33FEEC33FCEE9DECDA
:1002F100984005FCEE9DFE0FD5F0E9E4CEFD22ED20
:10030100F8F5F0EE8420D21CFEADF075F008EF2F69
:10031100FFED33FD4007985006D5F0F222C398FD5A
:050321000FD5F0EA22F7
:10032600BB010A89828A83E0F5F0A3E022500687A2
:10033600F009E71922BBFE07E3F5F009E319228964
:0B034600828A83E493F5F07401932297
:10035100BB0110E58229F582E5833AF583E0F5F0EA
:10036100A3E0225009E92582F886F008E622BBFEC7
:100371000AE92582F8E2F5F008E222E5832AF5830D
:08038100E993F5F0A3E99322D2
:10038900BB010A89828A83F0E5F0A3F0225006F7BF
:0F03990009A7F01922BBFE06F3E5F009F31922BC
:1003A800F8BB0111E58229F582E5833AF583E8F087
:1003B800E5F0A3F0225009E92582C8F608A6F02244
:0D03C800BBFE09E92582C8F2E5F008F2222B
:0E03D500C3E49FFFE49EFEE49DFDE49CFC2239
:00000001FF
