:030000000211D119
:0C11D100787FE4F6D8FD7581D102104F44
:100F0800C0F9A4B0999282F8809000000000000017
:100F180000000000000000000000000000000000C9
:100F280000000000000000000000000000000000B9
:020F38000000B7
:10116A00758920758DFD758BFD7598505387EFD263
:05117A008EE4F5A8223F
:0E11B5005389F0438901E4F58CF58AD2A92212
:05000E00D28AD2AA22F3
:030013000211E8EF
:0311E800C28B3285
:03000B000211EBF4
:0311EB00C28D3280
:100BBC00E4F58CF58AD294000000000000000000DF
:100BCC00000000000000C2943095FDD28C2095FDF1
:100BDC00C28C858C15858A16E515FE7C00E42516DD
:100BEC00F510EC3EF50FFCAD10E41201217B7B7A85
:100BFC0014792E783E12001612015A8E118F122281
:06112600D2937FA47E06B7
:10112C007C007D0A1202D1EF1F70011E144E70F765
:01113C002290
:100ED6007E0612112CC293D2927F147E0512112C1B
:060EE600C2927F147E00A1
:100EEC00AB07AA060BBB00010AEB1B70011A144AD4
:0C0EFC0060097F847E0312112C80EE221E
:080CEE007F027D2C7C017E00D9
:080CF6008E588F598C5A8D5B5A
:100CFE00900001D3E5829559E58395585024D293FF
:100D0E00E55B24DCFFE55A3405FE12112CC293D2AA
:100D1E0092C374B4955BFF7405955AFE120EE3A34D
:020D2E0080D172
:010D300022A0
:080CAA007F027DC87C007E0082
:080CB2008E5C8F5D8C5E8D5F8E
:100CBA00900001D3E582955DE583955C5025D2933A
:100CCA00C374E5955FFF7405955EFE12112CC293FD
:100CDA00D292C374DC955FFF7405955EFE120EE333
:030CEA00A380D014
:010CED0022E4
:080D31007F027DC87C007E00FA
:080D39008E608F618C628D63F6
:100D4100900001D3E5829561E58395605023D293AC
:100D5100E56324DCFFE5623405FE12112CC293D257
:100D610092E56324D5FFE5623405FE120EE3A3800C
:010D7100D2AF
:010D7200225E
:080DEB008E648F658C668D6734
:100DF300900001D3E5829565E58395645024D293F1
:100E0300C374DC9567FF74059566FE12112CC293BB
:100E1300D292E56724DCFFE5663405FE120EE3A3F8
:020E230080D17C
:010E250022AA
:040FAA008E708F7145
:100FAE00900001D3E5829571E5839570500F121173
:0D0FBE0026C293D2927F00120EE1A380E6BE
:010FCB002203
:040F62008E728F7389
:100F6600900001D3E5829573E583957250111211B5
:0F0F760026C293D2927FB07E04120EE3A380E4D2
:010F85002249
:04106D008E748F7579
:10107100900001D3E5829575E5839574500AD2936A
:081081007FCC120ED6A380EB18
:011089002244
:0B11DD00C293C2927F147E00020EEC51
:10108A00D2937FDC7E0512112CC293D2927FDC7E32
:0D109A000512112CC2927F147E00020EEC94
:040FCC008E768F7717
:100FD000900001D3E5829577E5839576500F121145
:0D0FE00026C293D2927F0A120EE1A380E692
:010FED0022E1
:080E9C008E688F698C6A8D6B72
:100EA400900001D3E5829569E58395685023D29338
:100EB400E56B24DCFFE56A3405FE12112CC293D2E3
:100EC40092E56B24F5FFE56A3405FE120EE3A38078
:010ED400D24B
:010ED50022FA
:080D73008E6C8F6D8C6E8D6F8C
:100D7B00900001D3E582956DE583956C5025D29358
:100D8B00C374E6956FFF7405956EFE12112CC2931A
:100D9B00D292C374E1956FFF7405956EFE120EE34C
:030DAB00A380D052
:010DAE002222
:10117F00900001D2937F45120ED6A3E582646E458F
:03118F008370F07A
:01119200223A
:1010DD00900001121126C293D2927F6E120EE1A3DF
:0810ED00E5826493458370EB7A
:0110F50022D8
:10115400D2A100D2A00000000000C2A10000000043
:0611640000C2A000002201
:10119300C2A100D2A00000000000D2A10000000004
:0111A3002229
:100DAF00E4FEEFA806088002C333D8FC30E704D274
:100DBF00A18002C2A100D2A00000000000C2A00EBC
:100DCF00BE08DF0000D2A10000D2A000000030A1B9
:0B0DDF0004C2018002D201C2A000008B
:010DEA0022E6
:100F8600E4FFD2A1FE00C2A00000000000D2A00033
:100F960000EF25E0FF30A1010F00000EBE08E6C2FB
:030FA600A00000A8
:010FA9002225
:1010F600200004C2A18002D2A1000000D2A00000FC
:08110600000000C2A00000225D
:0D11C300EFD3940040077E7DDEFE1F80F319
:0111D00022FC
:100F3A00AE07AC03121154120DAF200102C322AF47
:100F4A0005120DAF200102C322AF04120DAF20011A
:080F5A0002C322121193D322FD
:1010C300121154120DAF200102C322AF05120DAF4E
:0A10D300200102C322121193D32260
:070FEE007F901210C37F90F9
:100FF500121154EF04FF120DAF2001037F002212DE
:0A1005000F86D2001210F6121193AC
:01100F0022BE
:10110E00D2AFD2ACD2AB758920E4F5877598507505
:08111E008DFD758BFDD28E22C0
:080003008F993099FDC299228A
:1003E300E478A4F608F6E478A6F608F6C374097868
:1003F300A596FFE41896FE78A6E6FC08E6FDC39FE3
:10040300EC9E40030204A6ED2401FFE43CFEEF252D
:10041300E0FFEE338F82F583120351FDACF078A732
:10042300E625E0FF18E6338F82F583120351D39D4F
:10043300E5F09C406378A6E6FC08E6FD25E0FFECCA
:10044300338F82F58312035178A8A6F008F6ED24C2
:1004530001FFE43CFEEF25E0FFEE338F82F58312CC
:100463000351FD78A7E625E0FF18E6338F82F58375
:10047300E5F08DF01203A878A8E6FC08E6FD78A75E
:10048300E62401FF18E436FEEF25E0FFEE338F820A
:10049300F583EC8DF01203A878A706E61870010621
:1004A3000203EF78A506E61870010678A5E664094D
:1004B300184660030203E91203267890A6F008F6B3
:1004C300787C7600087601E478A6F608F678A4F638
:1004D30008F678A4E6FE08E6FFC39409EE9400400C
:1004E3000302056BEF2401FFE43EFEEF25E0FFEE80
:1004F300338F82F583120351FDACF078A5E625E036
:10050300FF18E6338F82F5831203516D7003EC6598
:10051300F0603B78A706E61870010678A7E6FD258C
:10052300E0247CF8760008760178A5E62401FF181C
:10053300E436FEEF25E0FFEE338F82F5831203519D
:10054300FFED25E02490F8A6F008A607800F78A712
:10055300E625E0247CF80806E61870010678A5066F
:10056300E6187001060204D5E478A4F608F6D379F8
:10057300A5E778A79619E718965066E478A8F608D1
:10058300F678A4E6FE08E6FFD378A796EE18965011
:100593004678A8E6FC08E6FD25E0247CF8E6FA08A0
:1005A300E6FBA907E925E0247CF8E6FE08E6C39B01
:1005B300EE9A50028021ED78A7667003EC186670FE
:1005C3000CE925E02490F8E6FE08E6FF2278A90668
:1005D300E61870AD0680AA78A506E6187090068026
:0105E3008D8A
:0105E40022F4
:0B103000C3E5479545FFE5469544FEEB
:10103B00D3EF9400EE64809480400122C3E49FFFC1
:04104B00E49EFE22FF
:100E260078AA7C007D007BFF7A0F79127E007F1402
:100E36001202ABE4FBFA7D40120FEEEB25E024AA8A
:100E4600F8760008A6070BBB00010AEB640A4A7095
:0A0E5600E57B007A0079AA1203E39D
:010E6000226F
:100E610078BE7C007D007BFF7A0F79267E007F149F
:100E71001202ABE4FBFA7D41120FEEEB25E024BE3A
:100E8100F8760008A6070BBB00010AEB640A4A705A
:0A0E9100E57B007A0079BE1203E34E
:010E9B002234
:100C0C008B4E8A4F89508C518D52120E26AB4EAAA8
:100C1C004FA950EE8FF0120389AB4EAA4FA9501278
:100C2C000326C39552E5F0955150077F027E0002D2
:100C3C000FAAAB4EAA4FA950120326D39552E5F03A
:0F0C4C00955140077F027E0002106D120CEE22C0
:100C5B008B538A5489558C568D57120E61AB53AA00
:100C6B0054A955EE8FF0120389AB53AA54A9551210
:100C7B000326C39557E5F0955650077F027E000279
:100C8B00106DAB53AA54A955120326D39557E5F013
:0F0C9B00955640077F027E00020FAA120CEE2230
:1011A40012117F12108A12108A7F3C120CF0021066
:0111B4008AB0
:10113D001210DD12108A12108A7D2C7C017F327EF6
:07114D0000120CF602108AEB
:1010A7008E788F79120BBCD3EF9579E5786480F849
:0C10B700EE6480984005120CEE80E922E7
:101010008E7A8F7B120BBCD3EF957BE57A6480F8D8
:10102000EE64809840097F027E00120FCC80E5229A
:0A0A78008E178F188D198A1A8B1B38
:100A8200120E618E1C8F1DE519B4460D7D2C7C0162
:100A9200AF18AE17120CF6800CE519B45207AF1856
:100AA200AE17120FCC120E618E1E8F1FC3E51F955B
:100AB2001DFFE51E951CFE12103BC3EF9402EE646F
:100AC200809480500D7B007A00791EAD1DAC1C1203
:100AD2000C5BC3E51F951DFFE51E951CFE12103B26
:100AE200C3EF9402EE64809480402CD3E51F951DE1
:100AF200E51E951C400B7DC87C00AF1BAE1A020C94
:100B0200B2C3E51F951DE51E951C500B7DC87C00E8
:070B1200AF1BAE1A120D39F2
:010B190022B9
:0A0B1A008E218F228D238A248B2563
:100B2400120E268E268F27E523B4460D7D2C7C01DC
:100B3400AF22AE21120CF6800CE523B45207AF228B
:100B4400AE21120FCC120E268E288F29C3E52995CB
:100B540027FFE5289526FE12103BC3EF9402EE64AE
:100B6400809480500D7B007A007928AD27AC261242
:100B74000C0CC3E5299527FFE5289526FE12103BAA
:100B8400C3EF9402EE64809480402CD3E52995272A
:100B9400E5289526400B7DC87C00AF25AE24020DC8
:100BA40039C3E5299527E5289526500B7DC87C0097
:070BB400AF25AE24120CB2C4
:010BBB002217
:0409A1008E428F43B0
:1009A500754400754535754600754735D3E547955A
:1009B50043E54695425003020A77D3E5459543E55D
:1009C5004495425003020A77120E268E448F457DC8
:1009D5002C7C017F0F7E00120CF6120E268E468FA0
:1009E50047121030C3EF9402EE64809480503B129E
:1009F5000E268E448F45D3E5479543E546954240FF
:100A050071D3E5459543E54495424066121031D3CF
:100A1500EF9409EE648094804001227B007A00798E
:100A250046AD45AC44120C0C80CC121030C3EF948B
:100A350002EE6480948050030209B1D3E5479543E3
:100A4500E546954250030209B1D3E5479545E5468C
:100A5500954440087F01120D330209B1C3E547955E
:100A650045E546954440030209B17F01120CAC02ED
:020A750009B1C5
:010A7700225C
:0405E5008E488F4964
:1005E900754A00754B35754C00754D35D3E54D95FC
:1005F90049E54C954850030206E9D3E54B9549E591
:100609004A954850030206E9120E618E4A8F4B7FC4
:100619000D7E00120FCC120E618E4C8F4DC3E54D2D
:10062900954BFFE54C954AFE12103BC3EF9402EE41
:1006390064809480504B120E618E4A8F4BD3E54DE6
:100649009549E54C954850030206E9D3E54B954990
:10065900E54A954850030206E9E54D954BFFE54CFF
:10066900954AFE12103BD3EF9412EE6480948040B9
:1006790001227B007A00794CAD4BAC4A120C5B80AD
:10068900BCC3E54D954BFFE54C954AFE12103BC3A3
:10069900EF9402EE6480948050030205F5D3E54D92
:1006A9009549E54C954850030205F5D3E54D954B21
:1006B900E54C954A400E7DC87C007F017E00120CF6
:1006C900B20205F5C3E54D954BE54C954A40030249
:1006D90005F57DC87C007F017E00120D390205F504
:0106E90022EE
:0806EA008E2A8F2B8C2C8D2D24
:1006F200752E00752F35753000753135D3E531957E
:100702002BE530952A50030207D2120BBCD3EF958A
:100712002DE52C6480F8EE648098500122120E269A
:100722008E2E8F2F7D2C7C017F0C7E00120CF612F8
:100732000E268E308F31C3E531952FFFE530952E91
:10074200FE12103BC3EF9402EE648094805032128A
:100752000E268E2E8F2FD3E531952BE530952A402C
:100762006F7B007A007930AD2FAC2E120C0C120B7D
:10077200BCD3EF952DE52C6480F8EE64809850D6BA
:1007820022C3E531952FFFE530952EFE12103BC3B3
:10079200EF9402EE6480948050030206FED3E531AA
:1007A200952BE530952A50030206FED3E531952FAD
:1007B200E530952E4006120D310206FEC3E5319555
:1007C2002FE530952E40030206FE120CAA0206FE09
:0107D2002204
:0808BC008E328F338C348D3530
:1008C400753600753735753800753935D3E5399582
:1008D40033E538953250030209A0120BBCD3EF95CF
:1008E40035E5346480F8EE648098500122120E617C
:1008F4008E368F377F0F7E00120FCC120E618E382A
:100904008F39C3E5399537FFE5389536FE12103B2C
:10091400C3EF9402EE648094805032120E618E36DE
:100924008F37D3E5399533E5389532406F7B007ABC
:10093400007938AD37AC36120C5B120BBCD3EF9593
:1009440035E5346480F8EE64809850D622C3E539E6
:100954009537FFE5389536FE12103BC3EF9402EE4F
:100964006480948050030208D0D3E5399533E53888
:10097400953250030208D0D3E5399537E5389536DA
:100984004006120CAA0208D0C3E5399537E538951C
:0C0994003640030208D0120D310208D0DA
:0109A0002234
:0807D3008E3A8F3B8C3C8D3DFA
:1007DB00753E00753F35754000754135D3E5419544
:1007EB003BE540953A50030208BB120BBCD3EF9587
:1007FB003DE53C6480F8EE648098500122120E6156
:10080B008E3E8F3F7D2C7C017F0F7E00120CF612EB
:10081B000E618E408F41C3E541953FFFE540953E0C
:10082B00FE12103BC3EF9402EE64809480503212A0
:10083B000E618E3E8F3FD3E541953BE540953A40A7
:10084B006F7B007A007940AD3FAC3E120C5B120B14
:10085B00BCD3EF953DE53C6480F8EE64809850D6B0
:10086B0022C3E541953FFFE540953EFE12103BC389
:10087B00EF9402EE6480948050030207E7D3E541C6
:10088B00953BE540953A50030207E7D3E541953F89
:10089B00E540953E4006120CAA0207E7C3E54195D9
:1008AB003FE540953E40030207E7120D310207E793
:0108BB00221A
:10104F00D290D280D281D29020800E20810BC2907C
:0E105F007F2C7E01120EEC80ED1211DD80E878
:10001600EC4D6011E8497017ED33EC3304600DE4E4
:10002600FCFFFEFD22E933E8330470F80201C61234
:10003600019158046009E4CC248150062850090235
:1000460001D02840030201CDC0E0EB4A7044B980DC
:1000560006D0E0FB0201BCEF4E701CBD8008EBFF32
:10006600EAFEE9FD80EBE98DF0A4FEE5F00200FF73
:10007600E9CDF9EAFEEBFFEF89F0A4FCE5F0CE89C5
:10008600F0A42EFFE435F0CD89F0A42DFEE435F082
:100096008067EF4E7005BD80D780C3EF8BF0A4ACB0
:1000A600F0EE8BF0A42CFCE435F0F8EF8AF0A42CEB
:1000B600E5F038FCE433CB8DF0A42CFCE5F03BF8FE
:1000C600EE8AF0A42CFCE5F038F8E433CF89F0A4EE
:1000D6002CFCE5F038CF3400CE89F0A42FFFE5F0F4
:1000E6003EFEE433C98DF0A42EFEE5F039CD8AF04C
:1000F600A42FFFE5F03EFEE43DFD33D0E0FB5007C4
:100106000BBB000F0201D0EC2CFCEF33FFEE33FEED
:06011600ED33FD0201A81B
:10011C0075F020800E75F010800575F0087D007E5E
:10012C00007F003392D530D5031203D5EC33401049
:10013C00EF33FFEE33FEED33FDEC33FCD5F0ED2267
:0E014C00E5F0247EA2D513CC92E7CDCEFF22A3
:10015A00EDD2E7CD33EC3392D524814006E4FFFE9D
:10016A00FDFC22FCE4CFCECDCC24E0501174FF80FC
:10017A00EDC3CC13CCCD13CDCE13CECF13CF047099
:07018A00F030D5DE0203D5C1
:10019100E9D2E7C933E833F892D5EDD2E7CD33ECB4
:0701A10033FC5002B2D5222D
:1001A800EC30E7100FBF000C0EBE00080DBD0004B8
:1001B8000BEB6014A2D5EB13FCED92E7FD2274FF64
:1001C800FCFDFEFF22E480F8A2D574FF13FC7D80BD
:0301D800E480EFD1
:1001DB00E709F608DFFA8046E709F208DFFA803E06
:1001EB0088828C83E709F0A3DFFA8032E309F608F3
:1001FB00DFFA8078E309F208DFFA807088828C835B
:10020B00E309F0A3DFFA806489828A83E0A3F6080E
:10021B00DFFA805889828A83E0A3F208DFFA804CE8
:10022B0080D280FA80C680D4806980F280338010BF
:10023B0080A680EA809A80A880DA80E280CA803328
:10024B0089828A83ECFAE493A3C8C582C8CCC583A0
:10025B00CCF0A3C8C582C8CCC583CCDFE9DEE78070
:10026B000D89828A83E493A3F608DFF9ECFAA9F0EF
:10027B00EDFB2289828A83ECFAE0A3C8C582C8CC45
:10028B00C583CCF0A3C8C582C8CCC583CCDFEADE5E
:10029B00E880DB89828A83E493A3F208DFF980CCC0
:1002AB0088F0EF60010E4E60C388F0ED2402B404B9
:1002BB000050B9F582EB2402B4040050AF23234560
:0602CB00822390022B7358
:1002D100BC000BBE0029EF8DF084FFADF022E4CC11
:1002E100F875F008EF2FFFEE33FEEC33FCEE9DECDA
:1002F100984005FCEE9DFE0FD5F0E9E4CEFD22ED20
:10030100F8F5F0EE8420D21CFEADF075F008EF2F69
:10031100FFED33FD4007985006D5F0F222C398FD5A
:050321000FD5F0EA22F7
:10032600BB010A89828A83E0F5F0A3E022500687A2
:10033600F009E71922BBFE07E3F5F009E319228964
:0B034600828A83E493F5F07401932297
:10035100BB0110E58229F582E5833AF583E0F5F0EA
:10036100A3E0225009E92582F886F008E622BBFEC7
:100371000AE92582F8E2F5F008E222E5832AF5830D
:08038100E993F5F0A3E99322D2
:10038900BB010A89828A83F0E5F0A3F0225006F7BF
:0F03990009A7F01922BBFE06F3E5F009F31922BC
:1003A800F8BB0111E58229F582E5833AF583E8F087
:1003B800E5F0A3F0225009E92582C8F608A6F02244
:0D03C800BBFE09E92582C8F2E5F008F2222B
:0E03D500C3E49FFFE49EFEE49DFDE49CFC2239
:00000001FF
