:030000000202CB2E
:0C02CB00787FE4F6D8FD7581270202E27E
:0602A000D2937FA47E064C
:1002A6007C007D0A120003EF1F70011E144E70F7CA
:0102B6002225
:1001BA007E061202A6C293D2927F147E051202A66E
:0601CA00C2927F147E00CA
:1001D000AB07AA060BBB00010AEB1B70011A144AFD
:0C01E00060097F847E031202A680EE22DC
:0800D0008E088F098C0A8D0BCC
:1000D800900001D3E5829509E58395085024D293D1
:1000E800E50B24DCFFE50A3405FE1202A6C293D212
:1000F80092C374E6950BFF7405950AFE1201C7A317
:0201080080D1A4
:01010A0022D2
:080058008E0C8F0D8C0E8D0F34
:10006000900001D3E582950DE583950C5025D29340
:10007000C374EB950FFF7405950EFE1202A6C29392
:10008000D292C374DC950FFF7405950EFE1201C762
:03009000A380D07A
:01009300224A
:080146008E108F118C128D1335
:10014E00900001D3E5829511E58395105023D2934B
:10015E00E51324DCFFE5123405FE1202A6C293D28B
:10016E0092E51324CDFFE5123405FE1201C7A380DC
:01017E00D2AE
:01017F00225D
:08010B008E148F158C168D1760
:10011300900001D3E5829515E58395145024D2937D
:10012300C374E69517FF74059516FE1202A6C293D3
:10013300D292E51724DCFFE5163405FE1201C7A3AE
:0201430080D169
:010145002297
:040230008E208F216C
:10023400900001D3E5829521E5839520500AD2935D
:080244007FA41201BAA380EBB4
:01024C00228F
:0401EC008E228F23AD
:1001F000900001D3E5829523E5839522500F1202EA
:0D020000A0C293D2927F441201C5A380E6F4
:01020D0022CE
:0B02D700C293C2927F147E000201D08F
:10024D00D2937FDC7E051202A6C293D2927FDC7E12
:0D025D00051202A6C2927F147E000201D09D
:04020E008E248F2586
:10021200900001D3E5829525E5839524500F1202C3
:0D022200A0C293D2927F1E1201C5A380E6F8
:01022F0022AC
:04026A008E268F2726
:10026E00900001D3E5829527E5839526500AD29317
:08027E007FCC1201BAA380EB52
:010286002255
:080180008E188F198C1A8D1BDB
:10018800900001D3E5829519E58395185023D29301
:10019800E51B24DCFFE51A3405FE1202A6C293D241
:1001A80092E51B24F5FFE51A3405FE1201C7A3806A
:0101B800D274
:0101B9002223
:080094008E1C8F1D8C1E8D1FB8
:10009C00900001D3E582951DE583951C5025D293E4
:1000AC00C374E6951FFF7405951EFE1202A6C2933B
:1000BC00D292C374E1951FFF7405951EFE1201C701
:0300CC00A380D03E
:0100CF00220E
:1002B700900001D2937F401201BAA3E58264694599
:0302C7008370F051
:0102CA002211
:100287009000011202A0C293D2927F871201C5A3E8
:08029700E582647E458370EBF3
:01029F00223C
:0402E200C29080FC4A
:10000300BC000BBE0029EF8DF084FFADF022E4CCE1
:10001300F875F008EF2FFFEE33FEEC33FCEE9DECAA
:10002300984005FCEE9DFE0FD5F0E9E4CEFD22EDF0
:10003300F8F5F0EE8420D21CFEADF075F008EF2F3A
:10004300FFED33FD4007985006D5F0F222C398FD2B
:050053000FD5F0EA22C8
:00000001FF
