:03000000021A657C
:0C1A6500787FE4F6D8FD75817C0218A99A
:100BA4004C203D20006D6D2E0D0A00C0F9A4B099B3
:100BB4009282F88090000000000000000000000015
:100BC4000000000000000000000000000000000021
:100BD40000000000000000000000000000007F0092
:100BE4000000000000000000000000000000000001
:100BF40000000000000000000000000000000000F1
:100C040000000000000000000000000000000000E0
:100C1400000000000000000000007D000000000053
:100C240000000000000000000000000000000000C0
:100C340000000000000000000000000000000000B0
:100C440000000000000000000000000000000000A0
:050C540000000000009B
:1019DE00758920758DFD758BFD7598505387EFD2E7
:0519EE008EE4F5A822C3
:031A71002430FF1F
:081A74008F993099FDC29922FF
:10156100AE07EE54F0D39490EEC44006540F2437E6
:101571008004540F2430FF121A74EE540FFFD394D9
:10158100094005EF24378005EE540F2430FF121A6D
:021591007422C2
:100F2500AD07AC06EC54F0FED3E49400EE9490ECDF
:100F3500C44006540F24378004540F2430FF121A7E
:100F450074EC540FFED3E49400EE9409EC540F4076
:100F550004243780022430FF121A74ED54F0D39420
:100F650090E49400ECC4F854F0C8400BEDC4540F61
:100F750048540F24378009EDC4540F48540F2430CA
:100F8500FF121A74ED540FD39409E49400ED540F35
:0D0F95004004243780022430FF121A742219
:10194100EF121A71ED121A71EB2430FF121A74E5BD
:071951001E2430FF021A748E
:1016AF008B348A358936AB34AA35A9361202D1600C
:1016BF00130536E5367002053514F91202D1FF1203
:0416CF001A7480E227
:0116D30022F4
:0E1A3C005389F0438901E4F58CF58AD2A92282
:05000300D28AD2AA22FE
:0C1A5800E4FFE4FE0EBE21FC0FBF0AF606
:011A6400225F
:0418DF00AD07AC069F
:1018E300E4FBFAC3EB9DEA9C500A121A580BBB00A7
:0418F300010A80EF77
:0118F70022CE
:03001300020008E0
:03000800C28B3276
:03000B0002000EE2
:03000E00C28D326E
:1011E100E4F58CF58AD2B200000000000000000096
:1011F100000000000000C2B230B3FDD28C20B3FD6C
:10120100C28C858C2E858A2FE52EFE7C00E4252F4D
:10121100F529EC3EF528FCAD29E41201217B7B7A0E
:1012210014792E783E12001612015A8E2A8F2B2223
:100AE600E4F58CF58AD2B200000000000000000098
:100AF600000000000000C2B230B3FDD28C20B3FD6E
:100B0600C28C858C2E858A2FE52EFE7C00E4252F4F
:100B1600F529EC3EF528FCAD29E41201217B7B7A10
:100B260014792E783E12001612015A8E2A8F2B7CCB
:100B3600007D0A1202EA8D21AE2AAF2B7C007D0AC7
:100B46001202EA8E2C8F2D7C007D0A1202EA8D227B
:100B5600AE2CAF2D7C007D0A1202EA8E2C8F2D7CE6
:100B6600007D0A1202EA8D23AE2CAF2D7C007D0A91
:100B76001202EA8E2C8F2D7C007D0A1202EA8D2449
:100B86007BFF7A0B79A41216AF85211EAB22AD230B
:0E0B9600AF241219417BFF7A0B79A90216AF2A
:06195800D2937FA47E067D
:10195E007C007D0A1202EAEF1F70011E144E70F712
:01196E002256
:101593007E0612195EC293D2927F147E0512195EE3
:0615A300C2927F147E00DD
:1015A900AB07AA060BBB00010AEB1B70011A144A10
:0C15B90060097F847E0312195E80EE2220
:06134D007DC87C007E005B
:081353008E178F188C198D1AFA
:10135B00900001D3E5829518E58395175024D2931D
:10136B00E51A24DCFFE5193405FE12195EC293D28F
:10137B0092C374DC951AFF74059519FE1215A0A380
:02138B0080D10F
:01138D00223D
:0812C7007F017DC87C007E0060
:0812CF008E128F138C148D1593
:1012D700900001D3E5829513E58395125025D293AB
:1012E700C374E59515FF74059514FE12195EC29334
:1012F700D292C374DC9515FF74059514FE1215A0E0
:03130700A380D0F0
:01130A0022C0
:08130B007F017DC87C007E001B
:081313008E128F138C148D154E
:10131B00900001D3E5829513E58395125023D29368
:10132B00E51524DCFFE5143405FE12195EC293D2D9
:10133B0092E51524D5FFE5143405FE1215A0A38004
:01134B00D2CF
:01134C00227E
:06138E007DC87C007E001A
:081394008E308F318C328D3355
:10139C00900001D3E5829531E58395305024D293AA
:1013AC00C374DC9533FF74059532FE12195EC2933B
:1013BC00D292E53324DCFFE5323405FE1215A0A3EE
:0213CC0080D1CE
:0113CE0022FC
:041788008E178F1811
:10178C00900001D3E5829518E5839517500F121937
:0D179C0058C293D2927F0012159EA380E6E2
:0117A900221D
:0416F9008E378F3861
:1016FD00900001D3E5829538E58395375011121985
:0F170D0058C293D2927FB07E041215A0A380E43D
:01171C0022AA
:04186F008E178F1829
:10187300900001D3E5829518E5839517500AD2931A
:081883007FCC121593A380EB4A
:01188B00223A
:0B1A7C00C293C2927F147E000215A9E5
:10188C00D2937FDC7E0512195EC293D2927FDC7EEE
:0D189C000512195EC2927F147E000215A98C
:0417AA008E108F11FD
:1017AE00900001D3E5829511E5839510500F121923
:0D17BE0058C293D2927F1312159EA380E6AD
:0117CB0022FB
:0F127E007FD07E071215A97D327C007F287E006D
:08128D008E0C8F0D8C0E8D0FED
:10129500900001D3E582950DE583950C5023D293FB
:1012A500E50F24DCFFE50E3405FE12195EC293D26C
:1012B50092E50F24F5FFE50E3405FE1215A0A38077
:0112C500D256
:0112C6002205
:10123100C2907FA07E0F1215A97F1E7D467C007E85
:0112410000AC
:081242008E0C8F0D8C0E8D0F38
:10124A00900001D3E582950DE583950C5025D29344
:10125A00C374E6950FFF7405950EFE12195EC293CC
:10126A00D292C374E1950FFF7405950EFE1215A074
:03127A00A380D07E
:01127D00224E
:1019F300900001D2937F45121593A3E582647A4543
:031A03008370F0FD
:011A060022BD
:1018F800900001121958C293D2927F7912159EA3B3
:08190800E5826492458370EB57
:0119100022B4
:10198600D2A100D2A00000000000C2A10000000009
:0619960000C2A0000022C7
:101A1A00C2A100D2A00000000000D2A10000000074
:011A2A002299
:1013CF00E4FEEFA806088002C333D8FC30E704D24E
:1013DF00A18002C2A100D2A00000000000C2A00E96
:1013EF00BE08DF0000D2A10000D2A000000030A193
:0B13FF0004C2008002D200C2A0000067
:01140A0022BF
:10171D00E4FFD2A1FE00C2A00000000000D2A00094
:10172D0000EF25E0FF30A1010F00000EBE08E6C25C
:03173D00A0000009
:011740002286
:10191100200104C2A18002D2A1000000D2A00000D7
:08192100000000C2A00000223A
:0D1A4A00EFD3940040077E7DDEFE1F80F389
:011A5700226C
:10168700AE07AC031219861213CF200002C322AF94
:10169700051213CF200002C322AF041213CF20007C
:0816A70002C322121A1AD32219
:1018C5001219861213CF200002C322AF051213CFBF
:0A18D500200002C322121A1AD322C7
:0717CC007F901218C57F9009
:1017D300121986EF04FF1213CF2000037F00221299
:0A17E300171DD201121911121A1A73
:0117ED0022D9
:10192900D2AFD2ACD2AB758920E4F58775985075E2
:081939008DFD758BFDD28E229D
:1003FC00E47877F608F6E47879F608F6C3740978A9
:10040C007896FFE41896FE7879E6FC08E6FDC39F23
:10041C00EC9E40030204BFED2401FFE43CFEEF25FB
:10042C00E0FFEE338F82F58312036AFDACF0787A2D
:10043C00E625E0FF18E6338F82F58312036AD39D1D
:10044C00E5F09C40637879E6FC08E6FD25E0FFECDE
:10045C00338F82F58312036A787BA6F008F6ED24BD
:10046C0001FFE43CFEEF25E0FFEE338F82F58312B3
:10047C00036AFD787AE625E0FF18E6338F82F58370
:10048C00E5F08DF01203C1787BE6FC08E6FD787A86
:10049C00E62401FF18E436FEEF25E0FFEE338F82F1
:1004AC00F583EC8DF01203C1787A06E6187001061C
:1004BC00020408787806E6187001067878E6640974
:1004CC001846600302040212033F7863A6F008F694
:1004DC00784F7600087601E47879F608F67877F6A6
:1004EC0008F67877E6FE08E6FFC39409EE94004020
:1004FC0003020584EF2401FFE43EFEEF25E0FFEE4E
:10050C00338F82F58312036AFDACF07878E625E030
:10051C00FF18E6338F82F58312036A6D7003EC6566
:10052C00F0603B787A06E618700106787AE6FD25CD
:10053C00E0244FF876000876017878E62401FF185D
:10054C00E436FEEF25E0FFEE338F82F58312036A6B
:10055C00FFED25E02463F8A6F008A607800F787A53
:10056C00E625E0244FF80806E618700106787806B0
:10057C00E6187001060204EEE47877F608F6D379F3
:10058C0078E7787A9619E718965066E4787BF6083F
:10059C00F67877E6FE08E6FFD3787A96EE18965052
:1005AC0046787BE6FC08E6FD25E0244FF8E6FA08E1
:1005BC00E6FBA907E925E0244FF8E6FE08E6C39B15
:1005CC00EE9A50028021ED787A667003EC18667012
:1005DC000CE925E02463F8E6FE08E6FF22787C06A9
:1005EC00E61870AD0680AA787806E618709006803A
:0105FC008D71
:0105FD0022DB
:0B183200C3E50F950DFFE50E950CFEC1
:10183D00D3EF9400EE64809480400122C3E49FFFB7
:04184D00E49EFE22F5
:10140B00783B7C007D007BFF7A0B79B97E007F14E3
:10141B001202ABE4FBFA7D401217CCEB25E0243B28
:10142B00F8760008A6070BBB00010AEB640A4A70AA
:0A143B00E57B007A00793B1203FC08
:011445002284
:10144600783B7C007D007BFF7A0B79CD7E007F1494
:101456001202ABE4FBFA7D411217CCEB25E0243BEC
:10146600F8760008A6070BBB00010AEB640A4A706F
:0A147600E57B007A00793B1203FCCD
:011480002249
:101133008B128A1389148C158D1612140BAB12AAF9
:1011430013A914EE8FF01203A2AB12AA13A914125F
:10115300033FC39516E5F0951550077F017E000206
:101163001788AB12AA13A91412033FD39516E5F0FF
:10117300951540077F017E0002186F7D2C7C017F4F
:07118300017E00121353224C
:10118A008B128A1389148C158D16121446AB12AA67
:10119A0013A914EE8FF01203A2AB12AA13A9141208
:1011AA00033FC39516E5F0951550077F017E0002AF
:1011BA00186FAB12AA13A91412033FD39516E5F0C0
:1011CA00951540077F017E000217887D2C7C017FE0
:0711DA00017E0012135322F5
:101A2B001219F312188C12188C7F3C12134D0218DA
:011A3B008C1E
:10196F001218F812188C12188C7DC87C007F327EEA
:07197F000012135302188C43
:101741008E0A8F0B1211E1D3EF950BE50A6480F835
:10175100EE648098400D7D2C7C017F027E00121387
:041761005380E122AE
:040E1B007F0F7E00C7
:040E1F008E0A8F0B9D
:100E23001214468E0C8F0D7D2C7C01AF0BAE0A1273
:100E330013531214468E0E8F0FC3E50F950DFFE566
:100E43000E950CFE12183DC3EF9402EE648094805D
:100E5300500D7B007A00790EAD0DAC0C12118AC3D4
:100E6300E50F950DFFE50E950CFE12183DC3EF94AB
:100E730002EE648094804024D3E50F950DE50E9532
:100E83000C400B7DC87C007F017E000212CFC3E5BE
:0C0E93000F950DE50E950C500312130B8B
:010E9F002230
:040EA0007F0F7E0042
:040EA4008E0A8F0B18
:100EA80012140B8E0C8F0D7D2C7C01AF0BAE0A1229
:100EB800135312140B8E0E8F0FC3E50F950DFFE51C
:100EC8000E950CFE12183DC3EF9402EE64809480D8
:100ED800500D7B007A00790EAD0DAC0C121133C3A6
:100EE800E50F950DFFE50E950CFE12183DC3EF9426
:100EF80002EE648094804024D3E50F950DE50E95AD
:100F08000C400B7DC87C007F017E00021313C3E5F3
:0C0F18000F950DE50E950C50031212C74A
:010F240022AA
:040FA2008E088F091D
:100FA60012140B8E0A8F0BAF09AE08121788121493
:100FB6000B8E0C8F0DC3E50D950BFFE50C950AFE08
:100FC60012183DC3EF9402EE64809480500D7B00AE
:100FD6007A00790CAD0BAC0A121133C3E50D950BF3
:100FE600FFE50C950AFE12183DC3EF9402EE6480ED
:100FF60094804024D3E50D950BE50C950A400B7DB6
:10100600C87C007F017E00021313C3E50D950BE536
:081016000C950A50031212C7E9
:01101E0022AF
:040A0F007F2D7E00B9
:040A13008E0A8F0BAD
:100A1700750C00750D35750E00750F35D3E50F95FF
:100A27000BE50E950A5003020AE5D3E50D950BE594
:100A37000C950A5003020AE512140B8E0C8F0D7DDC
:100A47002C7C017F0F7E0012135312140B8E0E8F16
:100A57000F121832C3EF9402EE64809480503B1259
:100A6700140B8E0C8F0DD3E50F950BE50E950A40F1
:100A77006DD3E50D950BE50C950A4062121833D33B
:100A8700EF9409EE648094804001227B007A00791C
:100A97000EAD0DAC0C12113380CC121832C3EF948B
:100AA70002EE648094805003020A23D3E50F950B6E
:100AB700E50E950A5003020A23D3E50F950DE50EBF
:100AC700950C400612130B020A23C3E50F950DE59B
:0E0AD7000E950C4003020A231212C7020A23D6
:010AE50022EE
:040824007F2D7E00A6
:040828008E0A8F0B9A
:10082C00750C00750D35750E00750F35D3E50F95EC
:10083C000BE50E950A5003020919D3E50D950BE54E
:10084C000C950A50030209191214468E0C8F0D7F59
:10085C000F7E001217AA1214468E0E8F0FC3E50FCF
:10086C00950DFFE50E950CFE12183DC3EF9402EEAC
:10087C006480948050481214468E0C8F0DD3E50F73
:10088C00950BE50E950A5003020919D3E50D950B4E
:10089C00E50C950A4077E50F950DFFE50E950CFEDE
:1008AC0012183DD3EF9412EE648094804001227BA9
:1008BC00007A00790EAD0DAC0C12118A80BFC3E525
:1008CC000F950DFFE50E950CFE12183DC3EF94022B
:1008DC00EE648094805003020838D3E50F950BE545
:1008EC000E950A5003020838D3E50F950DE50E95C9
:1008FC000C40061212C7020838C3E50F950DE50E21
:0D090C00950C400302083812130B02083846
:0109190022BB
:08091A007D797C007F027E0064
:080922008E0A8F0B8C0C8D0D69
:10092A00750E00750F35751000751135D3E51195E3
:10093A000BE510950A5003020A0E1211E1D3EF9546
:10094A000DE50C6480F8EE64809850012212140BB5
:10095A008E0E8F0F7D2C7C017F0C7E00121353129A
:10096A00140B8E108F11C3E511950FFFE510950E2C
:10097A00FE12183DC3EF9402EE6480948050321246
:10098A00140B8E0E8F0FD3E511950BE510950A40C7
:10099A00737B007A007910AD0FAC0E12113312116D
:1009AA00E1D3EF950DE50C6480F8EE64809850D69B
:1009BA0022C3E511950FFFE510950EFE12183DC3EF
:1009CA00EF9402EE648094805003020936D3E51155
:1009DA00950BE510950A5003020936D3E511950FD8
:1009EA00E510950E40087F0212130D020936C3E581
:1009FA0011950FE510950E40030209367F02121277
:040A0A00C9020936DE
:010A0E0022C5
:080720007D7F7F027C007E005A
:080728008E0A8F0B8C0C8D0D65
:10073000750E00750F35751000751135D3E51195DF
:100740000BE510950A50030208231211E1D3EF952F
:100750000DE50C6480F8EE64809850012212144676
:100760008E0E8F0F7D2C7C017F0C7E001213531296
:1007700014468E108F11C3E511950FFFE510950EED
:10078000FE12183DC3EF9402EE648094805035123F
:1007900014468E0E8F0FD3E511950BE510950A5078
:1007A000030208237B007A007910AD0FAC0E121102
:1007B0008A1211E1D3EF950DE50C6480F8EE6480A8
:1007C0009850D322C3E511950FFFE510950EFE1248
:1007D000183DC3EF9402EE64809480500302073CFE
:1007E000D3E511950BE510950A500302073CD3E5BC
:1007F00011950FE510950E400E7DC87C007F027E9E
:10080000001212CF02073CC3E511950FE510950EBB
:10081000400302073C7DC87C007F027E0012131358
:0308200002073C90
:0108230022B2
:1017EE007D097C017F017E001209221218F87F2FDD
:1017FE007E00120A1312196F7D82120722121A7CB2
:02180E0080FB5D
:1010DA00120EA0120EA07D5E7C017F017E00120915
:1010EA00227F9B7E001217417DC87C007F247E00F0
:1010FA001212CF120E1B120E1B120E1B1208247D87
:10110A00C87C007F057E00121353121A2B7DC87CFF
:10111A00007F197E001213537F2F7E00120A137D5F
:09112A0082120722121A7C80FBDC
:10185100120A0F121A2B1208247DC87C007FFA7E0F
:0E18610000121353120A0F7D8212072280FE1E
:101810007D097C0112091E12196F1208247DC87CF3
:10182000007F0E7E01121353120A0F7D8C120722C5
:0218300080FE38
:1014F7007F147E00120EA47F0F7E00120FA27F14AE
:101507007E00120EA47DC87C007F247E0012131378
:101517007D2C7C017F647E00121353120EA07F0F77
:051527007E00020EA48D
:10165B007F1E7E00120EA47F0F7E00120FA2120EB1
:10166B00A0120EA07D2C7C017F2D7E001213537FC8
:0C167B002E7E0012082812196F0214F7CE
:1016D400120A0F7FA57E001217417DC87C007F236C
:1016E4007E001212CF120E1B7F2E7E0012082812CB
:0516F400196F0214F75C
:10152C0012196F7DA57F2D1207247DC87C007F21A9
:10153C007E001212CF7F147E00120E1F7F147E00CD
:10154C00120E1F7F147E00120E1F7DC87C007F0AB6
:05155C007E00021353A4
:100D9000783B7C007D007BFF7A0B79E17E007F3C15
:100DA0001202ABE4F50AF50B1211E1AD0BED25E0F3
:100DB000243DF8A60608A607ED25E0243CF9ED251C
:100DC000E0243EF8C3E697FF18E61997FEC3EF94B8
:100DD00013EE648094804004C290801C7D3C7C00B3
:100DE0007F057E00121313050BE50B7002050AC385
:100DF000941DE50A940040B0C29012127E12127E39
:100E00007FB87E0B1212827F887E131215A9D290B2
:0B0E10007DC87C007F277E00021313CA
:100D0300783B7C007D007BFF7A0C791D7E007F3C65
:100D13001202ABE4F50AF50B1211E1AD0BED25E080
:100D2300243DF8A60608A607ED25E0243CF9ED25A9
:100D3300E0243EF8C3E697FF18E61997FEC3EF9445
:100D430014EE648094804004C29080167F051212D2
:100D53003C050BE50B7002050AC3941DE50A9400DC
:100D630040B6C2907FE87E031212377FD07E07120F
:100D730012377FD07E071212377FA07E0F1215A97C
:0D0D8300D2907DC87C007F297E000212CF37
:10199C007D87120722120D907DC87C007F247E006B
:0619AC001213130217EEF6
:1015C5007D9B1207227DC87C007F217E001212CFF1
:1015D500120720120D907DC87C007F327E00121309
:1015E5001312091A7DC87C007F217E001213130295
:0215F50017EEEF
:101481007DC87C007F507E0012135312123112125C
:10149100331212337FA07E0F1215A9D2907DC87C22
:1014A100007F0A7E001213137F5512138E7DC87CB4
:0B14B100007F207E001212CF0217EE19
:101A0700120720120D907F147E00120EA4120EA052
:031A17000210DAE0
:10101F00120E1B120E1B7DA01207227DC87C007FB3
:10102F00237E001212CF7D7F7C007F017E0012078E
:10103F0028120D907DC87C007F147E001213537F01
:10104F00147E00120EA4120EA07D9B7C007F017EE9
:10105F00001209227D9B7C007F017E001209227DF8
:10106F00C87C007F267E001213131212C70210DAFB
:101765007D7D7C007F017E00120728120D037FA07E
:101775007E001217417DC87C007F247E0012131362
:031785000210DA75
:1019B2007D87120722120D907DC87C007F247E0055
:0619C2001213130218517C
:1015F7007D9B1207227DC87C007F217E001212CFBF
:10160700120720120D907DC87C007F327E001213D6
:101617001312091A7DC87C007F377E00121313024C
:02162700185158
:1014BC007DC87C007F877E001213531212311212EA
:1014CC00331212337FA07E0F1215A9D2907DC87CE7
:1014DC00007F0B7E001213137F9612138E7DC87C37
:0B14EC00007F217E001212CF02185179
:1019C8007D87120722120D907DC87C007F247E003F
:0619D800121313021810A7
:101629007D9B1207227DC87C007F217E001212CF8C
:10163900120720120D907DC87C007F327E001213A4
:101649001312091A7DC87C007F217E001213130230
:02165900181067
:10107F007F6412134D7F147E00120EA47F147E0026
:10108F00120EA47F147E00120EA47DC87C007F1464
:10109F007E001213531212311212331212337FA029
:1010AF007E0F1215A9D2907DC87C007F0B7E001297
:1010BF0013137DC87C007F0E7E011213947DC87CB4
:0B10CF00007F237E001212CF021810D9
:1005FE0020803E20813BE4F508F50912130B208084
:10060E001120810E7DC87C00AF09AE081212CF12E8
:10061E001A070509E50970020508C3940BE508944D
:10062E000040D87DC87C007F0B7E001212CF0210D6
:10063E001FE4F508F50912130B20801120810E7DA1
:10064E00C87C00AF09AE081212CF121A070509E5D1
:10065E000970020508C3940BE508940040D87DC8C4
:10066E007C007F127E001212CFE4F508F5091212FB
:10067E00C7208043208140C374179509FFE4950875
:10068E00FE7DC87C001212CF7DC87C007F0F7E00DD
:10069E001212CF2080132081107DC87C007F0F7E28
:1006AE0000121313121765800E7DC87C007F2B7EFF
:1006BE000012131312101F0509E50970020508C375
:1006CE009417E508940040A67DC87C007F037E0049
:1006DE001212CFE4F508F5091212C72080112081FD
:1006EE000E7DC87C00AF09AE0812131312176505F4
:1006FE0009E50970020508C39417E508940040D86F
:10070E007DC87C007F0E7E001212CF12130B1218C2
:01071E008C4E
:01071F0022B7
:100C590020803E20813BE4F539F53A12130B2080C0
:100C69001120810E7DC87C00AF3AAE391212CF1225
:100C79001A07053AE53A70020539C3940BE5399428
:100C89000040D87DC87C007F0B7E001212CF021075
:100C99001FE4F539F53A12130B20801120810E7DDE
:100CA900C87C00AF3AAE391212CF121A07053AE5DD
:100CB9003A70020539C3940BE539940040D87DC8D0
:100CC9007C007F0B7E001212CFE4F539F53A12123F
:100CD900C720801120810E7DC87C00AF3AAE391241
:100CE900131312101F053AE53A70020539C3941C13
:090CF900E539940040D812188C72
:010D020022CE
:1018A900121A3C120003C2B2D290D280D28112160F
:0C18B9005B1205FE1216D4121A7C80FB94
:10001600EC4D6011E8497017ED33EC3304600DE4E4
:10002600FCFFFEFD22E933E8330470F80201C61234
:10003600019158046009E4CC248150062850090235
:1000460001D02840030201CDC0E0EB4A7044B980DC
:1000560006D0E0FB0201BCEF4E701CBD8008EBFF32
:10006600EAFEE9FD80EBE98DF0A4FEE5F00200FF73
:10007600E9CDF9EAFEEBFFEF89F0A4FCE5F0CE89C5
:10008600F0A42EFFE435F0CD89F0A42DFEE435F082
:100096008067EF4E7005BD80D780C3EF8BF0A4ACB0
:1000A600F0EE8BF0A42CFCE435F0F8EF8AF0A42CEB
:1000B600E5F038FCE433CB8DF0A42CFCE5F03BF8FE
:1000C600EE8AF0A42CFCE5F038F8E433CF89F0A4EE
:1000D6002CFCE5F038CF3400CE89F0A42FFFE5F0F4
:1000E6003EFEE433C98DF0A42EFEE5F039CD8AF04C
:1000F600A42FFFE5F03EFEE43DFD33D0E0FB5007C4
:100106000BBB000F0201D0EC2CFCEF33FFEE33FEED
:06011600ED33FD0201A81B
:10011C0075F020800E75F010800575F0087D007E5E
:10012C00007F003392D530D5031203EEEC33401030
:10013C00EF33FFEE33FEED33FDEC33FCD5F0ED2267
:0E014C00E5F0247EA2D513CC92E7CDCEFF22A3
:10015A00EDD2E7CD33EC3392D524814006E4FFFE9D
:10016A00FDFC22FCE4CFCECDCC24E0501174FF80FC
:10017A00EDC3CC13CCCD13CDCE13CECF13CF047099
:07018A00F030D5DE0203EEA8
:10019100E9D2E7C933E833F892D5EDD2E7CD33ECB4
:0701A10033FC5002B2D5222D
:1001A800EC30E7100FBF000C0EBE00080DBD0004B8
:1001B8000BEB6014A2D5EB13FCED92E7FD2274FF64
:1001C800FCFDFEFF22E480F8A2D574FF13FC7D80BD
:0301D800E480EFD1
:1001DB00E709F608DFFA8046E709F208DFFA803E06
:1001EB0088828C83E709F0A3DFFA8032E309F608F3
:1001FB00DFFA8078E309F208DFFA807088828C835B
:10020B00E309F0A3DFFA806489828A83E0A3F6080E
:10021B00DFFA805889828A83E0A3F208DFFA804CE8
:10022B0080D280FA80C680D4806980F280338010BF
:10023B0080A680EA809A80A880DA80E280CA803328
:10024B0089828A83ECFAE493A3C8C582C8CCC583A0
:10025B00CCF0A3C8C582C8CCC583CCDFE9DEE78070
:10026B000D89828A83E493A3F608DFF9ECFAA9F0EF
:10027B00EDFB2289828A83ECFAE0A3C8C582C8CC45
:10028B00C583CCF0A3C8C582C8CCC583CCDFEADE5E
:10029B00E880DB89828A83E493A3F208DFF980CCC0
:1002AB0088F0EF60010E4E60C388F0ED2402B404B9
:1002BB000050B9F582EB2402B4040050AF23234560
:0602CB00822390022B7358
:1002D100BB010689828A83E0225002E722BBFE022B
:0902E100E32289828A83E493225E
:1002EA00BC000BBE0029EF8DF084FFADF022E4CCF8
:1002FA00F875F008EF2FFFEE33FEEC33FCEE9DECC1
:10030A00984005FCEE9DFE0FD5F0E9E4CEFD22ED06
:10031A00F8F5F0EE8420D21CFEADF075F008EF2F50
:10032A00FFED33FD4007985006D5F0F222C398FD41
:05033A000FD5F0EA22DE
:10033F00BB010A89828A83E0F5F0A3E02250068789
:10034F00F009E71922BBFE07E3F5F009E31922894B
:0B035F00828A83E493F5F0740193227E
:10036A00BB0110E58229F582E5833AF583E0F5F0D1
:10037A00A3E0225009E92582F886F008E622BBFEAE
:10038A000AE92582F8E2F5F008E222E5832AF583F4
:08039A00E993F5F0A3E99322B9
:1003A200BB010A89828A83F0E5F0A3F0225006F7A6
:0F03B20009A7F01922BBFE06F3E5F009F31922A3
:1003C100F8BB0111E58229F582E5833AF583E8F06E
:1003D100E5F0A3F0225009E92582C8F608A6F0222B
:0D03E100BBFE09E92582C8F2E5F008F22212
:0E03EE00C3E49FFFE49EFEE49DFDE49CFC2220
:00000001FF
