:0300000002208D4E
:0C208D00787FE4F6D8FD758188021C2FD6
:100F20004C203D20006D6D2E0D0A00C0F9A4B09933
:100F30009282F88090000000000000000000000095
:100F400000000000000000000000000000000000A1
:100F500000000000000000000000000000007F0012
:100F60000000000000000000000000000000000081
:100F70000000000000000000000000000000000071
:100F80000000000000000000000000000000000061
:100F9000000000000000000000007D0000000000D4
:100FA0000000000000000000000000000000000041
:100FB0000000000000000000000000000000000031
:100FC0000000000000000000000000000000000021
:050FD00000000000001C
:10202A00758920758DFD758BFD7598505387EFD294
:05203A008EE4F5A82270
:032099002430FFF1
:08209C008F993099FDC29922D1
:101C6400AE07EE54F0D39490EEC44006540F2437DC
:101C74008004540F2430FF12209CEE540FFFD394A1
:101C8400094005EF24378005EE540F2430FF12205D
:021C94009C2290
:10153200AD07AC06EC54F0FED3E49400EE9490ECCC
:10154200C44006540F24378004540F2430FF122065
:101552009CEC540FFED3E49400EE9409EC540F403B
:1015620004243780022430FF12209CED54F0D394DF
:1015720090E49400ECC4F854F0C8400BEDC4540F4E
:1015820048540F24378009EDC4540F48540F2430B7
:10159200FF12209CED540FD39409E49400ED540FF4
:0D15A2004004243780022430FF12209C22D8
:101FB800EF122099ED122099EB2430FF12209CE5B6
:071FC8003D2430FF02209CC4
:101D9B008B428A438944AB42AA43A9441202D160C5
:101DAB00130544E5447002054314F91202D1FF12E6
:041DBB00209C80E206
:011DBF002201
:0E2064005389F0438901E4F58CF58AD2A92254
:05000300D28AD2AA22FE
:0C208000E4FFE4FE0EBE21FC0FBF0AF6D8
:01208C002231
:041F5600AD07AC0621
:101F5A00E4FBFAC3EB9DEA9C500A1220800BBB00FB
:041F6A00010A80EFF9
:011F6E002250
:03001300020008E0
:03000800C28B3276
:03000B0002000EE2
:03000E00C28D326E
:10190200E4F58CF58AD2940000000000000000008B
:10191200000000000000C2943095FDD28C2095FD9D
:10192200C28C858C30858A31E530FE7C00E425311D
:10193200F529EC3EF528FCAD29E41201217B7B7AE6
:1019420014792E783E12001612015A8E2A8F2B22FB
:100E6200E4F58CF58AD29400000000000000000036
:100E7200000000000000C2943095FDD28C2095FD48
:100E8200C28C858C30858A31E530FE7C00E42531C8
:100E9200F529EC3EF528FCAD29E41201217B7B7A91
:100EA20014792E783E12001612015A8E2A8F2B7C4C
:100EB200007D0A1202EA8D21AE2AAF2B7C007D0A48
:100EC2001202EA8E2C8F2D7C007D0A1202EA8D22FC
:100ED200AE2CAF2D7C007D0A1202EA8E2C8F2D7C67
:100EE200007D0A1202EA8D23AE2CAF2D7C007D0A12
:100EF2001202EA8E2C8F2D7C007D0A1202EA8D24CA
:100F02007BFF7A0F7920121D9B85213DAB22AD23F9
:0E0F1200AF24121FB87BFF7A0F7925021D9BBA
:061FCF00D2937FA47E0600
:101FD5007C007D0A1202EAEF1F70011E144E70F795
:011FE50022D9
:101C96007E06121FD5C293D2927F147E05121FD5DF
:061CA600C2927F147E00D3
:101CAC00AB07AA060BBB00010AEB1B70011A144A06
:0C1CBC0060097F847E03121FD580EE2299
:061B01007D2C7C017E003A
:081B07008E1C8F1D8C1E8D1F2A
:101B0F00900001D3E582951DE583951C5024D29357
:101B1F00E51F24DCFFE51E3405FE121FD5C293D24C
:101B2F0092C374B4951FFF7405951EFE121CA3A3D8
:021B3F0080D153
:011B41002281
:081A7B007F017DC87C007E00A4
:081A83008E178F188C198D1AC3
:101A8B00900001D3E5829518E58395175025D293E5
:101A9B00C374E5951AFF74059519FE121FD5C293F1
:101AAB00D292C374DC951AFF74059519FE121CA310
:031ABB00A380D035
:011ABE002205
:081ABF007F017DC87C007E0060
:081AC7008E178F188C198D1A7F
:101ACF00900001D3E5829518E58395175023D293A3
:101ADF00E51A24DCFFE5193405FE121FD5C293D297
:101AEF0092E51A24D5FFE5193405FE121CA3A38035
:011AFF00D214
:011B000022C2
:081B7E008E3E8F3F8C408D412B
:101B8600900001D3E582953FE583953E5024D2939C
:101B9600C374DC9541FF74059540FE121FD5C293B0
:101BA600D292E54124DCFFE5403405FE121CA3A3D6
:021BB60080D1DC
:011BB800220A
:041E08008E1C8F1D80
:101E0C00900001D3E582951DE583951C500F121FA0
:0D1E1C00CFC293D2927F00121CA1A380E6DA
:011E29002296
:041DC0008E458F4677
:101DC400900001D3E5829546E58395455011121F95
:0F1DD400CFC293D2927FB07E04121CA3A380E4EF
:011DE30022DD
:041EAE008E1C8F1DDA
:101EB200900001D3E582951DE583951C500AD293CB
:081EC2007FCC121C96A380EBFB
:011ECA0022F5
:0B20A400C293C2927F147E00021CACAD
:101ECB00D2937FDC7E05121FD5C293D2927FDC7E2C
:0D1EDB0005121FD5C2927F147E00021CACC0
:041E2A008E178F1868
:101E2E00900001D3E5829518E5839517500F121F88
:0D1E3E00CFC293D2927F0A121CA1A380E6AE
:011E4B002274
:0F19E9007FD07E07121CAC7D327C007F287E00F1
:0819F8008E0E8F0F8C108D1173
:101A0000900001D3E582950FE583950E5023D29384
:101A1000E51124DCFFE5103405FE121FD5C293D278
:101A200092E51124F5FFE5103405FE121CA3A380F6
:011A3000D2E3
:011A31002292
:0F199E007FD07E07121CAC7F1E7D467C007E0032
:0819AD008E108F118C128D13B6
:1019B500900001D3E5829511E58395105025D293CA
:1019C500C374E69513FF74059512FE121FD5C293D5
:1019D500D292C374E19513FF74059512FE121CA3F0
:0319E500A380D00C
:0119E80022DC
:10203F00900001D2937F45121C96A3E582647A45E6
:03204F008370F0AB
:01205200226B
:101F6F00900001121FCFC293D2927F79121CA1A3AE
:081F7F00E582648D458370EBDF
:011F87002237
:10201400D2A100D2A00000000000C2A10000000074
:0620240000C2A000002232
:10205300C2A100D2A00000000000D2A10000000035
:01206300225A
:101B4200E4FEEFA806088002C333D8FC30E704D2D3
:101B5200A18002C2A100D2A00000000000C2A00E1B
:101B6200BE08DF0000D2A10000D2A000000030A118
:0B1B720004C2008002D200C2A00000EC
:011B7D002245
:101DE400E4FFD2A1FE00C2A00000000000D2A000C7
:101DF40000EF25E0FF30A1010F00000EBE08E6C28F
:031E0400A000003B
:011E070022B8
:101F8800200104C2A18002D2A1000000D2A000005A
:081F9800000000C2A0000022BD
:0D207200EFD3940040077E7DDEFE1F80F35B
:01207F00223E
:101D2500AE07AC03122014121B42200002C322AFDF
:101D350005121B42200002C322AF04121B422000E1
:081D450002C322122053D32235
:101F3C00122014121B42200002C322AF05121B42B6
:0A1F4C00200002C322122053D3220A
:071E4C007F90121F3C7F9004
:101E5300122014EF04FF121B422000037F00221202
:0A1E63001DE4D201121F8812205363
:011E6D002252
:101FA000D2AFD2ACD2AB758920E4F5877598507565
:081FB0008DFD758BFDD28E2220
:1003FC00E47883F608F6E47885F608F6C374097891
:10040C008496FFE41896FE7885E6FC08E6FDC39F0B
:10041C00EC9E40030204BFED2401FFE43CFEEF25FB
:10042C00E0FFEE338F82F58312036AFDACF0788621
:10043C00E625E0FF18E6338F82F58312036AD39D1D
:10044C00E5F09C40637885E6FC08E6FD25E0FFECD2
:10045C00338F82F58312036A7887A6F008F6ED24B1
:10046C0001FFE43CFEEF25E0FFEE338F82F58312B3
:10047C00036AFD7886E625E0FF18E6338F82F58364
:10048C00E5F08DF01203C17887E6FC08E6FD78866E
:10049C00E62401FF18E436FEEF25E0FFEE338F82F1
:1004AC00F583EC8DF01203C1788606E61870010610
:1004BC00020408788406E6187001067884E664095C
:1004CC001846600302040212033F786FA6F008F688
:1004DC00785B7600087601E47885F608F67883F682
:1004EC0008F67883E6FE08E6FFC39409EE94004014
:1004FC0003020584EF2401FFE43EFEEF25E0FFEE4E
:10050C00338F82F58312036AFDACF07884E625E024
:10051C00FF18E6338F82F58312036A6D7003EC6566
:10052C00F0603B788606E6187001067886E6FD25B5
:10053C00E0245BF876000876017884E62401FF1845
:10054C00E436FEEF25E0FFEE338F82F58312036A6B
:10055C00FFED25E0246FF8A6F008A607800F78863B
:10056C00E625E0245BF80806E61870010678840698
:10057C00E6187001060204EEE47883F608F6D379E7
:10058C0084E778869619E718965066E47887F6081B
:10059C00F67883E6FE08E6FFD3788696EE1896503A
:1005AC00467887E6FC08E6FD25E0245BF8E6FA08C9
:1005BC00E6FBA907E925E0245BF8E6FE08E6C39B09
:1005CC00EE9A50028021ED7886667003EC18667006
:1005DC000CE925E0246FF8E6FE08E6FF2278880691
:1005EC00E61870AD0680AA788406E618709006802E
:0105FC008D71
:0105FD0022DB
:0B1E8F00C3E5139511FFE5129510FE4E
:101E9A00D3EF9400EE64809480400122C3E49FFF54
:041EAA00E49EFE2292
:101BB90078477C007D007BFF7A0F79357E007F14A2
:101BC9001202ABE4FBFA7D40121E4CEB25E02447E0
:101BD900F8760008A6070BBB00010AEB640A4A70F5
:0A1BE900E57B007A0079471203FC47
:011BF30022CF
:101BF40078477C007D007BFF7A0F79497E007F1453
:101C04001202ABE4FBFA7D41121E4CEB25E02447A3
:101C1400F8760008A6070BBB00010AEB640A4A70B9
:0A1C2400E57B007A0079471203FC0B
:011C2E002293
:1018B1008B178A1889198C1A8D1B121BB9AB17AAA1
:1018C10018A919EE8FF01203A2AB17AA18A91912C1
:1018D100033FC3951BE5F0951A50077F027E000276
:1018E1001E08AB17AA18A91912033FD3951BE5F0DF
:1018F100951A40077F027E00021EAE7F02121B0175
:0119010022C3
:101702008B168A1789188C198D1A121BF4AB16AA1C
:1017120017A918EE8FF01203A2AB16AA17A9181276
:10172200033FC3951AE5F0951950077F027E000228
:101732001EAEAB16AA17A91812033FD3951AE5F0ED
:10174200951940077F027E00021E087D2C7C017FD6
:07175200027E00121B0722BA
:101FE60012203F121ECB121ECB7DC87C007F3C7E8A
:071FF60000121B07021ECBC5
:101FFD00121F6F121ECB121ECB7DC87C007F327E4E
:07200D0000121B07021ECBAD
:041D4D007F7D7E0018
:101D51008E0E8F0F121902D3EF950FE50E6480F8E6
:101D6100EE648098400D7D2C7C017F027E00121B69
:041D71000780E122E4
:081272007F0F7D037C007E006C
:08127A008E0E8F0F8C108D11F8
:10128200121BF48E128F137D2C7C01AF0FAE0E1247
:101292001B07121BF48E148F15C3E5159513FFE57A
:1012A200149512FE121E9AC3EF9402EE648094808B
:1012B200500D7B007A007914AD13AC12121702C3E1
:1012C200E5159513FFE5149512FE121E9AC3EF94CD
:1012D20002EE64809480402CD3E5159513E51495B5
:1012E20012400B7DC87C00AF11AE10021A83C3E519
:1012F200159513E5149512500B7DC87C00AF11AE05
:0413020010121AC7E4
:0113060022C4
:0A1083007F147B037A007D467E0097
:0A108D008E0E8F0F8D108A118B124A
:10109700121BB98E138F14E510B4460D7D2C7C01FD
:1010A700AF0FAE0E121B07800CE510B45207AF0F3F
:1010B700AE0E121E2A121BB98E158F16C3E5169592
:1010C70014FFE5159513FE121E9AC3EF9402EE6402
:1010D700809480500D7B007A007915AD14AC131203
:1010E70018B1C3E5169514FFE5159513FE121E9A60
:1010F700C3EF9402EE64809480402CD3E5169514D8
:10110700E5159513400B7DC87C00AF12AE11021A8E
:10111700C7C3E5169514E5159513500B7DC87C00DC
:07112700AF12AE11121A8392
:01112E00229E
:040D8B007F2D7E003A
:040D8F008E0E8F0F26
:100D9300751000751135751200751335D3E513956C
:100DA3000FE512950E5003020E61D3E511950FE581
:100DB30010950E5003020E61121BB98E108F117D18
:100DC3002C7C017F0F7E00121B07121BB98E128F22
:100DD30013121E8FC3EF9402EE64809480503B1273
:100DE3001BB98E108F11D3E513950FE512950E40A5
:100DF3006DD3E511950FE510950E4062121E90D349
:100E0300EF9409EE648094804001227B007A00799C
:100E130012AD11AC101218B180CC121E8FC3EF9417
:100E230002EE648094805003020D9FD3E513950F67
:100E3300E512950E5003020D9FD3E5139511E512AC
:100E430095104006121ABF020D9FC3E5139511E5D5
:0E0E53001295104003020D9F121A7B020D9F94
:010E6100226E
:0407FA007F2D7E00D1
:0407FE008E0E8F0FBD
:10080200751000751135751200751335D3E5139502
:100812000FE512950E50030208EFD3E511950FE58F
:1008220010950E50030208EF121BF48E108F117FE9
:100832000D7E00121E2A121BF48E128F13C3E513B3
:100842009511FFE5129510FE121E9AC3EF9402EE67
:10085200648094805048121BF48E108F11D3E513DC
:10086200950FE512950E50030208EFD3E511950F8F
:10087200E510950E4077E5139511FFE5129510FEF0
:10088200121E9AD3EF9412EE648094804001227B70
:10089200007A007912AD11AC1012170280BFC3E5C5
:1008A200139511FFE5129510FE121E9AC3EF9402E2
:1008B200EE64809480500302080ED3E513950FE591
:1008C20012950E500302080ED3E5139511E5129509
:1008D200104006121A7B02080EC3E5139511E512A9
:0D08E2009510400302080E121ABF02080E06
:0108EF0022E6
:0808F0007D9B7C007F017E006E
:0808F8008E0E8F0F8C108D1184
:10090000751200751335751400751535D3E51595F9
:100910000FE514950E50030209E4121902D3EF9566
:1009200011E5106480F8EE648098500122121BB922
:100930008E128F137D2C7C017F0C7E00121B071200
:100940001BB98E148F15C3E5159513FFE514951289
:10095000FE121E9AC3EF9402EE648094805032120D
:100960001BB98E128F13D3E515950FE514950E4024
:10097000737B007A007914AD13AC121218B11219FE
:1009800002D3EF9511E5106480F8EE64809850D69C
:1009900022C3E5159513FFE5149512FE121E9AC3A6
:1009A000EF9402EE64809480500302090CD3E515A5
:1009B000950FE514950E500302090CD3E515951318
:1009C000E514951240087F02121AC102090CC3E512
:1009D000159513E5149512400302090C7F02121AB3
:0409E0007D02090C7F
:0109E40022F0
:0805FE007D7F7F027C007E007E
:080606008E0E8F0F8C108D1178
:10060E00751200751335751400751535D3E51595EE
:10061E000FE514950E50030206FD121902D3EF9545
:10062E0011E5106480F8EE648098500122121BF4DC
:10063E008E128F137F0F7E00121E2A121BF48E1441
:10064E008F15C3E5159513FFE5149512FE121E9A2C
:10065E00C3EF9402EE648094805035121BF48E1218
:10066E008F13D3E515950FE514950E50030206FD75
:10067E007B007A007914AD13AC1212170212190214
:10068E00D3EF9511E5106480F8EE64809850D32274
:10069E00C3E5159513FFE5149512FE121E9AC3EFCE
:1006AE009402EE64809480500302061AD3E51595E9
:1006BE000FE514950E500302061AD3E5159513E5B2
:1006CE00149512400E7DC87C007F027E00121A83A4
:1006DE0002061AC3E5159513E5149512400302069A
:0F06EE001A7DC87C007F027E00121AC702061A0E
:0106FD0022DA
:0806FE008E328F338C348D35F0
:10070600753600753735753800753935D3E5399541
:1007160033E538953250030207F9121902D3EF95E3
:1007260035E5346480F8EE648098500122121BF49B
:100736008E368F377D2C7C017F0F7E00121B0712B1
:100746001BF48E388F39C3E5399537FFE538953672
:10075600FE121E9AC3EF9402EE6480948050351206
:100766001BF48E368F37D3E5399533E538953250FD
:10077600030207F97B007A007938AD37AC361217D9
:1007860002121902D3EF9535E5346480F8EE6480E1
:100796009850D322C3E5399537FFE5389536FE12D2
:1007A6001E9AC3EF9402EE648094805003020712EF
:1007B600D3E5399533E53895325003020712D3E570
:1007C600399537E5389536400E7DC87C007F027E28
:1007D60000121A83020712C3E5399537E5389536B4
:1007E60040030207127DC87C007F027E00121AC7F2
:0307F600020712E5
:0107F90022DD
:101697007F0F1210857B037A007D467F0F7E001235
:1016A700108D7D5E7C011208F47FA57E00121D510E
:1016B7007DC87C007F247E00121A837F1412127467
:1016C7007D037C007F147E0012127A1212721207B9
:1016D700FA7DC87C007F057E00121B07121FE67D7E
:1016E700C87C007F197E00121B077F2F7E00120D1A
:0B16F7008F7D821206001220A480FBF1
:101E6E00120D8B121FE61207FA7DC87C007FFA7ED8
:101E7E0000121B07120D8B7D821206001220A48009
:011E8E00FB58
:101423001210837B037A007D467F0F7E0012108D9E
:101433007DA31208F27DC87C007F237E00121AC7A9
:10144300121083120D8B7D2C7C017F0A7E00121BF0
:10145300077D037C007F147E0012127A7D037C00DB
:101463007F147E0012127A7D037C007F147E0012AB
:10147300127A1207FA7DC87C007FD27E00121B0706
:101483007B037A007D527F147E0012108D7B037ADA
:10149300007D527F147E0012108D120D8B1212727A
:0A14A3007D8C1206001220A480FBCD
:101A32001210837B037A007D467F0F7E0012108D89
:101A42007DA37C007F027E001208F87DC87C007FA7
:101A5200237E00121AC71210831210837B037A00AE
:101A62007D467F0F7E0012108D120D8B121FFD7DA1
:091A7200911206001220A480FB71
:100AD600E4F50AF50B7B03FA7D467F14FE12108DB2
:100AE6007B037A007D527F147E0012108DE4F50898
:100AF600F5097B037A007D467F0F7E0012108D0577
:100B060009E50970020508C39402E508940040E26D
:100B1600121BB98E0A8F0B7DC87C007F247E0012C3
:100B26001AC77D2C7C017F327E00121B077F1E7E3A
:100B360000121E2A7F14121B01D3E50B9463E50AEB
:100B460094004024E4F508F5097B027A007D527F83
:100B5600147E0012108D0509E50970020508C3947C
:100B660002E508940040E222C3E50B9462E50A948C
:100B760000502FC3E50B9443E50A94004024E4F5A6
:100B860008F5097B027A007D527F0F7E0012108DD8
:100B96000509E50970020508C39402E508940040BA
:100BA600E222C3E50B9443E50A9400500D7B027ADA
:0A0BB600007D527F0F7E0012108DAB
:010BC0002212
:101952007B017A007D467F1E7E0012108D7B017A0C
:10196200007D527F147E0012108D7B017A007D5221
:101972007F0F7E0012108D7B017A007D467F0F7EE5
:101982000012108D7D2C7C017F2D7E00121B077FA3
:0C1992002E7E001207FE121FFD020AD676
:10112F00E4F508F5097B037A007D467F0F7E0012F8
:10113F00108D0509E50970020508C39403E50894AD
:10114F000040E27D5E7C011208F47FA57E00121D37
:10115F00517DC87C007F237E00121A831212727F8A
:10116F002E7E001207FE121FFD1210837B037A00E2
:10117F007D527F147E0012108DE4F508F5097B0374
:10118F007A007D467F0F7E0012108D0509E50970EC
:10119F00020508C39402E508940040E27DC87C0074
:1011AF007F237E00121AC77D2C7C017F327E0012B6
:1011BF001B077F1E7E00121E2A7D2C7C017F147E52
:0411CF0000021B07F8
:0611D3008B088A09890A5D
:1011D900120D8B7F147E00121E2A7F9D7E00121D28
:1011E900517DC87C007F227E00121AC7120D8B7DAB
:1011F9002C7C017F037E00121B077DA57F0112064F
:1012090002121BF4AB08AA09A90AEE8FF01203A275
:101219007DC87C007F237E00121A83E4F50BF50C50
:101229007D037C007F147E0012127A050CE50C7098
:1012390002050BC39402E50B940040E47D037C0096
:101249007F117E0012127AE4F50BF50C7D027C0009
:101259007F0F7E0012127A050CE50C7002050BC394
:081269009405E50B940040E43C
:01127100225A
:101307001210837D9F1208F27DC87C007F227E0029
:10131700121AC7121083120D8B7D2C7C017F037E5E
:1013270000121B077D037C007F147E0012127A12C5
:1013370007FA121FFD120D8B7DA57C007F017E0031
:101347001206067DC87C007F237E00121A83E4F50F
:1013570008F5097D037C007F147E0012127A0509C7
:10136700E50970020508C39402E508940040E4E427
:10137700F508F5097D027C007F0F7E0012127A05C1
:1013870009E50970020508C39406E508940040E4DE
:011397002233
:1013980078477C007D007BFF7A0F795D7E007F3C7B
:1013A8001202ABE4F50CF50D121902AD0DED25E0B6
:1013B8002449F8A60608A607ED25E02448F9ED25F6
:1013C800E0244AF8C3E697FF18E61997FEC3EF949E
:1013D80014EE648094804004C290801C7D3C7C00A4
:1013E8007F057E00121AC7050DE50D7002050CC3B6
:1013F800941DE50C940040B0C2901219E91219E945
:101408007FB87E0B1219ED7F887E13121CACD29028
:0B1418007DC87C007F277E00021AC701
:1014AD0078477C007D007BFF7A0F79997E007F3C29
:1014BD001202ABE4F50EF50F121902AD0FED25E09A
:1014CD002449F8A60608A607ED25E02448F9ED25E0
:1014DD00E0244AF8C3E697FF18E61997FEC3EF9488
:1014ED0014EE648094804004C29080167F0512191A
:1014FD00A7050FE50F7002050EC3941DE50E9400B0
:10150D0040B6C2907FE87E031219A212199E1219DD
:10151D009E7FA07E0F121CACD2907DC87C007F29CF
:05152D007E00021A839C
:101EE800121A7B1205FE1213981210837B037A00D4
:0C1EF8007D467F0F7E0012108D021697B1
:101759001212721212727DA01206007DC87C007FDF
:10176900237E00121A837D7F7C007F017E00120692
:10177900061213987DC87C007F147E00121B071285
:1017890010837B037A007D467F0F7E0012108D1235
:1017990008F01208F07DC87C007F267E00121AC767
:0617A900121A7B021697E4
:101D75007DC87C007F027E00121A83121D4D12144D
:101D8500AD7FA07E00121D517DC87C007F247E00A2
:061D9500121AC7021697A6
:10162600E4F50AF50B7D037C007F147E0012127A26
:10163600050BE50B7002050AC39402E50A94004007
:10164600E4E4F50AF50B7D027C007F0F7E001212A2
:101656007A050BE50B7002050AC39405E50A9400AA
:1016660040E41205FE121398E4F50AF50B121083F6
:10167600050BE50B7002050AC39404E50A940040C5
:10168600EC7B027A007D467F0F7E0012108D021ED3
:011696006EE5
:1017AF001212721212727DA01206007DC87C007F89
:1017BF00237E00121A837D7F7C007F017E0012063C
:1017CF00061213987DC87C007F147E00121B07122F
:1017DF0010837B037A007D467F0F7E0012108D12DF
:1017EF0008F01208F07DC87C007F267E00121AC711
:0617FF00121A7B021E6EAF
:101CC8007DC87C007F0A7E00121A83121D4D1214F3
:101CD800AD7DC87C007F047E00121A837FA07E0041
:101CE800121D517DC87C007F247E00121AC7021E77
:011CF8006E7D
:101F0400121A7B1205FE1213981210837B037A00B7
:0C1F14007D467F0F7E0012108D0214230A
:101805001212721212727DA01206007DC87C007F32
:10181500237E00121A837D7F7C007F017E001206E5
:10182500061213987DC87C007F147E00121B0712D8
:1018350010837B037A007D467F0F7E0012108D1288
:1018450008F01208F07DC87C007F267E00121AC7BA
:06185500121A7B021423AD
:1015AF008E0C8F0DC3E50D944EE50C94005013C3B4
:1015BF00E50D9449E50C940040087DC87C007F0937
:1015CF008024D3E50D9449E50C940040087DC87C38
:1015DF00007F068011C3E50D944EE50C9400500B6F
:1015EF007DC87C007F0B7E00121A83121D4D1214D2
:1015FF00AD7DC87C007F087E00121A831212721212
:10160F0012727FA07E00121D517DC87C007F237E49
:07161F0000121AC702142398
:101F2000121A7B1205FE1213981210837B037A009B
:0C1F30007D467F0F7E0012108D021A32D9
:10185B001212721212727DA01206007DC87C007FDC
:10186B00237E00121A837D7F7C007F017E0012068F
:10187B00061213987DC87C007F147E00121B071282
:10188B0010837B037A007D467F0F7E0012108D1232
:10189B0008F01208F07DC87C007F267E00121AC764
:0618AB00121A7B021A3242
:101CF9007DC87C007F037E00121A83121D4D1214C9
:101D0900AD1212721212727FA07E00121D517DC88F
:0C1D19007C007F237E00121AC7021A32E1
:100BC100E4F508F509121ABF20801120810E7DC8B5
:100BD1007C00AF09AE08121A83121EE80509E50967
:100BE10070020508C3940FE508940040D87DC87CC5
:100BF100007F127E00121A83E4F508F509121A7BB0
:100C0100208043208140C374199509FFE49508FEB3
:100C11007DC87C00121A837DC87C007F0F7E001284
:100C21001A832080132081107DC87C007F0F7E00F5
:100C3100121AC7121D75800E7DC87C007F2B7E00A5
:100C4100121AC71217590509E50970020508C3945C
:100C510019E508940040A67DC87C007F037E001240
:100C61001A83E4F508F509121A7B20801120810E00
:100C71007DC87C00AF09AE08121AC7121D7505099F
:100C8100E50970020508C39417E508940040D87D72
:100C9100C87C007F0F7E00121A837DC87C007F0113
:050CA1007E00021AC7ED
:100FD500E4F508F509121ABF20801120810E7DC89D
:100FE5007C00AF09AE08121A831216260509E50919
:100FF50070020508C3940FE508940040D87DC87CAD
:10100500007F0B7E00121A83E4F508F509121A7B9E
:1010150020801120810E7DC87C00AF09AE08121A10
:10102500C71217AF0509E50970020508C39417E54E
:1010350008940040D87DC87C007F057E00121A8385
:10104500E4F508F509121A7B20801120810E7DC870
:101055007C00AF09AE08121AC7121CC80509E509BC
:1010650070020508C3941AE508940040D87DC87C31
:0E107500007F157E00121A83121ABF021ECBD6
:0409E5008E088F09E0
:1009E900E4F50AF50B121ABF20801120810E7DC88B
:1009F9007C00AF0BAE0A121A83121F04050BE50B1C
:100A09007002050AC3940FE50A940040D87DC87C9A
:100A1900007F127E00121A83E4F50AF50B121A7B85
:100A2900208047208144C37419950BFFE4950AFE81
:100A39007DC87C00121A837DC87C007F0F7E00125E
:100A49001A832080172081147DC87C007F0F7E00C7
:100A5900121AC7AF09AE081215AF800E7DC87C0007
:100A69007F2B7E00121AC7121805050BE50B7002C1
:100A7900050AC39419E50A940040A27DC87C007F49
:100A8900037E00121A83E4F50AF50B121A7B208003
:100A9900152081127DC87C00AF0BAE0A121AC7AFB0
:100AA90009AE081215AF050BE50B7002050AC394D0
:100AB90017E50A940040D47DC87C007F117E00129E
:0D0AC9001A837DC87C007F017E00021AC7E1
:100CA600E4F508F509121ABF20801120810E7DC8CF
:100CB6007C00AF09AE08121A83121F200509E50948
:100CC60070020508C3940FE508940040D87DC87CDF
:100CD600007F127E00121A83E4F508F509121A7BCA
:100CE600208043208140C374199509FFE49508FECE
:100CF6007DC87C00121A837DC87C007F0F7E00129F
:100D06001A832080132081107DC87C007F0F7E000F
:100D1600121AC7121CF9800E7DC87C007F2B7E003C
:100D2600121AC712185B0509E50970020508C39473
:100D360019E508940040A67DC87C007F037E00125A
:100D46001A83E4F508F509121A7B20801120810E1A
:100D56007DC87C00AF09AE08121AC7121CF9050936
:100D6600E50970020508C39417E508940040D87D8C
:100D7600C87C007F0F7E00121A837DC87C007F012D
:050D86007E00021AC707
:101C2F00122064120003C294D290D280D281121972
:101C3F0052120BC112112F120FD57B007A00792E81
:101C4F001211D3AF2FAE2E1209E5121307120CA6E5
:051C5F001220A480FB2F
:10001600EC4D6011E8497017ED33EC3304600DE4E4
:10002600FCFFFEFD22E933E8330470F80201C61234
:10003600019158046009E4CC248150062850090235
:1000460001D02840030201CDC0E0EB4A7044B980DC
:1000560006D0E0FB0201BCEF4E701CBD8008EBFF32
:10006600EAFEE9FD80EBE98DF0A4FEE5F00200FF73
:10007600E9CDF9EAFEEBFFEF89F0A4FCE5F0CE89C5
:10008600F0A42EFFE435F0CD89F0A42DFEE435F082
:100096008067EF4E7005BD80D780C3EF8BF0A4ACB0
:1000A600F0EE8BF0A42CFCE435F0F8EF8AF0A42CEB
:1000B600E5F038FCE433CB8DF0A42CFCE5F03BF8FE
:1000C600EE8AF0A42CFCE5F038F8E433CF89F0A4EE
:1000D6002CFCE5F038CF3400CE89F0A42FFFE5F0F4
:1000E6003EFEE433C98DF0A42EFEE5F039CD8AF04C
:1000F600A42FFFE5F03EFEE43DFD33D0E0FB5007C4
:100106000BBB000F0201D0EC2CFCEF33FFEE33FEED
:06011600ED33FD0201A81B
:10011C0075F020800E75F010800575F0087D007E5E
:10012C00007F003392D530D5031203EEEC33401030
:10013C00EF33FFEE33FEED33FDEC33FCD5F0ED2267
:0E014C00E5F0247EA2D513CC92E7CDCEFF22A3
:10015A00EDD2E7CD33EC3392D524814006E4FFFE9D
:10016A00FDFC22FCE4CFCECDCC24E0501174FF80FC
:10017A00EDC3CC13CCCD13CDCE13CECF13CF047099
:07018A00F030D5DE0203EEA8
:10019100E9D2E7C933E833F892D5EDD2E7CD33ECB4
:0701A10033FC5002B2D5222D
:1001A800EC30E7100FBF000C0EBE00080DBD0004B8
:1001B8000BEB6014A2D5EB13FCED92E7FD2274FF64
:1001C800FCFDFEFF22E480F8A2D574FF13FC7D80BD
:0301D800E480EFD1
:1001DB00E709F608DFFA8046E709F208DFFA803E06
:1001EB0088828C83E709F0A3DFFA8032E309F608F3
:1001FB00DFFA8078E309F208DFFA807088828C835B
:10020B00E309F0A3DFFA806489828A83E0A3F6080E
:10021B00DFFA805889828A83E0A3F208DFFA804CE8
:10022B0080D280FA80C680D4806980F280338010BF
:10023B0080A680EA809A80A880DA80E280CA803328
:10024B0089828A83ECFAE493A3C8C582C8CCC583A0
:10025B00CCF0A3C8C582C8CCC583CCDFE9DEE78070
:10026B000D89828A83E493A3F608DFF9ECFAA9F0EF
:10027B00EDFB2289828A83ECFAE0A3C8C582C8CC45
:10028B00C583CCF0A3C8C582C8CCC583CCDFEADE5E
:10029B00E880DB89828A83E493A3F208DFF980CCC0
:1002AB0088F0EF60010E4E60C388F0ED2402B404B9
:1002BB000050B9F582EB2402B4040050AF23234560
:0602CB00822390022B7358
:1002D100BB010689828A83E0225002E722BBFE022B
:0902E100E32289828A83E493225E
:1002EA00BC000BBE0029EF8DF084FFADF022E4CCF8
:1002FA00F875F008EF2FFFEE33FEEC33FCEE9DECC1
:10030A00984005FCEE9DFE0FD5F0E9E4CEFD22ED06
:10031A00F8F5F0EE8420D21CFEADF075F008EF2F50
:10032A00FFED33FD4007985006D5F0F222C398FD41
:05033A000FD5F0EA22DE
:10033F00BB010A89828A83E0F5F0A3E02250068789
:10034F00F009E71922BBFE07E3F5F009E31922894B
:0B035F00828A83E493F5F0740193227E
:10036A00BB0110E58229F582E5833AF583E0F5F0D1
:10037A00A3E0225009E92582F886F008E622BBFEAE
:10038A000AE92582F8E2F5F008E222E5832AF583F4
:08039A00E993F5F0A3E99322B9
:1003A200BB010A89828A83F0E5F0A3F0225006F7A6
:0F03B20009A7F01922BBFE06F3E5F009F31922A3
:1003C100F8BB0111E58229F582E5833AF583E8F06E
:1003D100E5F0A3F0225009E92582C8F608A6F0222B
:0D03E100BBFE09E92582C8F2E5F008F22212
:0E03EE00C3E49FFFE49EFEE49DFDE49CFC2220
:00000001FF
