:0300000002129059
:0C129000787FE4F6D8FD7581A1020CDE29
:100DAB004C203D20006D6D2E0D0A00C0F9A4B099AA
:100DBB009282F8809000000000000000000000000C
:100DCB000000000000000000000000000000000018
:0D0DDB00000000000000000000000000000B
:10122D00758920758DFD758BFD7598505387EFD29F
:05123D008EE4F5A8227B
:03129C002430FFFC
:08129F008F993099FDC29922DC
:100F4B00AE07EE54F0D39490EEC44006540F243702
:100F5B008004540F2430FF12129FEE540FFFD394D2
:100F6B00094005EF24378005EE540F2430FF121291
:020F7B009F22B3
:100A6E00AD07AC06EC54F0FED3E49400EE9490EC9B
:100A7E00C44006540F24378004540F2430FF121242
:100A8E009FEC540FFED3E49400EE9409EC540F4007
:100A9E0004243780022430FF12129FED54F0D394B9
:100AAE0090E49400ECC4F854F0C8400BEDC4540F1D
:100ABE0048540F24378009EDC4540F48540F243086
:100ACE00FF12129FED540FD39409E49400ED540FCE
:0D0ADE004004243780022430FF12129F22B2
:1011E900EF12129CED12129CEB2430FF12129FE5B4
:0711F9004A2430FF02129F9F
:101004008B578A588959AB57AA58A9591202D160EB
:10101400130559E5597002055814F91202D1FF124B
:04102400129F80E2B5
:0110280022A5
:0E1267005389F0438901E4F58CF58AD2A9225F
:05000300D28AD2AA22FE
:0C128300E4FFE4FE0EBE21FC0FBF0AF6E3
:01128F00223C
:04118700AD07AC06FE
:10118B00E4FBFAC3EB9DEA9C500A1212830BBB00E3
:04119B00010A80EFD6
:01119F00222D
:03001300020008E0
:03000800C28B3276
:03000B0002000EE2
:03000E00C28D326E
:100BF600E4F58CF58AD2B200000000000000000087
:100C0600000000000000C2B230B3FDD28C20B3FD5C
:100C1600C28C858C15858A16E515FE7C00E42516A2
:100C2600F510EC3EF50FFCAD10E41201217B7B7A4A
:100C360014792E783E12001612015A8E118F122246
:1009B000E4F58CF58AD2B2000000000000000000CF
:1009C000000000000000C2B230B3FDD28C20B3FDA5
:1009D000C28C858C15858A16E515FE7C00E42516EB
:1009E000F510EC3EF50FFCAD10E41201217B7B7A93
:1009F00014792E783E12001612015A8E118F127C35
:100A0000007D0A1202EA8D08AE11AF127C007D0A49
:100A10001202EA8E138F147C007D0A1202EA8D09FD
:100A2000AE13AF147C007D0A1202EA8E138F147C81
:100A3000007D0A1202EA8D0AAE13AF147C007D0A13
:100A40001202EA8E138F147C007D0A1202EA8D0BCB
:100A50007BFF7A0D79AB12100485084AAB09AD0A09
:0E0A6000AF0B1211E97BFF7A0D79B002100482
:06120000D2937FA47E06DC
:101206007C007D0A1202EAEF1F70011E144E70F771
:0112160022B5
:100F7D007E06121206C293D2927F147E05121206BD
:060F8D00C2927F147E00F9
:100F9300AB07AA060BBB00010AEB1B70011A144A2C
:0C0FA30060097F847E0312120680EE229B
:0E0C95001211331211337F3C7DC87C007E00AB
:080CA3008E278F288C298D2A71
:100CAB00900001D3E5829528E58395275024D293B4
:100CBB00E52A24DCFFE5293405FE121206C293D285
:100CCB0092C374E6952AFF74059529FE120F8AA329
:020CDB0080D1C6
:010CDD0022F4
:080D25007F017DC87C007E0007
:080D2D008E278F288C298D2AE6
:100D3500900001D3E5829528E58395275025D29328
:100D4500C374EB952AFF74059529FE121206C2930A
:100D5500D292C374DC952AFF74059529FE120F8A79
:030D6500A380D098
:010D68002268
:080D69007F017DC87C007E00C3
:080D71008E278F288C298D2AA2
:100D7900900001D3E5829528E58395275023D293E6
:100D8900E52A24DCFFE5293405FE121206C293D2B6
:100D990092E52A24CDFFE5293405FE120F8AA380A6
:010DA900D277
:010DAA002226
:080E60008E4B8F4C8C4D8D4E22
:100E6800900001D3E582954CE583954B5024D293AD
:100E7800C374E6954EFF7405954DFE121206C29393
:100E8800D292E54E24DCFFE54D3405FE120F8AA30D
:020E980080D107
:010E9A002235
:041116008E2C8F2D5F
:10111A00900001D3E582952DE583952C500AD29350
:08112A007FA4120F7DA380EBEE
:01113200229A
:041071008E2C8F2D05
:10107500900001D3E582952DE583952C500F121232
:0D10850000C293D2927F44120F88A380E630
:01109200223B
:0B12A700C293C2927F147E00020F93DE
:10113300D2937FDC7E05121206C293D2927FDC7EAD
:0D11430005121206C2927F147E00020F9367
:041093008E2C8F2DE3
:10109700900001D3E582952DE583952C500F121210
:0D10A70000C293D2927F1E120F88A380E634
:0110B4002219
:041150008E5A8F5BC9
:10115400900001D3E582955BE583955A500AD293BA
:081164007FCC120F7DA380EB8C
:01116C002260
:080F11008E4F8F508C518D5260
:100F1900900001D3E5829550E583954F5023D293F4
:100F2900E55224DCFFE5513405FE121206C293D2C4
:100F390092E55224F5FFE5513405FE120F8AA3808C
:010F4900D2D5
:010F4A002284
:080DE8008E538F548C558D567B
:100DF000900001D3E5829554E58395535025D29315
:100E0000C374E69556FF74059555FE121206C293FB
:100E1000D292C374E19556FF74059555FE120F8A60
:030E2000A380D0DC
:010E230022AC
:10124200900001D2937F40120F7DA3E5826469452D
:031252008370F0B6
:011255002276
:1011A000900001121200C293D2927F87120F88A37F
:0811B000E582647E458370EBCB
:0111B8002214
:10121700D2A100D2A00000000000C2A1000000007F
:0612270000C2A00000223D
:10125600C2A100D2A00000000000D2A10000000040
:011266002265
:100E2400E4FEEFA806088002C333D8FC30E704D2FE
:100E3400A18002C2A100D2A00000000000C2A00E46
:100E4400BE08DF0000D2A10000D2A000000030A143
:0B0E540004C2008002D200C2A0000017
:010E5F002270
:10102900E4FFD2A1FE00C2A00000000000D2A0008F
:1010390000EF25E0FF30A1010F00000EBE08E6C257
:03104900A0000004
:01104C002281
:1011B900200104C2A18002D2A1000000D2A0000037
:0811C900000000C2A00000229A
:0D127500EFD3940040077E7DDEFE1F80F366
:011282002249
:100FDC00AE07AC03121217120E24200002C322AF6C
:100FEC0005120E24200002C322AF04120E2420008E
:080FFC0002C322121256D32297
:10116D00121217120E24200002C322AF05120E24F4
:0A117D00200002C322121256D322F2
:0710B5007F9012116D7F9086
:1010BC00121217EF04FF120E242000037F002212DD
:0A10CC001029D2011211B9121256B8
:0110D60022F7
:1011D100D2AFD2ACD2AB758920E4F5877598507542
:0811E1008DFD758BFDD28E22FD
:1003FC00E4789CF608F6E4789EF608F6C37409785F
:10040C009D96FFE41896FE789EE6FC08E6FDC39FD9
:10041C00EC9E40030204BFED2401FFE43CFEEF25FB
:10042C00E0FFEE338F82F58312036AFDACF0789F08
:10043C00E625E0FF18E6338F82F58312036AD39D1D
:10044C00E5F09C4063789EE6FC08E6FD25E0FFECB9
:10045C00338F82F58312036A78A0A6F008F6ED2498
:10046C0001FFE43CFEEF25E0FFEE338F82F58312B3
:10047C00036AFD789FE625E0FF18E6338F82F5834B
:10048C00E5F08DF01203C178A0E6FC08E6FD789F3C
:10049C00E62401FF18E436FEEF25E0FFEE338F82F1
:1004AC00F583EC8DF01203C1789F06E618700106F7
:1004BC00020408789D06E618700106789DE664092A
:1004CC001846600302040212033F7888A6F008F66F
:1004DC0078747600087601E4789EF608F6789CF637
:1004EC0008F6789CE6FE08E6FFC39409EE940040FB
:1004FC0003020584EF2401FFE43EFEEF25E0FFEE4E
:10050C00338F82F58312036AFDACF0789DE625E00B
:10051C00FF18E6338F82F58312036A6D7003EC6566
:10052C00F0603B789F06E618700106789FE6FD2583
:10053C00E02474F87600087601789DE62401FF1813
:10054C00E436FEEF25E0FFEE338F82F58312036A6B
:10055C00FFED25E02488F8A6F008A607800F789F09
:10056C00E625E02474F80806E618700106789D0666
:10057C00E6187001060204EEE4789CF608F6D379CE
:10058C009DE7789F9619E718965066E478A0F608D0
:10059C00F6789CE6FE08E6FFD3789F96EE18965008
:1005AC004678A0E6FC08E6FD25E02474F8E6FA0897
:1005BC00E6FBA907E925E02474F8E6FE08E6C39BF0
:1005CC00EE9A50028021ED789F667003EC186670ED
:1005DC000CE925E02488F8E6FE08E6FF2278A1065F
:1005EC00E61870AD0680AA789D06E6187090068015
:0105FC008D71
:0105FD0022DB
:0B10F700C3E53B9539FFE53A9538FE54
:10110200D3EF9400EE64809480400122C3E49FFFF9
:04111200E49EFE2237
:100E9B0078607C007D007BFF7A0D79C07E007F142B
:100EAB001202ABE4FBFA7D401210B5EB25E0246097
:100EBB00F8760008A6070BBB00010AEB640A4A7020
:0A0ECB00E57B007A0079601203FC59
:010ED50022FA
:100BA5008B428A4389448C458D46120E9BAB42AAE3
:100BB50043A944EE8FF01203A2AB42AA43A9441203
:100BC500033FC39546E5F0954550077F017E00023A
:100BD5001116AB42AA43A94412033FD39546E5F04B
:100BE500954540077F017E000210717F01120C9D23
:010BF50022DD
:100ED60078607C007D007BFF7A0D79D47E007F14DC
:100EE6001202ABE4FBFA7D411210B5EB25E024605B
:100EF600F8760008A6070BBB00010AEB640A4A70E5
:0A0F0600E57B007A0079601203FC1D
:010F100022BE
:100C46008B278A2889298C2A8D2B120ED6AB27AAA8
:100C560028A929EE8FF01203A2AB27AA28A92912E8
:100C6600033FC3952BE5F0952A50077F017E0002CE
:100C76001071AB27AA28A92912033FD3952BE5F0BB
:0F0C8600952A7F017E004003021116121093225F
:0408DD008E368F378D
:1008E100753800753935753A00753B35D3E53B955B
:1008F10037E53A953650030209AFD3E5399537E527
:1009010038953650030209AF120E9B8E388F397D10
:10091100C87C007F147E00120CA3120E9B8E3A8FAE
:100921003B1210F7C3EF9402EE64809480503B12A7
:100931000E9B8E388F39D3E53B9537E53A95364096
:100941006DD3E5399537E538953640621210F8D305
:10095100EF9408EE648094804001227B007A007954
:100961003AAD39AC38120BA580CC1210F7C3EF9415
:1009710002EE6480948050030208EDD3E53B953785
:10098100E53A953650030208EDD3E53B9539E53A52
:1009910095384006120D690208EDC3E53B9539E52E
:0E09A1003A953840030208ED120D250208EDCC
:0109AF002225
:0406FA008E218F229C
:1006FE00752300752435752500752635D3E52695A9
:10070E0022E525952150030207EFD3E5249522E536
:10071E0023952150030207EF120ED68E238F247DD0
:10072E00C87C007F147E00120CA3120ED68E258F6D
:10073E0026C3E5269524FFE5259523FE121102C357
:10074E00EF9402EE648094805048120ED68E238F62
:10075E0024D3E5269522E525952150030207EFD3F4
:10076E00E5249522E52395214077E5269524FFE59E
:10077E00259523FE121102D3EF9407EE6480948028
:10078E004001227B007A007925AD24AC23120C4661
:10079E0080BFC3E5269524FFE5259523FE121102A1
:1007AE00C3EF9402EE64809480500302070AD3E5EF
:1007BE00269522E5259521500302070AD3E52695B5
:1007CE0024E52595234006120D2502070AC3E526CA
:1007DE009524E5259523400302070A120D690207A9
:0107EE000A00
:0107EF0022E7
:0807F0008E178F188C198D1A69
:1007F800751B00751C35751D00751E35D3E51E95D6
:1008080018E51D951750030208DC120BF6D3EF9577
:100818001AE5196480F8EE648098500122120E9B44
:100828008E1B8F1C7DC87C007F147E00120CA312C7
:100838000E9B8E1D8F1EC3E51E951CFFE51D951B87
:10084800FE121102C3EF9402EE64809480503212BB
:100858000E9B8E1B8F1CD3E51E9518E51D95174022
:10086800737B007A00791DAD1CAC1B120BA5120B13
:10087800F6D3EF951AE5196480F8EE64809850D69F
:1008880022C3E51E951CFFE51D951BFE121102C330
:10089800EF9402EE648094805003020804D3E51EAE
:1008A8009518E51D95175003020804D3E51E951CFD
:1008B800E51D951B40087F02120D6B020804C3E575
:1008C8001E951CE51D951B40030208047F02120DAE
:0408D80027020804E7
:0108DC0022F9
:0805FE008E2E8F2F8C308D3101
:10060600753200753335753400753535D3E5359556
:100616002FE534952E50030206F9120BF6D3EF950B
:1006260031E5306480F8EE648098500122120ED6CF
:100636008E328F337DC87C007F147E00120CA3128D
:100646000ED68E348F35C3E5359533FFE5349532B6
:10065600FE121102C3EF9402EE64809480503512AC
:100666000ED68E328F33D3E535952FE534952E5041
:10067600030206F97B007A007934AD33AC32120CF2
:1006860046120BF6D3EF9531E5306480F8EE6480C0
:100696009850D322C3E5359533FFE5349532FE12E3
:1006A6001102C3EF9402EE64809480500302061296
:1006B600D3E535952FE534952E5003020612D3E582
:1006C600359533E5349532400E7DC87C007F027E39
:1006D60000120D2D020612C3E5359533E534953229
:1006E60040030206127DC87C007F027E00120D7157
:0306F600020612E7
:0106F90022DE
:0912B200121242120C95021133D4
:0912BB001211A0120C950211336E
:10104D008E5C8F5D120BF6D3EF955DE55C6480F8D9
:10105D00EE648098400D7DC87C007F027E00120CEE
:04106D00A380E12259
:1010D7008E5E8F5F120BF6D3EF955FE55E6480F847
:1010E700EE64809840097F027E0012109380E5220B
:040B4A008E3C8F3D11
:100B4E00120ED68E3E8F3F7DC87C00AF3DAE3C125E
:100B5E000CA3120ED68E408F41C3E541953FFFE5A3
:100B6E0040953EFE121102C3EF9402EE6480948013
:100B7E004024D3E541953FE540953E400B7DC87C32
:100B8E00007F017E00020D2DC3E541953FE54095A6
:060B9E003E5003120D6938
:010BA400222E
:040AEB007F1E7E00EC
:040AEF008E218F22A3
:100AF300120E9B8E238F247DC87C00AF22AE211261
:100B03000CA3120E9B8E258F26C3E5269524FFE5A5
:100B1300259523FE121102C3EF9402EE64809480A4
:100B23004024D3E5269524E5259523400B7DC87CF9
:100B3300007F017E00020D71C3E5269524E525950E
:060B4300235003120D25F2
:010B49002289
:100FAF00120E9BC3EF942DEE9400400C120ED6C37D
:100FBF00EF942DEE940050147DC87C007F017E00CD
:0D0FCF00120CA37F027E0012109380D4222A
:100CDE00120AEB120AEB120AEB120AEB7F2E7E00BF
:100CEE001206FA1211A0121133121133120FAF1293
:100CFE000AEB120AEB7F147E00120AEF7DC87C000D
:100D0E007F257E00120D717DC87C007F6E7E0012E5
:070D1E000CA31212A780FBD9
:10001600EC4D6011E8497017ED33EC3304600DE4E4
:10002600FCFFFEFD22E933E8330470F80201C61234
:10003600019158046009E4CC248150062850090235
:1000460001D02840030201CDC0E0EB4A7044B980DC
:1000560006D0E0FB0201BCEF4E701CBD8008EBFF32
:10006600EAFEE9FD80EBE98DF0A4FEE5F00200FF73
:10007600E9CDF9EAFEEBFFEF89F0A4FCE5F0CE89C5
:10008600F0A42EFFE435F0CD89F0A42DFEE435F082
:100096008067EF4E7005BD80D780C3EF8BF0A4ACB0
:1000A600F0EE8BF0A42CFCE435F0F8EF8AF0A42CEB
:1000B600E5F038FCE433CB8DF0A42CFCE5F03BF8FE
:1000C600EE8AF0A42CFCE5F038F8E433CF89F0A4EE
:1000D6002CFCE5F038CF3400CE89F0A42FFFE5F0F4
:1000E6003EFEE433C98DF0A42EFEE5F039CD8AF04C
:1000F600A42FFFE5F03EFEE43DFD33D0E0FB5007C4
:100106000BBB000F0201D0EC2CFCEF33FFEE33FEED
:06011600ED33FD0201A81B
:10011C0075F020800E75F010800575F0087D007E5E
:10012C00007F003392D530D5031203EEEC33401030
:10013C00EF33FFEE33FEED33FDEC33FCD5F0ED2267
:0E014C00E5F0247EA2D513CC92E7CDCEFF22A3
:10015A00EDD2E7CD33EC3392D524814006E4FFFE9D
:10016A00FDFC22FCE4CFCECDCC24E0501174FF80FC
:10017A00EDC3CC13CCCD13CDCE13CECF13CF047099
:07018A00F030D5DE0203EEA8
:10019100E9D2E7C933E833F892D5EDD2E7CD33ECB4
:0701A10033FC5002B2D5222D
:1001A800EC30E7100FBF000C0EBE00080DBD0004B8
:1001B8000BEB6014A2D5EB13FCED92E7FD2274FF64
:1001C800FCFDFEFF22E480F8A2D574FF13FC7D80BD
:0301D800E480EFD1
:1001DB00E709F608DFFA8046E709F208DFFA803E06
:1001EB0088828C83E709F0A3DFFA8032E309F608F3
:1001FB00DFFA8078E309F208DFFA807088828C835B
:10020B00E309F0A3DFFA806489828A83E0A3F6080E
:10021B00DFFA805889828A83E0A3F208DFFA804CE8
:10022B0080D280FA80C680D4806980F280338010BF
:10023B0080A680EA809A80A880DA80E280CA803328
:10024B0089828A83ECFAE493A3C8C582C8CCC583A0
:10025B00CCF0A3C8C582C8CCC583CCDFE9DEE78070
:10026B000D89828A83E493A3F608DFF9ECFAA9F0EF
:10027B00EDFB2289828A83ECFAE0A3C8C582C8CC45
:10028B00C583CCF0A3C8C582C8CCC583CCDFEADE5E
:10029B00E880DB89828A83E493A3F208DFF980CCC0
:1002AB0088F0EF60010E4E60C388F0ED2402B404B9
:1002BB000050B9F582EB2402B4040050AF23234560
:0602CB00822390022B7358
:1002D100BB010689828A83E0225002E722BBFE022B
:0902E100E32289828A83E493225E
:1002EA00BC000BBE0029EF8DF084FFADF022E4CCF8
:1002FA00F875F008EF2FFFEE33FEEC33FCEE9DECC1
:10030A00984005FCEE9DFE0FD5F0E9E4CEFD22ED06
:10031A00F8F5F0EE8420D21CFEADF075F008EF2F50
:10032A00FFED33FD4007985006D5F0F222C398FD41
:05033A000FD5F0EA22DE
:10033F00BB010A89828A83E0F5F0A3E02250068789
:10034F00F009E71922BBFE07E3F5F009E31922894B
:0B035F00828A83E493F5F0740193227E
:10036A00BB0110E58229F582E5833AF583E0F5F0D1
:10037A00A3E0225009E92582F886F008E622BBFEAE
:10038A000AE92582F8E2F5F008E222E5832AF583F4
:08039A00E993F5F0A3E99322B9
:1003A200BB010A89828A83F0E5F0A3F0225006F7A6
:0F03B20009A7F01922BBFE06F3E5F009F31922A3
:1003C100F8BB0111E58229F582E5833AF583E8F06E
:1003D100E5F0A3F0225009E92582C8F608A6F0222B
:0D03E100BBFE09E92582C8F2E5F008F22212
:0E03EE00C3E49FFFE49EFEE49DFDE49CFC2220
:00000001FF
