:0300000002096B87
:0C096B00787FE4F6D8FD758111020800C9
:10094900D2937FA47E0612095AC293D2927FDC7E8B
:010959000598
:10095A007C007D0A1208BEEF1F70011E144E70F74C
:01096A00226A
:10091300D2937FA47E0612095AC293D2927F147E89
:0A0923000512095AC2927F197E00E6
:10092D00AB07AA060BBB00010AEB1B70011A144A98
:0C093D0060097F847E0312095A80EE22BC
:10080000E4F508F5091209130509E5097002050860
:10081000C39464E508940040ECE4F50AF50BD29328
:10082000120956C293D2927F147E0512095AC292BF
:100830007F0A7E0012092D050BE50B7002050AC325
:100840009464E50A940040D6E4F50CF50D12091302
:10085000050DE50D7002050CC39464E50C94004091
:10086000ECE4F50EF50F120949C2927F0A7E0012E0
:10087000092D050FE50F7002050EC39464E50E9473
:100880000040E3E4F510F5111209130511E51170AC
:10089000020510C39464E510940040ECE4F583F580
:1008A00082C3E5829464E583940040030208001249
:0E08B0000949C2927F0A7E0012092DA380E33F
:1008BE00BC000BBE0029EF8DF084FFADF022E4CC1E
:1008CE00F875F008EF2FFFEE33FEEC33FCEE9DECE7
:1008DE00984005FCEE9DFE0FD5F0E9E4CEFD22ED2D
:1008EE00F8F5F0EE8420D21CFEADF075F008EF2F77
:1008FE00FFED33FD4007985006D5F0F222C398FD68
:05090E000FD5F0EA2204
:00000001FF
