:0300000002048D6A
:0C048D00787FE4F6D8FD75811902043573
:0B04A4004C203D20006D6D2E0D0A0065
:10044C00758920758DFD758BFD7598505387EFD28E
:05045C008EE4F5A8226A
:030499002430FF0D
:08049C008F993099FDC29922ED
:10039200AE07EE54F0D39490EEC44006540F2437C7
:1003A2008004540F2430FF12049CEE540FFFD394A8
:1003B200094005EF24378005EE540F2430FF120464
:0203C2009C227B
:10031500AD07AC06EC54F0FED3E49400EE9490ECFB
:10032500C44006540F24378004540F2430FF1204B0
:100335009CEC540FFED3E49400EE9409EC540F406A
:1003450004243780022430FF12049CED54F0D3942A
:1003550090E49400ECC4F854F0C8400BEDC4540F7D
:1003650048540F24378009EDC4540F48540F2430E6
:10037500FF12049CED540FD39409E49400ED540F3F
:0D0385004004243780022430FF12049C2223
:10041E00EF120499ED120499EB2430FF12049CE5BF
:07042E00192430FF02049CB9
:1003C4008B168A178918AB16AA17A9181201DB60B5
:1003D400130518E5187002051714F91201DBFF1252
:0403E400049C80E213
:0103E80022F2
:0E0472005389F0438901E4F58CF58AD2A92262
:05000300D28AD2AA22FE
:100461007C007D0A1201F4EF1F70011E144E70F71B
:010471002268
:1003E900AB07AA060BBB00010AEB1B70011A144AE2
:0C03F90060097F847E0312046180EE2204
:0C048000E4FFE4FE0EBE21FC0FBF0AF6F4
:01048C00224D
:04040500AD07AC068D
:10040900E4FBFAC3EB9DEA9C500A1204800BBB0083
:04041900010A80EF65
:01041D0022BC
:03001300020008E0
:03000800C28B3276
:03000B0002000EE2
:03000E00C28D326E
:10025700E4F58CF58AD2B20000000000000000002F
:10026700000000000000C2B230B3FDD28C20B3FD05
:10027700C28C858C14858A15E514FE7C00E425154F
:10028700F50FEC3EF50EFCAD0FE41201217B7B7AF6
:1002970014792E783E12001612015A8E108F117C97
:1002A700007D0A1201F48D08AE10AF117C007D0AA3
:1002B7001201F48E128F137C007D0A1201F48D094E
:1002C700AE12AF137C007D0A1201F48E128F137CDD
:1002D700007D0A1201F48D0AAE12AF137C007D0A6D
:1002E7001201F48E128F137C007D0A1201F48D0B1C
:1002F7007BFF7A0479A41203C4850819AB09AD0AF8
:0E030700AF0B12041E7BFF7A0479A90203C417
:1004350012044C120472120003C2B21202577FF466
:070445007E0112040580F4A2
:10001600EC4D6011E8497017ED33EC3304600DE4E4
:10002600FCFFFEFD22E933E8330470F80201C61234
:10003600019158046009E4CC248150062850090235
:1000460001D02840030201CDC0E0EB4A7044B980DC
:1000560006D0E0FB0201BCEF4E701CBD8008EBFF32
:10006600EAFEE9FD80EBE98DF0A4FEE5F00200FF73
:10007600E9CDF9EAFEEBFFEF89F0A4FCE5F0CE89C5
:10008600F0A42EFFE435F0CD89F0A42DFEE435F082
:100096008067EF4E7005BD80D780C3EF8BF0A4ACB0
:1000A600F0EE8BF0A42CFCE435F0F8EF8AF0A42CEB
:1000B600E5F038FCE433CB8DF0A42CFCE5F03BF8FE
:1000C600EE8AF0A42CFCE5F038F8E433CF89F0A4EE
:1000D6002CFCE5F038CF3400CE89F0A42FFFE5F0F4
:1000E6003EFEE433C98DF0A42EFEE5F039CD8AF04C
:1000F600A42FFFE5F03EFEE43DFD33D0E0FB5007C4
:100106000BBB000F0201D0EC2CFCEF33FFEE33FEED
:06011600ED33FD0201A81B
:10011C0075F020800E75F010800575F0087D007E5E
:10012C00007F003392D530D503120249EC334010D6
:10013C00EF33FFEE33FEED33FDEC33FCD5F0ED2267
:0E014C00E5F0247EA2D513CC92E7CDCEFF22A3
:10015A00EDD2E7CD33EC3392D524814006E4FFFE9D
:10016A00FDFC22FCE4CFCECDCC24E0501174FF80FC
:10017A00EDC3CC13CCCD13CDCE13CECF13CF047099
:07018A00F030D5DE0202494E
:10019100E9D2E7C933E833F892D5EDD2E7CD33ECB4
:0701A10033FC5002B2D5222D
:1001A800EC30E7100FBF000C0EBE00080DBD0004B8
:1001B8000BEB6014A2D5EB13FCED92E7FD2274FF64
:1001C800FCFDFEFF22E480F8A2D574FF13FC7D80BD
:0301D800E480EFD1
:1001DB00BB010689828A83E0225002E722BBFE0222
:0901EB00E32289828A83E4932255
:1001F400BC000BBE0029EF8DF084FFADF022E4CCEF
:10020400F875F008EF2FFFEE33FEEC33FCEE9DECB7
:10021400984005FCEE9DFE0FD5F0E9E4CEFD22EDFD
:10022400F8F5F0EE8420D21CFEADF075F008EF2F47
:10023400FFED33FD4007985006D5F0F222C398FD38
:050244000FD5F0EA22D5
:0E024900C3E49FFFE49EFEE49DFDE49CFC22C6
:00000001FF
