:03000000020251A8
:0C025100787FE4F6D8FD75814C0202981D
:0A046200C0F9A4B0999282F88090CE
:1004020014090000000000000000000000000000CD
:06041200000000000000E4
:10041900D2A100D2A00000000000C2A1000000008B
:0604290000C2A000002249
:10044300C2A100D2A00000000000D2A10000000061
:010453002286
:1002DD00E4FEEFA806088002C333D8FC30E704D251
:1002ED00A18002C2A100D2A00000000000C2A00E99
:1002FD00BE08DF0000D2A10000D2A000000030A196
:0B030D0004C2008002D200C2A0000069
:0103180022C2
:10037900E4FFD2A1FE00C2A00000000000D2A0004C
:1003890000EF25E0FF30A1010F00000EBE08E6C214
:03039900A00000C1
:01039C00223E
:1003D200200104C2A18002D2A1000000D2A000002C
:0803E200000000C2A00000228F
:0D045400EFD3940040077E7DDEFE1F80F395
:010461002278
:10035100AE07AC031204191202DD200002C322AF62
:10036100051202DD200002C322AF041202DD2000CB
:0803710002C322120443D3224F
:1003B8001204191202DD200002C322AF051202DD69
:0A03C800200002C322120443D322D6
:10039D00120419EF04FF1202DD2000037F00221268
:0A03AD000379D2011203D2120443B7
:0103B7002223
:1003EA00D2AFD2ACD2AB758920E4F5877598507537
:0803FA008DFD758BFDD28E22F2
:08046C008F993099FDC299221D
:10000300E4F51DF51EE4F549F54AC37409951EFF91
:10001300E4951DFEC3E54A9FE5499E40030200A8FF
:10002300E54A2401FFE43549FEEF25E0FFEE338F77
:1000330082F5831201ECFDACF0E54A25E0FFE549CA
:10004300338F82F5831201ECFFAEF0D39DEE9C401B
:10005300498E4B8F4CE54A2401FFE43549FEEF25D9
:10006300E0FFEE338F82F5831201ECFDE54A25E0D4
:10007300FFE549338F82F583E5F08DF0120224E525
:100083004A2401FFE43549FEEF25E0FFEE338F827A
:10009300F583E54B854CF0120224054AE54A7002CC
:1000A300054902000D051EE51E7002051D64094584
:1000B3001D60030200081201C1F53685F035752174
:1000C30000752201E4F549F54AF51DF51EE51E24E8
:1000D30001FFE4351DFEEF25E0FFEE338F82F5834C
:1000E3001201ECFDACF0E51E25E0FFE51D338F8228
:1000F300F5831201EC6D7003EC65F06037054AE59A
:100103004A70020549FD25E02421F87600087601AE
:10011300E51E2401FFE4351DFEEF25E0FFEE338FDE
:1001230082F5831201ECFFED25E02435F8A6F008F3
:10013300A607800EE54A25E02421F80806E6187094
:100143000106051EE51E7002051D6409451D6003B9
:100153000200D0E4F51DF51ED3E51E954AE51D9575
:1001630049505AE4F54BF54CD3E51E954AE51D95E8
:10017300495040E54C25E02421F8E6FE08E6FFADB2
:100183001EED25E02421F8E6FA08E6C39FEA9E5017
:10019300028020E54CB54A11E54BB5490CED25E04D
:1001A3002435F8E6FE08E6FF22054CE54C70B90558
:0D01B3004B80B5051EE51E709F051D809B4D
:0101C000221C
:10031900E4F51DF51E7D407F901203B87F9012030E
:100329009DE51E25E02409F8760008A607051EE5C7
:100339001E7002051DC3940AE51D940040D77B0079
:080349007A0079091200032279
:10042F001203EA120319AD07AC0612046C7FFF1218
:04043F00046C80EFDA
:10025D0002042FE493A3F8E493A34003F68001F284
:10026D0008DFF48029E493A3F85407240CC8C333A2
:10027D00C4540F4420C8834004F456800146F6DF71
:10028D00E4800B0102040810204080900402E47EFB
:10029D00019360BCA3FF543F30E509541FFEE49366
:1002AD00A360010ECF54C025E060A840B8E493A32D
:1002BD00FAE493A3F8E493A3C8C582C8CAC583CA58
:1002CD00F0A3C8C582C8CAC583CADFE9DEE780BE10
:0104180000E3
:1001C100BB010A89828A83E0F5F0A3E02250068709
:1001D100F009E71922BBFE07E3F5F009E3192289CB
:0B01E100828A83E493F5F074019322FE
:1001EC00BB0110E58229F582E5833AF583E0F5F051
:1001FC00A3E0225009E92582F886F008E622BBFE2E
:10020C000AE92582F8E2F5F008E222E5832AF58373
:08021C00E993F5F0A3E9932238
:10022400F8BB0111E58229F582E5833AF583E8F00C
:10023400E5F0A3F0225009E92582C8F608A6F022C9
:0D024400BBFE09E92582C8F2E5F008F222B0
:00000001FF
