:03000000020206F3
:0C020600787FE4F6D8FD75811B0201D062
:0601EF00D2937FA47E06FE
:1001F5007C007D0A120003EF1F70011E144E70F77C
:0102050022D6
:0C01A8003405FE1201F5C2927F147E00A7
:1001B400AB07AA060BBB00010AEB1B70011A144A19
:0C01C40060097F847E031201F580EE22AA
:080099008E088F098C0A8D0B03
:1000A100900001D3E5829509E5086480F8E5836451
:1000B10080985023D293E50B24DCFFE50A3405FE3A
:1000C1001201F5C293D292C374EB950BFF7405959F
:0700D1000A1201AAA380CC72
:0100D8002205
:080058008E0C8F0D8C0E8D0F34
:10006000900001D3E582950DE50C6480F8E583648A
:1000700080985024D293C374EB950FFF7405950EAE
:10008000FE1201F5C293D292C374DC950FFF740582
:08009000950E1201AAA380CB1A
:010098002245
:080117008E148F158C168D1754
:10011F00900001D3E5829515E5146480F8E58364BA
:10012F0080985020D293E51724DCFFE5163405FEA6
:10013F001201F5C293D292E51724CDFFE5161201F5
:04014F00A8A380CF12
:010153002289
:0800D9008E108F118C128D13A3
:1000E100900001D3E5829511E5106480F8E5836401
:1000F10080985021D293C374EB9513FF7405951228
:10010100FE1201F5C293D292E51324DCFFE512122F
:0501110001A8A380CE4F
:0101160022C6
:040154008E188F1959
:10015800900001D3E5829519E5186480F8E5836479
:10016800809850111201EFC293D2927F1E7E051221
:0501780001ABA380DED5
:01017D00225F
:04017E008E1A8F1B2B
:10018200900001D3E582951BE51A6480F8E583644B
:10019200809850111201EFC293D2927F417E0512D4
:0501A20001ABA380DEAB
:0101A7002235
:0B021200C293C2927F147E000201B470
:1001D000D290D280D28120801220810FC2907DC81F
:0F01E0007C007F197E0012011780EBD29080E720
:10000300BC000BBE0029EF8DF084FFADF022E4CCE1
:10001300F875F008EF2FFFEE33FEEC33FCEE9DECAA
:10002300984005FCEE9DFE0FD5F0E9E4CEFD22EDF0
:10003300F8F5F0EE8420D21CFEADF075F008EF2F3A
:10004300FFED33FD4007985006D5F0F222C398FD2B
:050053000FD5F0EA22C8
:00000001FF
