:03000000021B6F71
:0C1B6F00787FE4F6D8FD7581A00219AC67
:100D95004C203D20006D6D2E0D0A00C0F9A4B099C0
:100DA5009282F88090000000000000000000000022
:100DB500000000000000000000000000000000002E
:100DC50000000000000000000000000000007F009F
:100DD500000000000000000000000000000000000E
:100DE50000000000000000000000000000000000FE
:100DF50000000000000000000000000000000000EE
:100E050000000000000000000000000000000000DD
:100E150000000000000000000000000000000000CD
:100E250000000000000000000000000000000000BD
:010E350000BC
:101AF800758920758DFD758BFD7598505387EFD2CC
:051B08008EE4F5A822A7
:031B7B002430FF14
:081B7E008F993099FDC29922F4
:10160100AE07EE54F0D39490EEC44006540F243745
:101611008004540F2430FF121B7EEE540FFFD3942D
:10162100094005EF24378005EE540F2430FF121BCB
:021631007E2217
:10106100AD07AC06EC54F0FED3E49400EE9490ECA2
:10107100C44006540F24378004540F2430FF121B40
:101081007EEC540FFED3E49400EE9409EC540F402F
:1010910004243780022430FF121B7EED54F0D394D8
:1010A10090E49400ECC4F854F0C8400BEDC4540F24
:1010B10048540F24378009EDC4540F48540F24308D
:1010C100FF121B7EED540FD39409E49400ED540FED
:0D10D1004004243780022430FF121B7E22D1
:101A4400EF121B7BED121B7BEB2430FF121B7EE598
:071A54001E2430FF021B7E7F
:1017A2008B368A378938AB36AA37A9381202D1600C
:1017B200130538E5387002053714F91202D1FF1209
:0417C2001B7E80E228
:0117C6002200
:0E1B46005389F0438901E4F58CF58AD2A92277
:05000300D28AD2AA22FE
:0C1B6200E4FFE4FE0EBE21FC0FBF0AF6FB
:011B6E002254
:0419E200AD07AC069B
:1019E600E4FBFAC3EB9DEA9C500A121B620BBB0098
:0419F600010A80EF73
:0119FA0022CA
:03001300020008E0
:03000800C28B3276
:03000B0002000EE2
:03000E00C28D326E
:10118700E4F58CF58AD2B2000000000000000000F0
:10119700000000000000C2B230B3FDD28C20B3FDC6
:1011A700C28C858C2E858A2FE52EFE7C00E4252FA8
:1011B700F529EC3EF528FCAD29E41201217B7B7A69
:1011C70014792E783E12001612015A8E2A8F2B227E
:100CD700E4F58CF58AD2B2000000000000000000A5
:100CE700000000000000C2B230B3FDD28C20B3FD7B
:100CF700C28C858C2E858A2FE52EFE7C00E4252F5D
:100D0700F529EC3EF528FCAD29E41201217B7B7A1D
:100D170014792E783E12001612015A8E2A8F2B7CD8
:100D2700007D0A1202EA8D21AE2AAF2B7C007D0AD4
:100D37001202EA8E2C8F2D7C007D0A1202EA8D2288
:100D4700AE2CAF2D7C007D0A1202EA8E2C8F2D7CF3
:100D5700007D0A1202EA8D23AE2CAF2D7C007D0A9E
:100D67001202EA8E2C8F2D7C007D0A1202EA8D2456
:100D77007BFF7A0D79951217A285211EAB22AD2331
:0E0D8700AF24121A447BFF7A0D799A0217A24C
:061A5B00D2937FA47E0679
:101A61007C007D0A1202EAEF1F70011E144E70F70E
:011A71002252
:101633007E06121A61C293D2927F147E05121A613A
:06164300C2927F147E003C
:10164900AB07AA060BBB00010AEB1B70011A144A6F
:0C16590060097F847E03121A6180EE227B
:081424007F0F7DC87C007E00F3
:08142C008E178F188C198D1A20
:10143400900001D3E5829518E58395175024D29343
:10144400E51A24DCFFE5193405FE121A61C293D2B1
:1014540092C374E6951AFF74059519FE121640A3FB
:0214640080D135
:011466002263
:08139C007F017DC87C007E008A
:0813A4008E128F138C148D15BD
:1013AC00900001D3E5829513E58395125025D293D5
:1013BC00C374EB9515FF74059514FE121A61C29354
:1013CC00D292C374DC9515FF74059514FE12164069
:0313DC00A380D01B
:0113DF0022EB
:1012C1007FA07E0F121649D2907F0B7DC87C007ED5
:0112D100001C
:0812D2008E128F138C148D1590
:1012DA00900001D3E5829513E58395125023D293AA
:1012EA00E51524DCFFE5143405FE121A61C293D217
:1012FA0092E51524CDFFE5143405FE121640A380AD
:01130A00D210
:01130B0022BF
:061467007DC87C007E0040
:08146D008E0C8F0D8C0E8D0F0B
:10147500900001D3E582950DE583950C5024D29318
:10148500C374E6950FFF7405950EFE121A61C2939B
:10149500D292E50F24DCFFE50E3405FE121640A3BB
:0214A50080D1F4
:0114A7002222
:041938008E178F185F
:10193C00900001D3E5829518E5839517500AD29350
:08194C007FA4121633A380EB07
:011954002270
:041955008E178F1842
:10195900900001D3E5829518E5839517500AD29333
:081969007FC2121633A380EBCC
:011971002253
:04180F008E178F1889
:10181300900001D3E5829518E5839517500F121AAE
:0D1823005BC293D2927F4412163EA380E672
:011830002295
:0B1B8600C293C2927F147E0002164939
:10197200D2937FDC7E05121A61C293D2927FDC7E03
:0D19820005121A61C2927F147E0002164900
:041831008E0E8F0F79
:10183500900001D3E582950FE583950E500F121A9E
:0D1845005BC293D2927F1E12163EA380E676
:011852002273
:04198F008E398F3AC4
:10199300900001D3E582953AE5839539500AD293B5
:0819A3007FCC121633A380EB88
:0119AB002219
:0B1357001216497D327C007F287E00CA
:081362008E0C8F0D8C0E8D0F17
:10136A00900001D3E582950DE583950C5023D29325
:10137A00E50F24DCFFE50E3405FE121A61C293D292
:10138A0092E50F24F5FFE50E3405FE121640A38000
:01139A00D280
:01139B00222F
:10127400C2907FA07E0F1216497D467C007F1E7EA1
:011284000069
:081285008E0A8F0B8C0C8D0DFD
:10128D00900001D3E582950BE583950A5025D29305
:10129D00C374E6950DFF7405950CFE121A61C29389
:1012AD00D292C374E1950DFF7405950CFE12164094
:0312BD00A380D03B
:0112C000220B
:101B0D00900001D2937F40121633A3E5826469459C
:031B1D008370F0E2
:011B200022A2
:1019FB00900001121A5BC293D2927F8712163EA3FC
:081A0B00E582647E458370EB67
:011A130022B0
:101AA000D2A100D2A00000000000C2A100000000EE
:061AB00000C2A0000022AC
:101B3500C2A100D2A00000000000D2A10000000058
:011B4500227D
:1014A800E4FEEFA806088002C333D8FC30E704D274
:1014B800A18002C2A100D2A00000000000C2A00EBC
:1014C800BE08DF0000D2A10000D2A000000030A1B9
:0B14D80004C2008002D200C2A000008D
:0114E30022E6
:1017C700E4FFD2A1FE00C2A00000000000D2A000EA
:1017D70000EF25E0FF30A1010F00000EBE08E6C2B2
:0317E700A000005F
:0117EA0022DC
:101A1400200104C2A18002D2A1000000D2A00000D3
:081A2400000000C2A000002236
:0D1B5400EFD3940040077E7DDEFE1F80F37E
:011B61002261
:10175400AE07AC03121AA01214A8200002C322AFD1
:10176400051214A8200002C322AF041214A82000FA
:0817740002C322121B35D3222F
:1019C800121AA01214A8200002C322AF051214A8EC
:0A19D800200002C322121B35D322A7
:071853007F901219C87F907D
:10185A00121AA0EF04FF1214A82000037F0022121C
:0A186A0017C7D201121A14121B3521
:011874002251
:101A2C00D2AFD2ACD2AB758920E4F58775985075DE
:081A3C008DFD758BFDD28E2299
:1003FC00E47879F608F6E4787BF608F6C3740978A5
:10040C007A96FFE41896FE787BE6FC08E6FDC39F1F
:10041C00EC9E40030204BFED2401FFE43CFEEF25FB
:10042C00E0FFEE338F82F58312036AFDACF0787C2B
:10043C00E625E0FF18E6338F82F58312036AD39D1D
:10044C00E5F09C4063787BE6FC08E6FD25E0FFECDC
:10045C00338F82F58312036A787DA6F008F6ED24BB
:10046C0001FFE43CFEEF25E0FFEE338F82F58312B3
:10047C00036AFD787CE625E0FF18E6338F82F5836E
:10048C00E5F08DF01203C1787DE6FC08E6FD787C82
:10049C00E62401FF18E436FEEF25E0FFEE338F82F1
:1004AC00F583EC8DF01203C1787C06E6187001061A
:1004BC00020408787A06E618700106787AE6640970
:1004CC001846600302040212033F7865A6F008F692
:1004DC0078517600087601E4787BF608F67879F6A0
:1004EC0008F67879E6FE08E6FFC39409EE9400401E
:1004FC0003020584EF2401FFE43EFEEF25E0FFEE4E
:10050C00338F82F58312036AFDACF0787AE625E02E
:10051C00FF18E6338F82F58312036A6D7003EC6566
:10052C00F0603B787C06E618700106787CE6FD25C9
:10053C00E02451F87600087601787AE62401FF1859
:10054C00E436FEEF25E0FFEE338F82F58312036A6B
:10055C00FFED25E02465F8A6F008A607800F787C4F
:10056C00E625E02451F80806E618700106787A06AC
:10057C00E6187001060204EEE47879F608F6D379F1
:10058C007AE7787C9619E718965066E4787DF60839
:10059C00F67879E6FE08E6FFD3787C96EE1896504E
:1005AC0046787DE6FC08E6FD25E02451F8E6FA08DD
:1005BC00E6FBA907E925E02451F8E6FE08E6C39B13
:1005CC00EE9A50028021ED787C667003EC18667010
:1005DC000CE925E02465F8E6FE08E6FF22787E06A5
:1005EC00E61870AD0680AA787A06E6187090068038
:0105FC008D71
:0105FD0022DB
:0B18FB00C3E50F950DFFE50E950CFEF8
:10190600D3EF9400EE64809480400122C3E49FFFED
:04191600E49EFE222B
:1014E400783D7C007D007BFF7A0D79AA7E007F1415
:1014F4001202ABE4FBFA7D40121853EB25E0243DC5
:10150400F8760008A6070BBB00010AEB640A4A70D0
:0A151400E57B007A00793D1203FC2C
:01151E0022AA
:10151F00783D7C007D007BFF7A0D79BE7E007F14C5
:10152F001202ABE4FBFA7D41121853EB25E0243D88
:10153F00F8760008A6070BBB00010AEB640A4A7095
:0A154F00E57B007A00793D1203FCF1
:01155900226F
:101136008B128A1389148C158D161214E4AB12AA1D
:1011460013A914EE8FF01203A2AB12AA13A914125C
:10115600033FC39516E5F0951550077F017E000203
:101166001938AB12AA13A91412033FD39516E5F04A
:10117600951540077F017E0002180F7F0112142685
:011186002246
:1011D7008B128A1389148C158D1612151FAB12AA40
:1011E70013A914EE8FF01203A2AB12AA13A91412BB
:1011F700033FC39516E5F0951550077F017E000262
:10120700180FAB12AA13A91412033FD39516E5F0D2
:0F12170095157F017E00400302193812195522E8
:101A7200121B0D1219721219727DC87C007F3C7EF6
:071A82000012142C0219727E
:101A89001219FB1219721219727DC87C007F327EFD
:071A99000012142C02197267
:1017EB008E0A8F0B121187D3EF950BE50A6480F8E5
:1017FB00EE648098400D7DC87C007F027E00121441
:04180B002C80E1222A
:1018DB008E3B8F3C121187D3EF953CE53B6480F830
:1018EB00EE64809840097F027E0012183180E52259
:10191A008E0A8F0B121187D3EF950BE50A6480F8B4
:0E192A00EE64809850077F0212146780E72257
:040ED6007F147E0007
:040EDA008E0A8F0BE2
:100EDE0012151F8E0C8F0D7DC87C00AF0BAE0A1243
:100EEE00142C12151F8E0E8F0FC3E50F950DFFE5F7
:100EFE000E950CFE121906C3EF9402EE64809480D8
:100F0E00500D7B007A00790EAD0DAC0C1211D7C3CB
:100F1E00E50F950DFFE50E950CFE121906C3EF9425
:100F2E0002EE648094804026D3E50F950DE50E9574
:100F3E000C400B7DC87C007F017E000213A4C3E52C
:0E0F4E000F950DE50E950C50057F011212CC8B
:010F5C002272
:040F5D007F147E007F
:040F61008E0A8F0B5A
:100F65001214E48E0C8F0D7DC87C00AF0BAE0A12F7
:100F7500142C1214E48E0E8F0FC3E50F950DFFE5AB
:100F85000E950CFE121906C3EF9402EE6480948050
:100F9500500D7B007A00790EAD0DAC0C121136C3E5
:100FA500E50F950DFFE50E950CFE121906C3EF949E
:100FB50002EE648094804024D3E50F950DE50E95EF
:100FC5000C400B7DC87C007F017E000212D2C3E578
:0C0FD5000F950DE50E950C500312139CB7
:010FE10022ED
:040FE2008E088F09DD
:100FE6001214E48E0A8F0BAF09AE081218311214D0
:100FF600E48E0C8F0DC3E50D950BFFE50C950AFEEF
:10100600121906C3EF9402EE64809480500D7B00A3
:101016007A00790CAD0BAC0A121136C3E50D950BAF
:10102600FFE50C950AFE121906C3EF9402EE6480E2
:1010360094804026D3E50D950BE50C950A400B7D73
:10104600C87C007F017E000212D2C3E50D950BE538
:0A1056000C950A50057F0212139E4C
:01106000226D
:040C00007F2D7E00C6
:040C04008E0A8F0BBA
:100C0800750C00750D35750E00750F35D3E50F950C
:100C18000BE50E950A5003020CD6D3E50D950BE5AE
:100C28000C950A5003020CD61214E48E0C8F0D1288
:100C380014241214E48E0E8F0F1218FBC3EF9402C3
:100C4800EE64809480503B1214E48E0C8F0DD3E533
:100C58000F950BE50E950A4075D3E50D950BE50C40
:100C6800950A406A1218FCD3EF9408EE64809480C9
:100C78004001227B007A00790EAD0DAC0C121136C2
:100C880080CC1218FBC3EF9402EE6480948050036A
:100C9800020C14D3E50F950BE50E950A5003020CD0
:100CA80014D3E50F950DE50E950C400E7DC87C001C
:100CB8007F017E001212D2020C14C3E50F950DE5D8
:0E0CC8000E950C4003020C1412139C020C1427
:010CD60022FB
:040B07008E0A8F0BB8
:100B0B00750C00750D35750E00750F35D3E50F950A
:100B1B000BE50E950A5003020BFFD3E50D950BE584
:100B2B000C950A5003020BFF12151F8E0C8F0D1222
:100B3B00142412151F8E0E8F0FC3E50F950DFFE5B5
:100B4B000E950CFE121906C3EF9402EE648094808E
:100B5B00504B12151F8E0C8F0DD3E50F950BE50E19
:100B6B00950A5003020BFFD3E50D950BE50C950A87
:100B7B005003020BFFE50F950DFFE50E950CFE12D2
:100B8B001906D3EF9408EE648094804001227B0019
:100B9B007A00790EAD0DAC0C1211D780BCC3E50FEA
:100BAB00950DFFE50E950CFE121906C3EF9402EEA0
:100BBB00648094805003020B17D3E50F950BE50E61
:100BCB00950A5003020B17D3E50F950DE50E950C07
:100BDB00400612139C020B17C3E50F950DE50E95FE
:100BEB000C4003020B177DC87C007F017E001212A4
:040BFB00D2020B1700
:010BFF0022D3
:04070D008E308F316A
:10071100753200753335753400753535D3E535954A
:1007210031E5349530500302080DD3E5339531E5B9
:10073100329530500302080D1214E48E328F337D4E
:10074100C87C007F0A7E0012142C1214E48E348FB0
:1007510035C3E5359533FFE5349532FE121906C3ED
:10076100EF9402EE64809480504B1214E48E328F29
:1007710033D3E5359531E5349530500302080DD377
:10078100E5339531E5329530500302080DE5359595
:1007910033FFE5349532FE121906D3EF9408EE6467
:1007A1008094804001227B007A007934AD33AC32F1
:1007B10012113680BCC3E5359533FFE5349532FE21
:1007C100121906C3EF9402EE64809480500302076D
:1007D1001DD3E5359531E5349530500302071DD31E
:1007E100E5359533E5349532400E7DC87C007F01B7
:1007F1007E001212D202071DC3E5359533E534950B
:0C08010032400302071D12139C02071D69
:01080D0022C8
:04080E008E088F09B8
:10081200750A00750B35750C00750D35D3E50D9510
:1008220009E50C9508500302090ED3E50B9509E57D
:100832000A9508500302090E12151F8E0A8F0B7DAE
:10084200C87C007F0A7E0012142C12151F8E0C8F9A
:100852000DC3E50D950BFFE50C950AFE121906C3B3
:10086200EF9402EE64809480504B12151F8E0A8F13
:100872000BD3E50D9509E50C9508500302090ED33B
:10088200E50B9509E50A9508500302090EE50D9559
:100892000BFFE50C950AFE121906D3EF9408EE64DD
:1008A2008094804001227B007A00790CAD0BAC0A67
:1008B2001211D780BCC3E50D950BFFE50C950AFE1E
:1008C200121906C3EF9402EE64809480500302086A
:1008D2001ED3E50D9509E50C9508500302081ED3B9
:1008E200E50D950BE50C950A400612139C02081EB5
:1008F200C3E50D950BE50C950A400302081E7DC861
:0C0902007C007F017E001212D202081E51
:01090E0022C6
:08090F007D797C007F027E006F
:080917008E0A8F0B8C0C8D0D74
:10091F00750E00750F35751000751135D3E51195EE
:10092F000BE510950A5003020A0A121187D3EF95AF
:10093F000DE50C6480F8EE6480985001221214E4E7
:10094F008E0E8F0F1214241214E48E108F11C3E524
:10095F0011950FFFE510950EFE121906C3EF9402C5
:10096F00EE6480948050351214E48E0E8F0FD3E511
:10097F0011950BE510950A5003020A0A7B007A00C5
:10098F007910AD0FAC0E121136121187D3EF950DF2
:10099F00E50C6480F8EE64809850D322C3E511957E
:1009AF000FFFE510950EFE121906C3EF9402EE64C9
:1009BF00809480500302092BD3E511950BE5109518
:1009CF000A500302092BD3E511950FE510950E4040
:1009DF000E7DC87C007F027E001212D202092BC34B
:1009EF00E511950FE510950E400302092B7DC87C8C
:0B09FF00007F027E001213A402092BEF
:010A0A0022C9
:080A0B007D7F7F027C007E006C
:080A13008E0A8F0B8C0C8D0D77
:100A1B00750E00750F35751000751135D3E51195F1
:100A2B000BE510950A5003020B06121187D3EF95B5
:100A3B000DE50C6480F8EE64809850012212151FAE
:100A4B008E0E8F0F12142412151F8E108F11C3E5EB
:100A5B0011950FFFE510950EFE121906C3EF9402C8
:100A6B00EE64809480503512151F8E0E8F0FD3E5D8
:100A7B0011950BE510950A5003020B067B007A00CB
:100A8B007910AD0FAC0E1211D7121187D3EF950D54
:100A9B00E50C6480F8EE64809850D322C3E5119581
:100AAB000FFFE510950EFE121906C3EF9402EE64CC
:100ABB008094805003020A27D3E511950BE510951E
:100ACB000A5003020A27D3E511950FE510950E4046
:100ADB000E7DC87C007F027E001213A4020A27C37E
:100AEB00E511950FE510950E4003020A277DC87C92
:0B0AFB00007F027E001212D2020A27C8
:010B060022CC
:101875007D097C017F017E001209171219FB7F2F5C
:101885007E00120C04121A897D82120A0D121B8623
:0218950080FBD6
:101226007D5E7C017F017E001209177FA57E00127C
:1012360017EB7DC87C007F247E001213A47F2F7ECF
:1012460000120B077DC87C007F057E0012142C124D
:101256001A727DC87C007F197E0012142C7F2F7EA7
:0E12660000120C047D82120A0D121B8680FB02
:10189700120C00121A727F2D7E00120B077DC87C76
:1018A700007FFA7E0012142C120C007D82120A0DA2
:0218B70080FEB1
:10177C007D097C01120913121A897F2D7E00120B30
:10178C00077DC87C007F0E7E0112142C120C007D8C
:06179C008C120A0D80FE14
:1015CC007F1E7E00120F61120F5D7F0F7E00120FC7
:1015DC00617DC87C007F247E001212D27DC87C0005
:1015EC007F6E7E0012142C7F0F7E00120F617F0F16
:0515FC007E00020F61FA
:101595007F0F7E00120F617F0F7E00120F617F0F9C
:1015A5007E00120FE27F0F7E00120FE27F1E7E008B
:1015B500120F617F1E7E00120F617F2E7E001208C2
:0715C5000E121A890215CC79
:1018B900120C007FA57E001217EB7DC87C007F24E7
:1018C9007E001213A47F2E7E00120B07121A8902C2
:0218D90015CC2C
:10172B00121A897DA57F2D120A0F7DC87C007F219F
:10173B007E001213A4120ED6120ED6120ED67DC830
:09174B007C007F0A7E0002142CD0
:100E3600783D7C007D007BFF7A0D79D27E007F6451
:100E46001202ABE4F50AF50B121187AD0BED25E0A6
:100E5600243FF8A60608A607ED25E0243EF9ED2571
:100E6600E02440F8C3E697FF18E61997FEC3EF940F
:100E76001EEE648094804004C290801C7D3C7C0001
:100E86007F057E001212D2050BE50B7002050AC320
:100E96009431E50A940040B0C2907FE87E031216B2
:100EA6004920801E20811B12135A7FE87E031213ED
:100EB600577FB87E0B1213577F887E13121649D2BE
:0F0EC60090227DC87C007F0A7E001212D2D2904B
:010ED50022FA
:101AB6007D87120A0D120E367DC87C007F247E00BB
:061AC6001212D202187595
:101665007D9B120A0D7DC87C007F217E001213A48C
:10167500120A0B120E367DC87C007F327E001212D4
:10168500D212090F7DC87C007F217E001212D20282
:021695001875C6
:10155A007DC87C007F507E0012142C121274121265
:10156A00761212767FA07E0F121649D2907DC87C21
:10157A00007F0A7E001212D27F551214677DC87C42
:0B158A00007F207E001213A4021875E1
:101B2100120A0B120E367DC87C007F267E0012122F
:041B3100D2021226A4
:1010DE00120ED6120ED67D96120A0D7DC87C007F9A
:1010EE00247E001213A47F7F7E001217EB120E36A1
:1010FE007DC87C007F307E001212D27DC87C007FBE
:10110E00147E0012142C120F5D120F5D7DA07C0058
:10111E007F017E001209177DC87C007F267E00129B
:08112E0012D212139C021226DA
:10130C007D7F7C007F017E00120A13C2907FE87EF5
:10131C000312127A7FD07E0712127A7FD07E0712C8
:10132C00127A7FA07E0F121649D2907DC87C007F66
:10133C00137E001212D27F547E0112191A7DC87CC2
:0B134C00007F247E001213A402122672
:101ACC007D87120A0D120E367DC87C007F247E00A5
:061ADC001212D20218975D
:101697007D9B120A0D7DC87C007F217E001213A45A
:1016A700120A0B120E367DC87C007F327E001212A2
:1016B700D212090F7DC87C007F377E001212D2023A
:0216C700189772
:1016FB007DC87C007F877E0012142C12127412128C
:10170B00761212761212C17DC87C007F967E001273
:10171B00146D7DC87C007F217E001213A4021897E4
:101AE2007D87120A0D120E367DC87C007F247E008F
:061AF2001212D202177C63
:1016C9007D9B120A0D7DC87C007F217E001213A428
:1016D900120A0B120E367DC87C007F327E00121270
:1016E900D212090F7DC87C007F217E001212D2021E
:0216F900177C5C
:1013E0007DC87C007F647E0012142C120F5D120FEA
:1013F0005D120F5D7DC87C007F147E0012142C12DC
:1014000012741212761212761212C17DC87C007FFD
:101410000E7E0112146D7DC87C007F237E001213A6
:04142000A402177C8F
:1005FE0020803020812D7DC87C007F077E00121266
:10060E00D220801120810E7DC87C007F077E0012D3
:10061E0013A4021B217DC87C007F077E001213A449
:10062E000210DE7DC87C007F077E001212D2208071
:10063E00142081117DC87C007F077E001213A41246
:05064E001B210206F370
:100653007DC87C007F077E001213A4E4F508F5092A
:1006630012139C20803B208138C374189509FFE442
:100673009508FE7DC87C001213A47DC87C007F0F03
:100683007E001213A420800B2081081212CA1213B9
:100693000C800E7DC87C007F247E001212D21210C3
:1006A300DE0509E50970020508C39419E5089400FD
:1006B30040AEE4F508F50912139C20802220811F27
:1006C300C374169509FFE49508FE7DC87C001213D8
:1006D300A47DC87C007F0D7E001212D212130C057C
:1006E30009E50970020508C39417E508940040C79B
:1006F3007DC87C007F177E001213A47DC87C007F19
:0A070300017E001212D212197222B8
:1019AC00121B46120003C2B2D290D280D281121501
:0C19BC00951205FE1218B9121B8680FB64
:10001600EC4D6011E8497017ED33EC3304600DE4E4
:10002600FCFFFEFD22E933E8330470F80201C61234
:10003600019158046009E4CC248150062850090235
:1000460001D02840030201CDC0E0EB4A7044B980DC
:1000560006D0E0FB0201BCEF4E701CBD8008EBFF32
:10006600EAFEE9FD80EBE98DF0A4FEE5F00200FF73
:10007600E9CDF9EAFEEBFFEF89F0A4FCE5F0CE89C5
:10008600F0A42EFFE435F0CD89F0A42DFEE435F082
:100096008067EF4E7005BD80D780C3EF8BF0A4ACB0
:1000A600F0EE8BF0A42CFCE435F0F8EF8AF0A42CEB
:1000B600E5F038FCE433CB8DF0A42CFCE5F03BF8FE
:1000C600EE8AF0A42CFCE5F038F8E433CF89F0A4EE
:1000D6002CFCE5F038CF3400CE89F0A42FFFE5F0F4
:1000E6003EFEE433C98DF0A42EFEE5F039CD8AF04C
:1000F600A42FFFE5F03EFEE43DFD33D0E0FB5007C4
:100106000BBB000F0201D0EC2CFCEF33FFEE33FEED
:06011600ED33FD0201A81B
:10011C0075F020800E75F010800575F0087D007E5E
:10012C00007F003392D530D5031203EEEC33401030
:10013C00EF33FFEE33FEED33FDEC33FCD5F0ED2267
:0E014C00E5F0247EA2D513CC92E7CDCEFF22A3
:10015A00EDD2E7CD33EC3392D524814006E4FFFE9D
:10016A00FDFC22FCE4CFCECDCC24E0501174FF80FC
:10017A00EDC3CC13CCCD13CDCE13CECF13CF047099
:07018A00F030D5DE0203EEA8
:10019100E9D2E7C933E833F892D5EDD2E7CD33ECB4
:0701A10033FC5002B2D5222D
:1001A800EC30E7100FBF000C0EBE00080DBD0004B8
:1001B8000BEB6014A2D5EB13FCED92E7FD2274FF64
:1001C800FCFDFEFF22E480F8A2D574FF13FC7D80BD
:0301D800E480EFD1
:1001DB00E709F608DFFA8046E709F208DFFA803E06
:1001EB0088828C83E709F0A3DFFA8032E309F608F3
:1001FB00DFFA8078E309F208DFFA807088828C835B
:10020B00E309F0A3DFFA806489828A83E0A3F6080E
:10021B00DFFA805889828A83E0A3F208DFFA804CE8
:10022B0080D280FA80C680D4806980F280338010BF
:10023B0080A680EA809A80A880DA80E280CA803328
:10024B0089828A83ECFAE493A3C8C582C8CCC583A0
:10025B00CCF0A3C8C582C8CCC583CCDFE9DEE78070
:10026B000D89828A83E493A3F608DFF9ECFAA9F0EF
:10027B00EDFB2289828A83ECFAE0A3C8C582C8CC45
:10028B00C583CCF0A3C8C582C8CCC583CCDFEADE5E
:10029B00E880DB89828A83E493A3F208DFF980CCC0
:1002AB0088F0EF60010E4E60C388F0ED2402B404B9
:1002BB000050B9F582EB2402B4040050AF23234560
:0602CB00822390022B7358
:1002D100BB010689828A83E0225002E722BBFE022B
:0902E100E32289828A83E493225E
:1002EA00BC000BBE0029EF8DF084FFADF022E4CCF8
:1002FA00F875F008EF2FFFEE33FEEC33FCEE9DECC1
:10030A00984005FCEE9DFE0FD5F0E9E4CEFD22ED06
:10031A00F8F5F0EE8420D21CFEADF075F008EF2F50
:10032A00FFED33FD4007985006D5F0F222C398FD41
:05033A000FD5F0EA22DE
:10033F00BB010A89828A83E0F5F0A3E02250068789
:10034F00F009E71922BBFE07E3F5F009E31922894B
:0B035F00828A83E493F5F0740193227E
:10036A00BB0110E58229F582E5833AF583E0F5F0D1
:10037A00A3E0225009E92582F886F008E622BBFEAE
:10038A000AE92582F8E2F5F008E222E5832AF583F4
:08039A00E993F5F0A3E99322B9
:1003A200BB010A89828A83F0E5F0A3F0225006F7A6
:0F03B20009A7F01922BBFE06F3E5F009F31922A3
:1003C100F8BB0111E58229F582E5833AF583E8F06E
:1003D100E5F0A3F0225009E92582C8F608A6F0222B
:0D03E100BBFE09E92582C8F2E5F008F22212
:0E03EE00C3E49FFFE49EFEE49DFDE49CFC2220
:00000001FF
