:03000000020D5C92
:0C0D5C00787FE4F6D8FD7581A2020A033E
:100B6C00C0F9A4B0999282F88090000000000000B7
:100B7C000000000000000000000000000000000069
:100B8C000000000000000000000000000000000059
:020B9C00000057
:100CF300D2A100D2A00000000000C2A100000000A9
:060D030000C2A000002266
:100D1E00C2A100D2A00000000000D2A1000000007D
:010D2E0022A2
:100A8200E4FEEFA806088002C333D8FC30E704D2A4
:100A9200A18002C2A100D2A00000000000C2A00EEC
:100AA200BE08DF0000D2A10000D2A000000030A1E9
:0B0AB20004C2008002D200C2A00000BD
:010ABD002216
:100C4200E4FFD2A1FE00C2A00000000000D2A0007A
:100C520000EF25E0FF30A1010F00000EBE08E6C242
:030C6200A00000EF
:010C6500226C
:100CC300200104C2A18002D2A1000000D2A0000032
:080CD300000000C2A000002295
:0D0D4000EFD3940040077E7DDEFE1F80F3A0
:010D4D002283
:100BF200AE07AC03120CF3120A82200002C322AF2A
:100C020005120A82200002C322AF04120A822000C7
:080C120002C322120D1ED322C1
:100CA900120CF3120A82200002C322AF05120A8233
:0A0CB900200002C322120D1ED322F8
:070C66007F90120CA97F90A2
:100C6D00120CF3EF04FF120A822000037F00221200
:0A0C7D000C42D201120CC3120D1E2E
:010C8700224A
:100CDB00D2AFD2ACD2AB758920E4F587759850753D
:080CEB008DFD758BFDD28E22F8
:080003008F993099FDC299228A
:100D0900758920758DFD758BFD7598505387EFD2C8
:050D19008EE4F5A822A4
:0E0D4E005389F0438901E4F58CF58AD2A9227D
:05000E00D28AD2AA22F3
:03001300020D7368
:030D7300C28B32FE
:03000B00020D766D
:030D7600C28D32F9
:10092E00E4F58CF58AD2B200000000000000000051
:10093E00000000000000C2B230B3FDD28C20B3FD27
:10094E00C28C858C15858A16E515FE7C00E425166D
:10095E00F510EC3EF50FFCAD10E41201217B7B7A15
:10096E0014792E783E12001612015A8E118F122211
:100D2F007C007D0A1202D1EF1F70011E144E70F766
:010D3F002291
:0C0C1A003405FE120D2FC2927F147E00E4
:100C2600AB07AA060BBB00010AEB1B70011A144A9C
:0C0C360060097F847E03120D2F80EE22E7
:0809C1007F147DC87C007E005C
:0809C9008E2C8F2D8C2E8D2F3A
:1009D100900001D3E582952DE583952C5023D29388
:1009E100E52F24DCFFE52E3405FE120D2FC293D234
:1009F10092C374EB952FFF7405952E120C1CA380E6
:010A0100D222
:010A020022D1
:08097E007DC87C007F027E00B1
:080986008E6B8F6C8C6D8D6E81
:10098E00900001D3E582956CE583956B5024D2934C
:10099E00C374EB956EFF7405956DFE120D2FC29309
:1009AE00D292C374DC956EFF7405956D120C1CA368
:0209BE0080D1E6
:0109C0002214
:080A43007DC87C007F027E00EB
:080A4B008E6F8F708C718D72AB
:100A5300900001D3E5829570E583956F5020D29382
:100A6300E57224DCFFE5713405FE120D2FC293D22B
:0E0A730092E57224CDFFE571120C1AA380D516
:010A81002252
:080B34008E738F748C758D76B1
:100B3C00900001D3E5829574E58395735021D2938F
:100B4C00C374EB9576FF74059575FE120D2FC29349
:0F0B5C00D292E57624DCFFE575120C1AA380D443
:010B6B002267
:040B9E008E2C8F2DDD
:100BA200900001D3E582952DE583952C5017D293C1
:100BB2007F907E06120D2FC293D2927F1E7E051267
:050BC2000C1DA380DE04
:010BC700220B
:040BC8008E2C8F2DB3
:100BCC00900001D3E582952DE583952C5017D29397
:100BDC007FA47E06120D2FC293D2927F447E051203
:050BEC000C1DA380DEDA
:010BF10022E1
:0B0D6800C293C2927F147E00020C2692
:1003E300E4F554F555E4F556F557C374099555FFEF
:1003F300E49554FEC3E5579FE5569E4003020488E7
:10040300E5572401FFE43556FEEF25E0FFEE338F79
:1004130082F583120351FDACF0E55725E0FFE55665
:10042300338F82F583120351FFAEF0D39DEE9C40D0
:10043300498E588F59E5572401FFE43556FEEF25C1
:10044300E0FFEE338F82F583120351FDE55725E07C
:10045300FFE556338F82F583E5F08DF01203A8E5AF
:10046300572401FFE43556FEEF25E0FFEE338F827C
:10047300F583E5588559F01203A80557E55770022F
:1004830005560203ED0555E555700205546409450B
:100493005460030203E8120326F54185F040752CEE
:1004A30000752D01E4F556F557F554F555E555243A
:1004B30001FFE43554FEEF25E0FFEE338F82F58331
:1004C300120351FDACF0E55525E0FFE554338F826F
:1004D300F5831203516D7003EC65F060370557E542
:1004E3005770020556FD25E0242CF87600087601A6
:1004F300E5552401FFE43554FEEF25E0FFEE338F8D
:1005030082F583120351FFED25E02440F8A6F0089D
:10051300A607800EE55725E0242CF80806E6187098
:1005230001060555E55570020554640945546003F9
:100533000204B0E4F554F555D3E5559557E55495C4
:1005430056505AE4F558F559D3E5559557E5549562
:10055300565040E55925E0242CF8E6FE08E6FFADA9
:1005630055ED25E0242CF8E6FA08E6C39FEA9E50F1
:10057300028020E559B55711E558B5560CED25E035
:100583002440F8E6FE08E6FF220559E55970B9054F
:0D0593005880B50555E555709F0554809BB7
:0105A0002238
:0D0C8800C379A2E778A096FF19E71896FE41
:100C9500D3EF9400EE64809480400122C3E49FFF6B
:040CA500E49EFE22A9
:100ABE00788B7C007D007BFF7A0B79767E007F142D
:100ACE001202ABE4FBFA7D40120C66EB25E0248BA0
:100ADE00F8760008A6070BBB00010AEB640A4A7001
:0A0AEE00E57B007A00798B1203E328
:010AF80022DB
:1008DD008B278A2889298C2A8D2B120ABEAB27AA31
:1008ED0028A929EE8FF0120389AB27AA28A929126E
:1008FD000326C3952BE5F0952A50077F017E000254
:10090D000B9EAB27AA28A929120326D3952BE5F018
:10091D00952A40077F017E00020BC87F011209C393
:01092D0022A7
:100AF90078777C007D007BFF7A0B798A7E007F14F2
:100B09001202ABE4FBFA7D41120C66EB25E0247777
:100B1900F8760008A6070BBB00010AEB640A4A70C5
:0A0B2900E57B007A0079771203E300
:010B3300229F
:100886008B668A6789688C698D6A120AF9AB66AAD3
:1008960067A968EE8FF0120389AB66AA67A968128A
:1008A6000326C3956AE5F0956950077F017E00022D
:1008B6000BC8AB66AA67A968120326D3956AE5F04A
:1008C600956940077F017E00020B9E7DC87C007FF4
:0708D600017E001209C92296
:0405A1008E178F180A
:1005A500751900751A35751B00751C35D3E51C9535
:1005B50018E51B95175003020672D3E51A9518E541
:1005C5001995175003020672120ABE8E198F1A1258
:1005D50009C1120ABE8E1B8F1CC3E51C951AFFE5C7
:1005E5001B9519FE120C95C3EF9402EE648094805E
:1005F500502C120ABE8E198F1AD3E51C9518E51BCF
:10060500951740A8D3E51A9518E5199517409D7BD0
:10061500007A00791BAD1AAC191208DD80DBC3E541
:100625001C951AFFE51B9519FE120C95C3EF940254
:10063500EE6480948050030205B1D3E51C9518E55E
:100645001B951750030205B1D3E51C951AE51B95BB
:10065500194006120A430205B1C3E51C951AE51BAC
:0D066500951940030205B112097E0205B18E
:010672002265
:040673008E5A8F5BB1
:10067700755C00755D35755E00755F35D3E55F9513
:100687005BE55E955A5003020744D3E55D955BE54C
:100697005C955A5003020744120AF98E5C8F5D126B
:1006A70009C1120AF98E5E8F5FC3E55F955DFFE5AD
:1006B7005E955CFE120C95C3EF9402EE6480948005
:1006C700502C120AF98E5C8F5DD3E55F955BE55E72
:1006D700955A40A8D3E55D955BE55C955A409D7BAF
:1006E700007A00795EAD5DAC5C12088680DBC3E5FD
:1006F7005F955DFFE55E955CFE120C95C3EF940276
:10070700EE648094805003020683D3E55F955BE532
:100717005E955A5003020683D3E55F955DE55E95C6
:100727005C400612097E020683C3E55F955DE55EC0
:0D073700955C4003020683120A430206830C
:010744002292
:040745008E608F61D2
:1007490075640075653512092ED3EF9561EE9560D4
:1007590050030207E8120ABE8E628F631209C112A2
:100769000ABE8E648F65C3E5659563FFE56495628E
:10077900FE120C95C3EF9402EE648094805022120D
:100789000ABE8E628F6312092ED3EF9561EE9560D2
:1007990040B47B007A007964AD63AC621208DD80F5
:1007A900E5C3E5659563FFE5649562FE120C95C3A3
:1007B900EF9402EE64809480408CD3E5659563E5FF
:1007C9006495624006120A4302074FC3E5659563C3
:0F07D900E5649562400302074F12097E02074F45
:0107E80022EE
:0407E9008E1D8F1EB4
:1007ED0078A1760008763512092ED3EF951EEE9579
:1007FD001D5003020885120AF9789FA60608A60760
:10080D001209C1120AF978A1A60608A607120C88CA
:10081D00C3EF9402EE648094805028120AF9789FF9
:10082D00A60608A60712092ED3EF951EEE951D40BC
:10083D00B67B007A0079A1789FE6FC08E6FD1208E8
:10084D008680E2120C88C3EF9402EE64809480409F
:10085D0096D309E7089619E71896400612097E0205
:10086D0007F4C379A2E778A09619E718964003021A
:08087D0007F4120A430207F41C
:010885002250
:100A03007521007522287523007524357525007519
:100A13002635120ABE8E238F24D3E5269522E5259B
:100A23009521401AD3E5249522E5239521400F7B98
:100A3300007A007925AD24AC231208DD80DB80FE2B
:10001600EC4D6011E8497017ED33EC3304600DE4E4
:10002600FCFFFEFD22E933E8330470F80201C61234
:10003600019158046009E4CC248150062850090235
:1000460001D02840030201CDC0E0EB4A7044B980DC
:1000560006D0E0FB0201BCEF4E701CBD8008EBFF32
:10006600EAFEE9FD80EBE98DF0A4FEE5F00200FF73
:10007600E9CDF9EAFEEBFFEF89F0A4FCE5F0CE89C5
:10008600F0A42EFFE435F0CD89F0A42DFEE435F082
:100096008067EF4E7005BD80D780C3EF8BF0A4ACB0
:1000A600F0EE8BF0A42CFCE435F0F8EF8AF0A42CEB
:1000B600E5F038FCE433CB8DF0A42CFCE5F03BF8FE
:1000C600EE8AF0A42CFCE5F038F8E433CF89F0A4EE
:1000D6002CFCE5F038CF3400CE89F0A42FFFE5F0F4
:1000E6003EFEE433C98DF0A42EFEE5F039CD8AF04C
:1000F600A42FFFE5F03EFEE43DFD33D0E0FB5007C4
:100106000BBB000F0201D0EC2CFCEF33FFEE33FEED
:06011600ED33FD0201A81B
:10011C0075F020800E75F010800575F0087D007E5E
:10012C00007F003392D530D5031203D5EC33401049
:10013C00EF33FFEE33FEED33FDEC33FCD5F0ED2267
:0E014C00E5F0247EA2D513CC92E7CDCEFF22A3
:10015A00EDD2E7CD33EC3392D524814006E4FFFE9D
:10016A00FDFC22FCE4CFCECDCC24E0501174FF80FC
:10017A00EDC3CC13CCCD13CDCE13CECF13CF047099
:07018A00F030D5DE0203D5C1
:10019100E9D2E7C933E833F892D5EDD2E7CD33ECB4
:0701A10033FC5002B2D5222D
:1001A800EC30E7100FBF000C0EBE00080DBD0004B8
:1001B8000BEB6014A2D5EB13FCED92E7FD2274FF64
:1001C800FCFDFEFF22E480F8A2D574FF13FC7D80BD
:0301D800E480EFD1
:1001DB00E709F608DFFA8046E709F208DFFA803E06
:1001EB0088828C83E709F0A3DFFA8032E309F608F3
:1001FB00DFFA8078E309F208DFFA807088828C835B
:10020B00E309F0A3DFFA806489828A83E0A3F6080E
:10021B00DFFA805889828A83E0A3F208DFFA804CE8
:10022B0080D280FA80C680D4806980F280338010BF
:10023B0080A680EA809A80A880DA80E280CA803328
:10024B0089828A83ECFAE493A3C8C582C8CCC583A0
:10025B00CCF0A3C8C582C8CCC583CCDFE9DEE78070
:10026B000D89828A83E493A3F608DFF9ECFAA9F0EF
:10027B00EDFB2289828A83ECFAE0A3C8C582C8CC45
:10028B00C583CCF0A3C8C582C8CCC583CCDFEADE5E
:10029B00E880DB89828A83E493A3F208DFF980CCC0
:1002AB0088F0EF60010E4E60C388F0ED2402B404B9
:1002BB000050B9F582EB2402B4040050AF23234560
:0602CB00822390022B7358
:1002D100BC000BBE0029EF8DF084FFADF022E4CC11
:1002E100F875F008EF2FFFEE33FEEC33FCEE9DECDA
:1002F100984005FCEE9DFE0FD5F0E9E4CEFD22ED20
:10030100F8F5F0EE8420D21CFEADF075F008EF2F69
:10031100FFED33FD4007985006D5F0F222C398FD5A
:050321000FD5F0EA22F7
:10032600BB010A89828A83E0F5F0A3E022500687A2
:10033600F009E71922BBFE07E3F5F009E319228964
:0B034600828A83E493F5F07401932297
:10035100BB0110E58229F582E5833AF583E0F5F0EA
:10036100A3E0225009E92582F886F008E622BBFEC7
:100371000AE92582F8E2F5F008E222E5832AF5830D
:08038100E993F5F0A3E99322D2
:10038900BB010A89828A83F0E5F0A3F0225006F7BF
:0F03990009A7F01922BBFE06F3E5F009F31922BC
:1003A800F8BB0111E58229F582E5833AF583E8F087
:1003B800E5F0A3F0225009E92582C8F608A6F02244
:0D03C800BBFE09E92582C8F2E5F008F2222B
:0E03D500C3E49FFFE49EFEE49DFDE49CFC2239
:00000001FF
