:03000000021508DE
:0C150800787FE4F6D8FD758199020AA5F1
:100B54004C203D20006D6D2E0D0A00C0F9A4B09903
:100B64009282F88090000000000000000000000065
:100B74000000000000000000000000000000000071
:100B840000000000000000000000000000009300CE
:100B94000000000000000000000000000000000051
:100BA4000000000000000000000000000000000041
:100BB4000000000000000000000000000000000031
:100BC4000000000000000000000000000000000021
:100BD4000000000000000000000000000000000011
:100BE4000000000000000000000000000000000001
:010BF4000000
:10146100758920758DFD758BFD7598505387EFD269
:051471008EE4F5A82245
:031514002430FF81
:081517008F993099FDC2992261
:10111C00AE07EE54F0D39490EEC44006540F24372F
:10112C008004540F2430FF121517EE540FFFD39484
:10113C00094005EF24378005EE540F2430FF1215BB
:02114C00172268
:100C9500AD07AC06EC54F0FED3E49400EE9490EC72
:100CA500C44006540F24378004540F2430FF121516
:100CB50017EC540FFED3E49400EE9409EC540F4066
:100CC50004243780022430FF121517ED54F0D39415
:100CD50090E49400ECC4F854F0C8400BEDC4540FF4
:100CE50048540F24378009EDC4540F48540F24305D
:100CF500FF121517ED540FD39409E49400ED540F2A
:0D0D05004004243780022430FF121517220D
:10141D00EF121514ED121514EB2430FF121517E50C
:07142D001C2430FF0215171B
:101252008B1D8A1E891FAB1DAA1EA91F1202D160F7
:1012620013051FE51F7002051E14F91202D1FF12A9
:04127200151780E2EA
:011276002255
:0E14C3005389F0438901E4F58CF58AD2A92201
:05000300D28AD2AA22FE
:0C14FB00E4FFE4FE0EBE21FC0FBF0AF669
:0115070022C1
:0413BB00AD07AC06C8
:1013BF00E4FBFAC3EB9DEA9C500A1214FB0BBB0033
:0413CF00010A80EFA0
:0113D30022F7
:03001300020008E0
:03000800C28B3276
:03000B0002000EE2
:03000E00C28D326E
:100DBA00E4F58CF58AD2B2000000000000000000C1
:100DCA00000000000000C2B230B3FDD28C20B3FD97
:100DDA00C28C858C2E858A2FE52EFE7C00E4252F79
:100DEA00F529EC3EF528FCAD29E41201217B7B7A3A
:100DFA0014792E783E12001612015A8E2A8F2B224F
:1009E700E4F58CF58AD2B200000000000000000098
:1009F700000000000000C2B230B3FDD28C20B3FD6E
:100A0700C28C858C2E858A2FE52EFE7C00E4252F4F
:100A1700F529EC3EF528FCAD29E41201217B7B7A10
:100A270014792E783E12001612015A8E2A8F2B7CCB
:100A3700007D0A1202EA8D21AE2AAF2B7C007D0AC7
:100A47001202EA8E2C8F2D7C007D0A1202EA8D227B
:100A5700AE2CAF2D7C007D0A1202EA8E2C8F2D7CE6
:100A6700007D0A1202EA8D23AE2CAF2D7C007D0A91
:100A77001202EA8E2C8F2D7C007D0A1202EA8D2449
:100A87007BFF7A0B795412125285211CAB22AD23BE
:0E0A9700AF2412141D7BFF7A0B795902125204
:06143400D2937FA47E06A6
:10143A007C007D0A1202EAEF1F70011E144E70F73B
:01144A00227F
:10114E007E0612143AC293D2927F147E0512143A7E
:06115E00C2927F147E0026
:10116400AB07AA060BBB00010AEB1B70011A144A59
:0C11740060097F847E0312143A80EE2292
:080F6D007F147DC87C007E00AA
:080F75008E158F168C178D18E4
:100F7D00900001D3E5829516E58395155024D29303
:100F8D00E51824DCFFE5173405FE12143AC293D29E
:100F9D0092C374E69518FF74059517FE12115BA3A5
:020FAD0080D1F1
:010FAF00221F
:080EE5007F017DC87C007E0046
:080EED008E108F118C128D1381
:100EF500900001D3E5829511E58395105025D29395
:100F0500C374EB9513FF74059512FE12143AC29340
:100F1500D292C374DC9513FF74059512FE12115B12
:030F2500A380D0D6
:010F280022A6
:100E0A007FA07E0F121164D2907F0A7DC87C007E7B
:010E1A0000D7
:080E1B008E108F118C128D1353
:100E2300900001D3E5829511E58395105023D29369
:100E3300E51324DCFFE5123405FE12143AC293D203
:100E430092E51324CDFFE5123405FE12115BA38056
:010E5300D2CC
:010E5400227B
:080FB0007DC87C007F557E0026
:080FB8008E088F098C0A8D0BD5
:100FC000900001D3E5829509E58395085024D293DA
:100FD000C374EB950BFF7405950AFE12143AC29385
:100FE000D292E50B24DCFFE50A3405FE12115BA367
:020FF00080D1AE
:010FF20022DC
:041202008E158F16A0
:10120600900001D3E5829516E58395155015D29386
:101216007F907E0612143AC293D2927F25121159FC
:03122600A380E0C2
:0112290022A2
:0412BF008E158F16E3
:1012C300900001D3E5829516E5839515500F12140E
:0D12D30034C293D2927F44121159A380E6D9
:0112E00022EB
:0B151F00C293C2927F147E0002116490
:0412E1008E308F318B
:1012E500900001D3E5829531E5839530500F1214B6
:0D12F50034C293D2927F1D121159A380E6DE
:0113020022C8
:041384008E328F33E3
:10138800900001D3E5829533E5839532500AD293D4
:081398007FCC12114EA380EB83
:0113A000222A
:0B0EA0001211647D327C007F287E0070
:080EAB008E0A8F0B8C0C8D0DDB
:100EB300900001D3E582950BE583950A5023D293E5
:100EC300E50D24DCFFE50C3405FE12143AC293D27F
:100ED30092E50D24F5FFE50C3405FE12115BA380AA
:010EE300D23C
:010EE40022EB
:0F0E55007FA07E0F1211647D467C007F1E7E0001
:080E64008E088F098C0A8D0B2A
:100E6C00900001D3E5829509E58395085025D2932E
:100E7C00C374E6950BFF7405950AFE12143AC293DF
:100E8C00D292C374E1950BFF7405950AFE12115BA7
:030E9C00A380D060
:010E9F002230
:10147600900001D2937F4012114EA3E58264654528
:031486008370F080
:011489002240
:1013D400900001121434C293D2927F87121159A340
:0813E400E582648D458370EB86
:0113EC0022DE
:10144B00D2A100D2A00000000000C2A10000000049
:06145B0000C2A000002207
:1014B200C2A100D2A00000000000D2A100000000E2
:0114C2002207
:100FF300E4FEEFA806088002C333D8FC30E704D22E
:10100300A18002C2A100D2A00000000000C2A00E75
:10101300BE08DF0000D2A10000D2A000000030A172
:0B10230004C2008002D200C2A0000046
:01102E00229F
:10127700E4FFD2A1FE00C2A00000000000D2A0003F
:1012870000EF25E0FF30A1010F00000EBE08E6C207
:03129700A00000B4
:01129A002231
:1013ED00200104C2A18002D2A1000000D2A0000001
:0813FD00000000C2A000002264
:0D14D100EFD3940040077E7DDEFE1F80F308
:0114DE0022EB
:10122A00AE07AC0312144B120FF3200002C322AF15
:10123A0005120FF3200002C322AF04120FF320009D
:08124A0002C3221214B2D322E8
:1013A10012144B120FF3200002C322AF05120FF3E8
:0A13B100200002C3221214B2D3225E
:071303007F901213A17F90FF
:10130A0012144BEF04FF120FF32000037F00221286
:0A131A001277D2011213ED1214B283
:0113240022A6
:10140500D2AFD2ACD2AB758920E4F587759850750B
:081415008DFD758BFDD28E22C6
:1003FC00E47872F608F6E47874F608F6C3740978B3
:10040C007396FFE41896FE7874E6FC08E6FDC39F2D
:10041C00EC9E40030204BFED2401FFE43CFEEF25FB
:10042C00E0FFEE338F82F58312036AFDACF0787532
:10043C00E625E0FF18E6338F82F58312036AD39D1D
:10044C00E5F09C40637874E6FC08E6FD25E0FFECE3
:10045C00338F82F58312036A7876A6F008F6ED24C2
:10046C0001FFE43CFEEF25E0FFEE338F82F58312B3
:10047C00036AFD7875E625E0FF18E6338F82F58375
:10048C00E5F08DF01203C17876E6FC08E6FD787590
:10049C00E62401FF18E436FEEF25E0FFEE338F82F1
:1004AC00F583EC8DF01203C1787506E61870010621
:1004BC00020408787306E6187001067873E664097E
:1004CC001846600302040212033F785EA6F008F699
:1004DC00784A7600087601E47874F608F67872F6B5
:1004EC0008F67872E6FE08E6FFC39409EE94004025
:1004FC0003020584EF2401FFE43EFEEF25E0FFEE4E
:10050C00338F82F58312036AFDACF07873E625E035
:10051C00FF18E6338F82F58312036A6D7003EC6566
:10052C00F0603B787506E6187001067875E6FD25D7
:10053C00E0244AF876000876017873E62401FF1867
:10054C00E436FEEF25E0FFEE338F82F58312036A6B
:10055C00FFED25E0245EF8A6F008A607800F78755D
:10056C00E625E0244AF80806E618700106787306BA
:10057C00E6187001060204EEE47872F608F6D379F8
:10058C0073E778759619E718965066E47876F6084E
:10059C00F67872E6FE08E6FFD3787596EE1896505C
:1005AC00467876E6FC08E6FD25E0244AF8E6FA08EB
:1005BC00E6FBA907E925E0244AF8E6FE08E6C39B1A
:1005CC00EE9A50028021ED7875667003EC18667017
:1005DC000CE925E0245EF8E6FE08E6FF22787706B3
:1005EC00E61870AD0680AA787306E618709006803F
:0105FC008D71
:0105FD0022DB
:0B136500C3E50D950BFFE50C950AFE9B
:10137000D3EF9400EE64809480400122C3E49FFF89
:04138000E49EFE22C7
:10106B0078367C007D007BFF7A0B79697E007F14DC
:10107B001202ABE4FBFA7D40121303EB25E024369E
:10108B00F8760008A6070BBB00010AEB640A4A704E
:0A109B00E57B007A0079361203FCB1
:0110A5002228
:100D69008B108A1189128C138D1412106BAB10AA77
:100D790011A912EE8FF01203A2AB10AA11A9121237
:100D8900033FC39514E5F0951350077F017E0002D8
:100D99001202AB10AA11A91212033FD39514E5F060
:100DA900951340077F017E000212BF7F01120F6F6A
:010DB9002217
:1010A60078367C007D007BFF7A0B797D7E007F148D
:1010B6001202ABE4FBFA7D41121303EB25E0243662
:1010C600F8760008A6070BBB00010AEB640A4A7013
:0A10D600E57B007A0079361203FC76
:0110E00022ED
:100D12008B108A1189128C138D141210A6AB10AA93
:100D220011A912EE8FF01203A2AB10AA11A912128E
:100D3200033FC39514E5F0951350077F017E00022F
:100D420012BFAB10AA11A91212033FD39514E5F0FA
:100D5200951340077F017E000212027DC87C007F4E
:070D6200017E00120F752253
:040916007F2F7E00B1
:04091A008E088F09AB
:10091E00750A00750B35750C00750D35D3E50D9503
:10092E0009E50C950850030209E6D3E50B9509E598
:10093E000A950850030209E612106B8E0A8F0B12ED
:10094E000F6D12106B8E0C8F0D121365C3EF940288
:10095E00EE64809480503B12106B8E0A8F0BD3E5A1
:10096E000D9509E50C9508406FD3E50B9509E50A41
:10097E0095084064121366D3EF9406EE648094805B
:10098E004001227B007A00790CAD0BAC0A120D6986
:10099E0080CC121365C3EF9402EE648094805003F2
:1009AE0002092AD3E50D9509E50C950850030209B5
:1009BE002AD3E50D950BE50C950A40087F01120E22
:1009CE001502092AC3E50D950BE50C950A400302A5
:0809DE00092A120EE502092AA4
:0109E60022EE
:04081D008E088F09A9
:10082100750A00750B35750C00750D35D3E50D9501
:1008310009E50C95085003020915D3E50B9509E567
:100841000A950850030209151210A68E0A8F0B1281
:100851000F6D1210A68E0C8F0DC3E50D950BFFE5E4
:100861000C950AFE121370C3EF9402EE648094801B
:10087100504B1210A68E0A8F0BD3E50D9509E50C8E
:1008810095085003020915D3E50B9509E50A95086A
:100891005003020915E50D950BFFE50C950AFE12B3
:1008A1001370D3EF9406EE648094804001227B00A4
:1008B1007A00790CAD0BAC0A120D1280BCC3E50DA8
:1008C100950BFFE50C950AFE121370C3EF9402EE2F
:1008D10064809480500302082DD3E50D9509E50C41
:1008E1009508500302082DD3E50D950BE50C950AEB
:1008F1004006120EE502082DC3E50D950BE50C959A
:100901000A400302082D7DC87C007F017E00120E83
:040911001B02082D90
:0109150022BF
:080716008E088F098C0A8D0B7F
:10071E00750C00750D35750E00750F35D3E50F95FB
:10072E0009E50E9508500302081CD3E50D9509E561
:10073E000C9508500302081C120DBAD3EF950BE569
:10074E000A6480F8EE64809850012212106B8E0CB1
:10075E008F0D120F6D12106B8E0E8F0FC3E50F954E
:10076E000DFFE50E950CFE121370C3EF9402EE64AE
:10077E00809480504012106B8E0C8F0DD3E50F9528
:10078E0009E50E9508500302081CD3E50D9509E501
:10079E000C950840797B007A00790EAD0DAC0C12E9
:1007AE000D69120DBAD3EF950BE50A6480F8EE646D
:1007BE00809850C822C3E50F950DFFE50E950CFEEF
:1007CE00121370C3EF9402EE6480948050030207FC
:1007DE002AD3E50F9509E50E9508500302072AD393
:1007EE00E50F950DE50E950C400E7DC87C007F0241
:1007FE007E00120E1B02072AC3E50F950DE50E951E
:0E080E000C400302072A7F02120EE702072A9F
:01081C0022B9
:0805FE007D877F2E7C007E004A
:080606008E088F098C0A8D0B90
:10060E00750C00750D35750E00750F35D3E50F950C
:10061E0009E50E95085003020715D3E50D9509E57A
:10062E000C95085003020715120DBAD3EF950BE582
:10063E000A6480F8EE6480985001221210A68E0C87
:10064E008F0D120F6D1210A68E0E8F0FC3E50F9524
:10065E000DFFE50E950CFE121370C3EF9402EE64BF
:10066E0080948050431210A68E0C8F0DD3E50F95FB
:10067E0009E50E95085003020715D3E50D9509E51A
:10068E000C950850030207157B007A00790EAD0D0C
:10069E00AC0C120D12120DBAD3EF950BE50A648055
:1006AE00F8EE64809850C522C3E50F950DFFE50E58
:1006BE00950CFE121370C3EF9402EE64809480507A
:1006CE000302061AD3E50F9509E50E9508500302AD
:1006DE00061AD3E50F950DE50E950C400E7DC87CE0
:1006EE00007F027E00120EED02061AC3E50F950D75
:1006FE00E50E950C400302061A7DC87C007F027E33
:07070E0000120E1B02061A87
:0107150022C1
:0E14DF001214767DC87C007F3C7E00020F75E3
:0E14ED001213D47DC87C007F3C7E00020F7578
:10129B008E088F09120DBAD3EF9509E5086480F813
:1012AB00EE648098400D7DC87C007F027E00120F9B
:0412BB007580E12237
:101325008E348F35120DBAD3EF9535E5346480F8D8
:10133500EE64809840097F027E001212E180E5226A
:101345007D097C017F2F7E001207161213D4120926
:10135500161214ED7D7E7F2D12060212151F80FBDD
:1010E1001209167FA57E0012129B7DC87C007F2409
:1010F1007E00120EED7F2F7E0012081D7DC87C0040
:101101007F0A7E00120F751214DF120F6D1209167D
:0B1111007D827C007F2D7E0002060620
:101180007DC87C007F787E00120F757F2D7E001257
:10119000081D1213D47DC87C007F3C7E00120F75A1
:0E11A0001213D47DC87C007F3C7E00020F75C8
:100BF50078367C007D007BFF7A0B79917E007F64DF
:100C05001202ABE4F508F509120DBAAD09ED25E0C0
:100C15002438F8A60608A607ED25E02439F9ED25C0
:100C2500E02437F8C3E697FF18E61997FEC3EF945B
:100C35003CEE648094804004C290801C7D3C7C0026
:100C45007F057E00120E1B0509E50970020508C324
:100C55009431E508940040B0C2907FA07E0F121138
:100C65006420801E20811B120EA37F887E13120E26
:100C7500A07FA07E0F120EA07FA07E0F121164D25E
:0F0C850090227DC87C007F0F7E00120E1BD29044
:010C9400223D
:10148A001205FE120BF57DC87C007F247E00120E29
:04149A001B021345D9
:10102F007D9B1206007DC87C007F217E00120EED95
:10103F007D7F120600120BF57DC87C007F327E008B
:10104F00120E1B7D797C007F2E7E001207167DC845
:0C105F007C007F217E00120E1B02134556
:1011AE007DC87C007F507E00120F75C290120E55C6
:1011BE00120E55120E55120E0A120FB07DC87C007B
:0A11CE007F207E00120EED02134593
:10149E001205FE120BF57DC87C007F247E00120E15
:0414AE001B0210E12C
:100F29007DAD7C007F2D7E001206067DC87C007F8A
:100F3900217E00120EED7F7F7E0012129B120BF5AF
:100F49007DC87C007F267E00120E1B7D9B7C007F66
:100F59002D7E001207167DC87C007F207E00120EB0
:040F69001B0210E176
:1011D8007DC87C007F417E00120F75C290120E5CA4
:1011E800120E55120E55120E0A120FB07DC87C0051
:0A11F8007F207E00120EED0210E1D0
:100AA5001214C3120003C2B2D290D280D2811211A5
:100AB5008020803120812E7DC87C007F077E00123A
:100AC5000E1B2080132081107DC87C007F077E00CF
:100AD500120EED12149E80727DC87C007F077E0089
:100AE500120EED802F7DC87C007F0F7E00120EED6B
:100AF5002080262081237DC87C007F177E00120E72
:100B0500ED20800520810280217DC87C007F277E25
:100B150000120E1B120F2980317DC87C007F177EC5
:100B250000120EED2080132081107DC87C007F0609
:100B35007E00120E1B1211D880107DC87C007F1B11
:0F0B45007E00120EED12151F80FB12151F80FB94
:10001600EC4D6011E8497017ED33EC3304600DE4E4
:10002600FCFFFEFD22E933E8330470F80201C61234
:10003600019158046009E4CC248150062850090235
:1000460001D02840030201CDC0E0EB4A7044B980DC
:1000560006D0E0FB0201BCEF4E701CBD8008EBFF32
:10006600EAFEE9FD80EBE98DF0A4FEE5F00200FF73
:10007600E9CDF9EAFEEBFFEF89F0A4FCE5F0CE89C5
:10008600F0A42EFFE435F0CD89F0A42DFEE435F082
:100096008067EF4E7005BD80D780C3EF8BF0A4ACB0
:1000A600F0EE8BF0A42CFCE435F0F8EF8AF0A42CEB
:1000B600E5F038FCE433CB8DF0A42CFCE5F03BF8FE
:1000C600EE8AF0A42CFCE5F038F8E433CF89F0A4EE
:1000D6002CFCE5F038CF3400CE89F0A42FFFE5F0F4
:1000E6003EFEE433C98DF0A42EFEE5F039CD8AF04C
:1000F600A42FFFE5F03EFEE43DFD33D0E0FB5007C4
:100106000BBB000F0201D0EC2CFCEF33FFEE33FEED
:06011600ED33FD0201A81B
:10011C0075F020800E75F010800575F0087D007E5E
:10012C00007F003392D530D5031203EEEC33401030
:10013C00EF33FFEE33FEED33FDEC33FCD5F0ED2267
:0E014C00E5F0247EA2D513CC92E7CDCEFF22A3
:10015A00EDD2E7CD33EC3392D524814006E4FFFE9D
:10016A00FDFC22FCE4CFCECDCC24E0501174FF80FC
:10017A00EDC3CC13CCCD13CDCE13CECF13CF047099
:07018A00F030D5DE0203EEA8
:10019100E9D2E7C933E833F892D5EDD2E7CD33ECB4
:0701A10033FC5002B2D5222D
:1001A800EC30E7100FBF000C0EBE00080DBD0004B8
:1001B8000BEB6014A2D5EB13FCED92E7FD2274FF64
:1001C800FCFDFEFF22E480F8A2D574FF13FC7D80BD
:0301D800E480EFD1
:1001DB00E709F608DFFA8046E709F208DFFA803E06
:1001EB0088828C83E709F0A3DFFA8032E309F608F3
:1001FB00DFFA8078E309F208DFFA807088828C835B
:10020B00E309F0A3DFFA806489828A83E0A3F6080E
:10021B00DFFA805889828A83E0A3F208DFFA804CE8
:10022B0080D280FA80C680D4806980F280338010BF
:10023B0080A680EA809A80A880DA80E280CA803328
:10024B0089828A83ECFAE493A3C8C582C8CCC583A0
:10025B00CCF0A3C8C582C8CCC583CCDFE9DEE78070
:10026B000D89828A83E493A3F608DFF9ECFAA9F0EF
:10027B00EDFB2289828A83ECFAE0A3C8C582C8CC45
:10028B00C583CCF0A3C8C582C8CCC583CCDFEADE5E
:10029B00E880DB89828A83E493A3F208DFF980CCC0
:1002AB0088F0EF60010E4E60C388F0ED2402B404B9
:1002BB000050B9F582EB2402B4040050AF23234560
:0602CB00822390022B7358
:1002D100BB010689828A83E0225002E722BBFE022B
:0902E100E32289828A83E493225E
:1002EA00BC000BBE0029EF8DF084FFADF022E4CCF8
:1002FA00F875F008EF2FFFEE33FEEC33FCEE9DECC1
:10030A00984005FCEE9DFE0FD5F0E9E4CEFD22ED06
:10031A00F8F5F0EE8420D21CFEADF075F008EF2F50
:10032A00FFED33FD4007985006D5F0F222C398FD41
:05033A000FD5F0EA22DE
:10033F00BB010A89828A83E0F5F0A3E02250068789
:10034F00F009E71922BBFE07E3F5F009E31922894B
:0B035F00828A83E493F5F0740193227E
:10036A00BB0110E58229F582E5833AF583E0F5F0D1
:10037A00A3E0225009E92582F886F008E622BBFEAE
:10038A000AE92582F8E2F5F008E222E5832AF583F4
:08039A00E993F5F0A3E99322B9
:1003A200BB010A89828A83F0E5F0A3F0225006F7A6
:0F03B20009A7F01922BBFE06F3E5F009F31922A3
:1003C100F8BB0111E58229F582E5833AF583E8F06E
:1003D100E5F0A3F0225009E92582C8F608A6F0222B
:0D03E100BBFE09E92582C8F2E5F008F22212
:0E03EE00C3E49FFFE49EFEE49DFDE49CFC2220
:00000001FF
